{
  "_format": "hh-sol-artifact-1",
  "contractName": "DistributeFundContractV2",
  "sourceName": "contracts/adapters/DistributeFundV2.sol",
  "abi": [
    {
      "inputs": [],
      "name": "Empty",
      "type": "error"
    },
    {
      "anonymous": false,
      "inputs": [
        {
          "indexed": false,
          "internalType": "bytes32",
          "name": "proposalId",
          "type": "bytes32"
        },
        {
          "indexed": false,
          "internalType": "address",
          "name": "projectTokenAddress",
          "type": "address"
        },
        {
          "indexed": false,
          "internalType": "address",
          "name": "projectTeamAddress",
          "type": "address"
        },
        {
          "indexed": false,
          "internalType": "uint256",
          "name": "tradingOffTokenAmount",
          "type": "uint256"
        },
        {
          "indexed": false,
          "internalType": "uint256",
          "name": "requestedFundAmount",
          "type": "uint256"
        },
        {
          "indexed": false,
          "internalType": "uint256",
          "name": "vestingStartTime",
          "type": "uint256"
        },
        {
          "indexed": false,
          "internalType": "uint256",
          "name": "vestingCliffDuration",
          "type": "uint256"
        },
        {
          "indexed": false,
          "internalType": "uint256",
          "name": "vestingStepDuration",
          "type": "uint256"
        },
        {
          "indexed": false,
          "internalType": "uint256",
          "name": "vestingSteps",
          "type": "uint256"
        },
        {
          "indexed": false,
          "internalType": "uint256",
          "name": "inQueueTimestamp",
          "type": "uint256"
        },
        {
          "indexed": false,
          "internalType": "uint256",
          "name": "voteStartingTimestamp",
          "type": "uint256"
        },
        {
          "indexed": false,
          "internalType": "uint256",
          "name": "voteEndTimestamp",
          "type": "uint256"
        },
        {
          "indexed": false,
          "internalType": "uint256",
          "name": "proposalExecuteTimestamp",
          "type": "uint256"
        }
      ],
      "name": "ProposalCreated",
      "type": "event"
    },
    {
      "anonymous": false,
      "inputs": [
        {
          "indexed": false,
          "internalType": "bytes32",
          "name": "proposalID",
          "type": "bytes32"
        },
        {
          "indexed": false,
          "internalType": "uint256",
          "name": "state",
          "type": "uint256"
        },
        {
          "indexed": false,
          "internalType": "uint128",
          "name": "allVotingWeight",
          "type": "uint128"
        },
        {
          "indexed": false,
          "internalType": "uint128",
          "name": "nbYes",
          "type": "uint128"
        },
        {
          "indexed": false,
          "internalType": "uint128",
          "name": "nbNo",
          "type": "uint128"
        },
        {
          "indexed": false,
          "internalType": "uint256",
          "name": "distributeState",
          "type": "uint256"
        }
      ],
      "name": "ProposalExecuted",
      "type": "event"
    },
    {
      "inputs": [
        {
          "internalType": "contract DaoRegistry",
          "name": "dao",
          "type": "address"
        },
        {
          "internalType": "uint256",
          "name": "proposalDuration",
          "type": "uint256"
        },
        {
          "internalType": "uint256",
          "name": "proposalInterval",
          "type": "uint256"
        },
        {
          "internalType": "uint256",
          "name": "proposalExecuteDurantion",
          "type": "uint256"
        }
      ],
      "name": "configureDao",
      "outputs": [],
      "stateMutability": "nonpayable",
      "type": "function"
    },
    {
      "inputs": [
        {
          "internalType": "address",
          "name": "",
          "type": "address"
        },
        {
          "internalType": "bytes32",
          "name": "",
          "type": "bytes32"
        }
      ],
      "name": "distributions",
      "outputs": [
        {
          "internalType": "address",
          "name": "tokenAddr",
          "type": "address"
        },
        {
          "internalType": "uint256",
          "name": "tradingOffTokenAmount",
          "type": "uint256"
        },
        {
          "internalType": "uint256",
          "name": "requestedFundAmount",
          "type": "uint256"
        },
        {
          "internalType": "address",
          "name": "recipientAddr",
          "type": "address"
        },
        {
          "internalType": "address",
          "name": "proposer",
          "type": "address"
        },
        {
          "internalType": "enum IFunding.DistributionStatus",
          "name": "status",
          "type": "uint8"
        },
        {
          "internalType": "uint256",
          "name": "inQueueTimestamp",
          "type": "uint256"
        },
        {
          "internalType": "uint256",
          "name": "proposalStartVotingTimestamp",
          "type": "uint256"
        },
        {
          "internalType": "uint256",
          "name": "proposalStopVotingTimestamp",
          "type": "uint256"
        },
        {
          "internalType": "uint256",
          "name": "proposalExecuteTimestamp",
          "type": "uint256"
        },
        {
          "components": [
            {
              "internalType": "uint256",
              "name": "vestingStartTime",
              "type": "uint256"
            },
            {
              "internalType": "uint256",
              "name": "vestingCliffDuration",
              "type": "uint256"
            },
            {
              "internalType": "uint256",
              "name": "vestingStepDuration",
              "type": "uint256"
            },
            {
              "internalType": "uint256",
              "name": "vestingSteps",
              "type": "uint256"
            }
          ],
          "internalType": "struct IFunding.VestInfo",
          "name": "vestInfo",
          "type": "tuple"
        }
      ],
      "stateMutability": "view",
      "type": "function"
    },
    {
      "inputs": [
        {
          "internalType": "contract DaoRegistry",
          "name": "dao",
          "type": "address"
        },
        {
          "internalType": "address",
          "name": "_addr",
          "type": "address"
        }
      ],
      "name": "isActiveGeneralPartner",
      "outputs": [
        {
          "internalType": "bool",
          "name": "",
          "type": "bool"
        }
      ],
      "stateMutability": "view",
      "type": "function"
    },
    {
      "inputs": [
        {
          "internalType": "contract DaoRegistry",
          "name": "dao",
          "type": "address"
        },
        {
          "internalType": "address",
          "name": "_addr",
          "type": "address"
        }
      ],
      "name": "isActiveMember",
      "outputs": [
        {
          "internalType": "bool",
          "name": "",
          "type": "bool"
        }
      ],
      "stateMutability": "view",
      "type": "function"
    },
    {
      "inputs": [
        {
          "internalType": "address",
          "name": "",
          "type": "address"
        }
      ],
      "name": "ongoingDistributions",
      "outputs": [
        {
          "internalType": "bytes32",
          "name": "",
          "type": "bytes32"
        }
      ],
      "stateMutability": "view",
      "type": "function"
    },
    {
      "inputs": [
        {
          "internalType": "contract DaoRegistry",
          "name": "dao",
          "type": "address"
        },
        {
          "internalType": "bytes32",
          "name": "proposalId",
          "type": "bytes32"
        }
      ],
      "name": "processProposal",
      "outputs": [
        {
          "internalType": "bool",
          "name": "",
          "type": "bool"
        }
      ],
      "stateMutability": "nonpayable",
      "type": "function"
    },
    {
      "inputs": [
        {
          "internalType": "address",
          "name": "",
          "type": "address"
        },
        {
          "internalType": "bytes32",
          "name": "",
          "type": "bytes32"
        },
        {
          "internalType": "address",
          "name": "",
          "type": "address"
        }
      ],
      "name": "projectTeamLockedTokens",
      "outputs": [
        {
          "internalType": "uint256",
          "name": "",
          "type": "uint256"
        }
      ],
      "stateMutability": "view",
      "type": "function"
    },
    {
      "inputs": [],
      "name": "proposalIds",
      "outputs": [
        {
          "internalType": "uint256",
          "name": "",
          "type": "uint256"
        }
      ],
      "stateMutability": "view",
      "type": "function"
    },
    {
      "inputs": [],
      "name": "proposalQueue",
      "outputs": [
        {
          "internalType": "int128",
          "name": "_begin",
          "type": "int128"
        },
        {
          "internalType": "int128",
          "name": "_end",
          "type": "int128"
        }
      ],
      "stateMutability": "view",
      "type": "function"
    },
    {
      "inputs": [
        {
          "internalType": "bytes32",
          "name": "",
          "type": "bytes32"
        }
      ],
      "name": "proposalVoteTypes",
      "outputs": [
        {
          "internalType": "enum DaoHelper.VoteType",
          "name": "",
          "type": "uint8"
        }
      ],
      "stateMutability": "view",
      "type": "function"
    },
    {
      "inputs": [
        {
          "internalType": "contract DaoRegistry",
          "name": "dao",
          "type": "address"
        },
        {
          "internalType": "bytes32",
          "name": "proposalId",
          "type": "bytes32"
        }
      ],
      "name": "startVotingProcess",
      "outputs": [
        {
          "internalType": "bool",
          "name": "",
          "type": "bool"
        }
      ],
      "stateMutability": "nonpayable",
      "type": "function"
    },
    {
      "inputs": [
        {
          "internalType": "contract DaoRegistry",
          "name": "dao",
          "type": "address"
        },
        {
          "internalType": "address[]",
          "name": "_addressArgs",
          "type": "address[]"
        },
        {
          "internalType": "uint256[]",
          "name": "_uint256ArgsProposal",
          "type": "uint256[]"
        }
      ],
      "name": "submitProposal",
      "outputs": [
        {
          "internalType": "bytes32",
          "name": "proposalId",
          "type": "bytes32"
        }
      ],
      "stateMutability": "nonpayable",
      "type": "function"
    },
    {
      "inputs": [
        {
          "internalType": "contract DaoRegistry",
          "name": "dao",
          "type": "address"
        },
        {
          "internalType": "bytes32",
          "name": "proposalId",
          "type": "bytes32"
        }
      ],
      "name": "unLockProjectTeamToken",
      "outputs": [],
      "stateMutability": "nonpayable",
      "type": "function"
    }
  ],
  "bytecode": "0x6080604052620186fa60065534801561001757600080fd5b50614b8c806100276000396000f3fe608060405234801561001057600080fd5b50600436106100cf5760003560e01c8063944fe5211161008c578063a5254bc011610066578063a5254bc014610296578063d5bef02e146102a9578063f8d90d5d146102da578063fde92fcf146102ed57600080fd5b8063944fe5211461023b5780639573167d14610250578063a02f046b1461026357600080fd5b80630fcb03d6146100d45780632531ec70146101075780632b73de35146101375780633d5af2ed1461015a5780634e83cbce146101635780638ecf772014610228575b600080fd5b6100f46100e236600461453c565b60026020526000908152604090205481565b6040519081526020015b60405180910390f35b61012a61011536600461462c565b60036020526000908152604090205460ff1681565b6040516100fe91906149c5565b61014a6101453660046146fc565b610300565b60405190151581526020016100fe565b6100f460065481565b61021161017136600461457b565b60006020818152928152604080822084529181528190208054600182015460028301546003840154600485015460058601546006870154600788015460088901548a51608081018c5260098b01548152600a8b01549c81019c909c52600b8a01549a8c019a909a52600c9098015460608b01526001600160a01b03968716999598949793871696831695600160a01b90930460ff1694919390929091908b565b6040516100fe9b9a99989796959493929190614856565b61014a610236366004614644565b610d1e565b61024e61024936600461470e565b610da4565b005b61014a61025e3660046146fc565b610fee565b60045461027c90600f81810b91600160801b9004900b82565b60408051600f93840b81529190920b6020820152016100fe565b61014a6102a4366004614644565b61196c565b6100f46102b73660046145a6565b600160209081526000938452604080852082529284528284209052825290205481565b61024e6102e83660046146fc565b611aa4565b6100f46102fb36600461467c565b611ec7565b600082600061030e82612bb3565b90508461031b8133612e3f565b600061033a600454600f81810b810b600160801b909204810b900b0390565b116103485760009350610d0b565b6103526004612e8e565b85146103c45760405162461bcd60e51b815260206004820152603660248201527f4469737472696275746546756e643a3a7374617274566f74696e6750726f63656044820152751cdcce8e925b9d985b1a5908141c9bdc1bdcd85b125960521b60648201526084015b60405180910390fd5b6040805160a0810182526000808252602080830182905282840182905260608301829052608083018290526001600160a01b038a1682526002905291909120548082521561053d5760036001600160a01b038816600090815260208181526040808320855184529091529020600490810154600160a01b900460ff169081111561045e57634e487b7160e01b600052602160045260246000fd5b14806104b9575060046001600160a01b038816600090815260208181526040808320855184529091529020600490810154600160a01b900460ff16908111156104b757634e487b7160e01b600052602160045260246000fd5b145b61053d5760405162461bcd60e51b815260206004820152604960248201527f4469737472696275746546756e643a3a7374617274566f74696e6750726f636560448201527f73733a3a7468657265206973206f746865722070726f706f73616c206e6f7420606482015268199a5b985b1a5e995960ba1b608482015260a4016103bb565b604051632c9f4b5b60e11b8152600080516020614b1783398151915260048201526001600160a01b0388169063593e96b69060240160206040518083038186803b15801561058a57600080fd5b505afa15801561059e573d6000803e3d6000fd5b505050506040513d601f19601f820116820180604052508101906105c2919061455f565b6001600160a01b0390811660208301526040516317ba7d8560e01b81527ff26d4834b4a91110d15379eda333e30be707af3a839ee5dbd668b89e4c6c6f6f6004820152908816906317ba7d859060240160206040518083038186803b15801561062a57600080fd5b505afa15801561063e573d6000803e3d6000fd5b505050506040513d601f19601f82011682018060405250810190610662919061455f565b6001600160a01b0390811660408381019190915242606084015251634941d71d60e11b81527fb6be919e1c2ea8efe4d05cbbd5907744b6a7ce982f8d3df2274023e3ba0c152d600482015290881690639283ae3a9060240160206040518083038186803b1580156106d257600080fd5b505afa1580156106e6573d6000803e3d6000fd5b505050506040513d601f19601f8201168201806040525081019061070a91906147e7565b816060015161071991906149df565b60808201526040808201519051634941d71d60e11b81527f02a3530cbb6e7c084516c86f68bd62c3e3fcd783c6c5d7e138616207f7a3225060048201526001600160a01b0391821691633a844ec0918a91821690639283ae3a9060240160206040518083038186803b15801561078e57600080fd5b505afa1580156107a2573d6000803e3d6000fd5b505050506040513d601f19601f820116820180604052508101906107c691906147e7565b84608001516107d591906149df565b6040516001600160e01b031960e085901b1681526001600160a01b039092166004830152602482015260440160206040518083038186803b15801561081957600080fd5b505afa15801561082d573d6000803e3d6000fd5b505050506040513d601f19601f8201168201806040525081019061085191906145e7565b156108c45760405162461bcd60e51b815260206004820152603a60248201527f46756e64526169736550726f706f73616c3a3a7374617274566f74696e67507260448201527f6f636573733a3a63616e7420737461727420766f7465206e6f7700000000000060648201526084016103bb565b6001600160a01b038716600090815260208181526040808320898452909152812090600482810154600160a01b900460ff169081111561091457634e487b7160e01b600052602160045260246000fd5b1461092457600095505050610d0b565b61092e6004612eec565b50604051634941d71d60e11b81527faa072a75f148988e1647e65b0d00c2928a6ed1bc51c4671e0ac15252c77dc49560048201526064906001600160a01b038a1690639283ae3a9060240160206040518083038186803b15801561099157600080fd5b505afa1580156109a5573d6000803e3d6000fd5b505050506040513d601f19601f820116820180604052508101906109c991906147e7565b82600201546109d89190614a0b565b6109e291906149f7565b604051634941d71d60e11b8152600080516020614af783398151915260048201526064906001600160a01b038b1690639283ae3a9060240160206040518083038186803b158015610a3257600080fd5b505afa158015610a46573d6000803e3d6000fd5b505050506040513d601f19601f82011682018060405250810190610a6a91906147e7565b8360020154610a799190614a0b565b610a8391906149f7565b8260020154610a9291906149df565b610a9c91906149df565b82602001516001600160a01b03166318160ddd6040518163ffffffff1660e01b815260040160206040518083038186803b158015610ad957600080fd5b505afa158015610aed573d6000803e3d6000fd5b505050506040513d601f19601f82011682018060405250810190610b1191906147e7565b1015610b3557600401805460ff60a01b1916600160a21b1790555060009350610d0b565b600381015481546001830154600092610b5f928c926001600160a01b039283169290911690612f78565b905080610b855750600401805460ff60a01b1916600160a21b1790555060009350610d0b565b6001828101546001600160a01b038b81166000818152602094855260408082208e83528652808220600389015490941682529290945281842092909255516317ba7d8560e01b81527f0272405e7a7e2834b06b48bd0de471bbb4d8400020ec22f05b6fc30ffddb34a860048201526317ba7d859060240160206040518083038186803b158015610c1457600080fd5b505afa158015610c28573d6000803e3d6000fd5b505050506040513d601f19601f82011682018060405250810190610c4c919061455f565b606085015160068501819055608086015160078601556040805160208101825260008152905163026078cd60e41b81529293506001600160a01b038416926326078cd092610ca2928f928f92919060040161498e565b600060405180830381600087803b158015610cbc57600080fd5b505af1158015610cd0573d6000803e3d6000fd5b505050506001600160a01b038a1660009081526002602052604090208990555050600401805460ff60a01b1916600160a01b17905550600193505b50610d16828261338d565b505092915050565b60405163288c314960e21b81526001600160a01b0382811660048301526000919084169063a230c5249060240160206040518083038186803b158015610d6357600080fd5b505afa158015610d77573d6000803e3d6000fd5b505050506040513d601f19601f82011682018060405250810190610d9b91906145e7565b90505b92915050565b6040516368c18beb60e01b815233600482015284906001600160a01b038216906368c18beb9060240160206040518083038186803b158015610de557600080fd5b505afa158015610df9573d6000803e3d6000fd5b505050506040513d601f19601f82011682018060405250810190610e1d91906145e7565b80610e2c5750610e2c81613398565b610e665760405162461bcd60e51b815260206004820152600b60248201526a37b7363ca0b230b83a32b960a91b60448201526064016103bb565b604051630da0f6c760e41b81527fb6be919e1c2ea8efe4d05cbbd5907744b6a7ce982f8d3df2274023e3ba0c152d6004820152602481018590526001600160a01b0386169063da0f6c7090604401600060405180830381600087803b158015610ece57600080fd5b505af1158015610ee2573d6000803e3d6000fd5b5050604051630da0f6c760e41b81527f471fc557bdbc266c0fcad028b69dd70a6ec23494776d7203d0c2de61d62344056004820152602481018690526001600160a01b038816925063da0f6c709150604401600060405180830381600087803b158015610f4e57600080fd5b505af1158015610f62573d6000803e3d6000fd5b5050604051630da0f6c760e41b81527f02a3530cbb6e7c084516c86f68bd62c3e3fcd783c6c5d7e138616207f7a322506004820152602481018590526001600160a01b038816925063da0f6c7091506044015b600060405180830381600087803b158015610fcf57600080fd5b505af1158015610fe3573d6000803e3d6000fd5b505050505050505050565b6000826000610ffc82612bb3565b905061104660408051610100810182526000808252602082018190529181018290529060608201908152600060208201819052604082018190526060820181905260809091015290565b6001600160a01b038616600090815260026020526040902054808252156110c057805185146110c05760405162461bcd60e51b81526020600482015260326024820152600080516020614b378339815191526044820152710e9a5b9d985b1a59081c1c9c1bdcd85b125960721b60648201526084016103bb565b6001600160a01b0386166000908152602081815260408083208884529091529020600781015442116111485760405162461bcd60e51b815260206004820152603a6024820152600080516020614b3783398151915260448201527f3a70726f706f73616c20696e20766f74696e6720706572696f6400000000000060648201526084016103bb565b6002600482810154600160a01b900460ff169081111561117857634e487b7160e01b600052602160045260246000fd5b14156111e85760405162461bcd60e51b81526020600482015260456024820152600080516020614b3783398151915260448201527f3a70726f706f73616c20616c726561647920696e20657865637574652070726f606482015264677265737360d81b608482015260a4016103bb565b6040516330490e9160e01b8152600481018790526001600160a01b038816906330490e9190602401600060405180830381600087803b15801561122a57600080fd5b505af115801561123e573d6000803e3d6000fd5b5050604051632c9f4b5b60e11b8152600080516020614b1783398151915260048201526001600160a01b038a16925063593e96b6915060240160206040518083038186803b15801561128f57600080fd5b505afa1580156112a3573d6000803e3d6000fd5b505050506040513d601f19601f820116820180604052508101906112c7919061455f565b6001600160a01b039081166040848101919091525163206f381f60e11b815260048101889052908816906340de703e9060240160206040518083038186803b15801561131257600080fd5b505afa158015611326573d6000803e3d6000fd5b505050506040513d601f19601f8201168201806040525081019061134a919061455f565b6001600160a01b0316602083018190526113af5760405162461bcd60e51b81526020600482015260326024820152600080516020614b378339815191526044820152710e9859185c1d195c881b9bdd08199bdd5b9960721b60648201526084016103bb565b6020820151604051633e599bfb60e11b81526001600160a01b03898116600483015290911690637cb337f69060240160206040518083038186803b1580156113f657600080fd5b505afa15801561140a573d6000803e3d6000fd5b505050506040513d601f19601f8201168201806040525081019061142e91906147cd565b6001600160801b031660c083015260208201516040516376225e7360e01b81526001600160a01b03898116600483015260248201899052909116906376225e739060440160606040518083038186803b15801561148a57600080fd5b505afa15801561149e573d6000803e3d6000fd5b505050506040513d601f19601f820116820180604052508101906114c29190614786565b6001600160801b0380821660a087015282166080860152606085018360058111156114fd57634e487b7160e01b600052602160045260246000fd5b600581111561151c57634e487b7160e01b600052602160045260246000fd5b9052506002915061152a9050565b8260600151600581111561154e57634e487b7160e01b600052602160045260246000fd5b14156117c9576004818101805460ff60a01b1916600160a11b1790556001600160a01b038881166000908152600260209081526040918290208a9055858201518251632a1ebd9b60e21b8152925193169363a87af66c9383820193909190829003018186803b1580156115c057600080fd5b505afa1580156115d4573d6000803e3d6000fd5b505050506040513d601f19601f820116820180604052508101906115f8919061455f565b6001600160a01b0390811660e0840152604051634941d71d60e11b8152600080516020614af78339815191526004820152606491891690639283ae3a9060240160206040518083038186803b15801561165057600080fd5b505afa158015611664573d6000803e3d6000fd5b505050506040513d601f19601f8201168201806040525081019061168891906147e7565b82600201546116979190614a0b565b6116a191906149f7565b81600201546116b091906149df565b82604001516001600160a01b03166318160ddd6040518163ffffffff1660e01b815260040160206040518083038186803b1580156116ed57600080fd5b505afa158015611701573d6000803e3d6000fd5b505050506040513d601f19601f8201168201806040525081019061172591906147e7565b101561174a576004818101805460ff60a01b1916600160a01b835b021790555061187b565b611754878761359f565b61175e8787613703565b611768878761399c565b6117728787613ba8565b61177c8787613cda565b6001600160a01b0380881660009081526001602090815260408083208a84528252808320600380870154909516845290915281205560048201805460ff60a01b1916600160a01b83611740565b6003826060015160058111156117ef57634e487b7160e01b600052602160045260246000fd5b148061181e575060018260600151600581111561181c57634e487b7160e01b600052602160045260246000fd5b145b1561183c576004818101805460ff60a01b1916600160a01b83611740565b60405162461bcd60e51b81526020600482015260146024820152731d9bdd1a5b99c81b9bdd08199a5b985b1a5e995960621b60448201526064016103bb565b4260088201556001600160a01b03871660009081526002602052604081205560608201517f36ce02c114f302284f28fe16675863700933291f7bd3381ab096ef96da5c660590879060058111156118e257634e487b7160e01b600052602160045260246000fd5b60c0850151608086015160a0870151600487810154600160a01b900460ff169081111561191f57634e487b7160e01b600052602160045260246000fd5b6040805196875260208701959095526001600160801b03938416868601529183166060860152909116608084015260a0830152519081900360c00190a1600194505050610d16828261338d565b60405163fefbd87560e01b81527f67e84d3ef18b24e32f9a9b2e9bac9e7ea8cde2f146ce512d44b9d6718a1f3ca0600482015260009081906001600160a01b0385169063fefbd8759060240160206040518083038186803b1580156119d057600080fd5b505afa1580156119e4573d6000803e3d6000fd5b505050506040513d601f19601f82011682018060405250810190611a08919061455f565b90506001600160a01b03811615611a9a576040516319a73c8360e31b81526001600160a01b03848116600483015282169063cd39e4189060240160206040518083038186803b158015611a5a57600080fd5b505afa158015611a6e573d6000803e3d6000fd5b505050506040513d601f19601f82011682018060405250810190611a9291906145e7565b915050610d9e565b5060009392505050565b816000611ab082612bb3565b6001600160a01b0385166000908152600160209081526040808320878452825280832033845290915290205490915080611b525760405162461bcd60e51b815260206004820152603960248201527f4469737472696275746546756e643a3a756e4c6f636b50726f6a65637454656160448201527f6d546f6b656e3a3a6e6f2066756e6420746f20756e6c6f636b0000000000000060648201526084016103bb565b6001600160a01b0385811660009081526020818152604080832088845290915290819020805491516370a0823160e01b815230600482015290929190911690839082906370a082319060240160206040518083038186803b158015611bb657600080fd5b505afa158015611bca573d6000803e3d6000fd5b505050506040513d601f19601f82011682018060405250810190611bee91906147e7565b1015611c625760405162461bcd60e51b815260206004820152603960248201527f4469737472696275746546756e643a3a756e4c6f636b50726f6a65637454656160448201527f6d546f6b656e3a3a496e73756666696369656e742046756e640000000000000060648201526084016103bb565b60405163206f381f60e11b8152600481018790526000906001600160a01b038916906340de703e9060240160206040518083038186803b158015611ca557600080fd5b505afa158015611cb9573d6000803e3d6000fd5b505050506040513d601f19601f82011682018060405250810190611cdd919061455f565b6040516376225e7360e01b81526001600160a01b038a81166004830152602482018a90529192506000918316906376225e7390604401606060405180830381600087803b158015611d2d57600080fd5b505af1158015611d41573d6000803e3d6000fd5b505050506040513d601f19601f82011682018060405250810190611d659190614786565b5090915060049050600485810154600160a01b900460ff1690811115611d9b57634e487b7160e01b600052602160045260246000fd5b14611e065760405162461bcd60e51b815260206004820152603560248201527f4469737472696275746546756e643a3a756e4c6f636b50726f6a6563745465616044820152741b551bdad95b8e8e9b9bdd081cd85d1a5cd99a5959605a1b60648201526084016103bb565b6001600160a01b0389811660009081526001602090815260408083208c8452825280832033808552925280832092909255905163a9059cbb60e01b81526004810191909152602481018790529084169063a9059cbb90604401602060405180830381600087803b158015611e7957600080fd5b505af1158015611e8d573d6000803e3d6000fd5b505050506040513d601f19601f82011682018060405250810190611eb191906145e7565b505050505050611ec1828261338d565b50505050565b600085611ed48133612e3f565b866000611ee082612bb3565b9050611f836040518061020001604052806000801916815260200160006001600160a01b0316815260200160006001600160a01b0316815260200160006001600160a01b031681526020016000801916815260200160008152602001600081526020016000815260200160008152602001600081526020016000815260200160008152602001600081526020016000815260200160008152602001600081525090565b6040516317ba7d8560e01b81527ff26d4834b4a91110d15379eda333e30be707af3a839ee5dbd668b89e4c6c6f6f60048201526001600160a01b038b16906317ba7d859060240160206040518083038186803b158015611fe257600080fd5b505afa158015611ff6573d6000803e3d6000fd5b505050506040513d601f19601f8201168201806040525081019061201a919061455f565b6001600160a01b03908116604083810182905251634b304e2160e11b8152918c166004830152906396609c4290602401602060405180830381600087803b15801561206457600080fd5b505af1158015612078573d6000803e3d6000fd5b505050506040513d601f19601f8201168201806040525081019061209c91906145e7565b50600181604001516001600160a01b0316633d7a54426040518163ffffffff1660e01b815260040160206040518083038186803b1580156120dc57600080fd5b505afa1580156120f0573d6000803e3d6000fd5b505050506040513d601f19601f820116820180604052508101906121149190614767565b600281111561213357634e487b7160e01b600052602160045260246000fd5b1480156121bd575060408082015190516320ec26d960e01b81526001600160a01b038c81166004830152909116906320ec26d99060240160206040518083038186803b15801561218257600080fd5b505afa158015612196573d6000803e3d6000fd5b505050506040513d601f19601f820116820180604052508101906121ba91906147e7565b42115b8015612246575060408082015190516314195fd760e11b81526001600160a01b038c8116600483015290911690632832bfae9060240160206040518083038186803b15801561220b57600080fd5b505afa15801561221f573d6000803e3d6000fd5b505050506040513d601f19601f8201168201806040525081019061224391906147e7565b42105b6122c65760405162461bcd60e51b815260206004820152604560248201527f46756e64696e673a3a7375626d697450726f706f73616c3a3a6f6e6c7920636160448201527f6e207375626d69742070726f706f73616c20696e20696e76657374696e672070606482015264195c9a5bd960da1b608482015260a4016103bb565b6002881480156122d65750600686145b61233c5760405162461bcd60e51b815260206004820152603160248201527f46756e64696e673a3a7375626d697450726f706f73616c3a3a696e76616c6964604482015270103830b930b6b2ba32b910373ab6b132b960791b60648201526084016103bb565b6040516317ba7d8560e01b81527f0272405e7a7e2834b06b48bd0de471bbb4d8400020ec22f05b6fc30ffddb34a860048201526001600160a01b038b16906317ba7d859060240160206040518083038186803b15801561239b57600080fd5b505afa1580156123af573d6000803e3d6000fd5b505050506040513d601f19601f820116820180604052508101906123d3919061455f565b6001600160a01b031660208083018290526040805191820181526000825251630966917d60e41b815263966917d091612414918e9130913390600401614950565b602060405180830381600087803b15801561242e57600080fd5b505af1158015612442573d6000803e3d6000fd5b505050506040513d601f19601f82011682018060405250810190612466919061455f565b6001600160a01b03166060820152868660008161249357634e487b7160e01b600052603260045260246000fd5b60200291909101356101c083015250868660018181106124c357634e487b7160e01b600052603260045260246000fd5b60200291909101356101e083015250868660028181106124f357634e487b7160e01b600052603260045260246000fd5b6020029190910135610140830152508686600381811061252357634e487b7160e01b600052603260045260246000fd5b6020029190910135610160830152508686600481811061255357634e487b7160e01b600052603260045260246000fd5b6020029190910135610180830152508686600581811061258357634e487b7160e01b600052603260045260246000fd5b60200291909101356101a083015250610140810151158015906125ab57506000816101600151115b80156125bc57506000816101800151115b80156125cd57506000816101a00151115b6126655760405162461bcd60e51b815260206004820152605a60248201527f46756e64696e673a3a7375626d697450726f706f73616c3a3a76657374696e6760448201527f2073746172742074696d652c20636c696666206475726174696f6e2c2073746560648201527f70206475726174696f6e2c207374657073206d757374203e2030000000000000608482015260a4016103bb565b6000816101c0015111801561267f57506000816101e00151115b6127085760405162461bcd60e51b815260206004820152604e60248201527f46756e64696e673a3a7375626d697450726f706f73616c3a3a696e76616c696460448201527f2074726164696e672d4f666620546f6b656e206f722074726164696e67206f6660648201526d19881d1bdad95b88105b5bdd5b9d60921b608482015260a4016103bb565b60008989828161272857634e487b7160e01b600052603260045260246000fd5b905060200201602081019061273d919061453c565b6001600160a01b031614156127ae5760405162461bcd60e51b815260206004820152603160248201527f46756e64696e673a3a7375626d697450726f706f73616c3a3a696e76616c6964604482015270207265636569766572206164647265737360781b60648201526084016103bb565b6127e06127bc600654613f9e565b6040516020016127cc919061482b565b6040516020818303038152906040526140b8565b6080820181905260405163b73dc38960e01b815260048101919091526001600160a01b038b169063b73dc38990602401600060405180830381600087803b15801561282a57600080fd5b505af115801561283e573d6000803e3d6000fd5b50505050600060405180606001604052808b8b600081811061287057634e487b7160e01b600052603260045260246000fd5b9050602002016020810190612885919061453c565b6001600160a01b031681526020018b8b60018181106128b457634e487b7160e01b600052603260045260246000fd5b90506020020160208101906128c9919061453c565b6001600160a01b031681523360209091015260808301519091506128f1908c90838b8b6140d4565b4260a08301526001600160a01b038b1660008181526020818152604080832060808701805185528184528285206006015460e08901528585528484528051855281845282852060070154610100890152858552848452805185529083529281902060080154610120870152915160608601519186015192516344b574dd60e11b815263896ae9ba936129a093916004019283526001600160a01b03918216602084015216604082015260600190565b600060405180830381600087803b1580156129ba57600080fd5b505af11580156129ce573d6000803e3d6000fd5b50505050608082015160048054600160801b90819004600f90810b80820b820b60009081526005602052604090209490945582546001600160801b03908116600190950190910b16029190911790556001600160a01b038b16600090815260208181526040808320608086015184529091528120600401805460ff60a01b191690556006805460019290612a639084906149df565b90915550506080820151602082015182517faf53f61a5a2efc5f20e15962b5152e0a0b731d2a21002d2e4d7717942edbbb879291908b8b6001818110612ab957634e487b7160e01b600052603260045260246000fd5b905060200201358c8c6000818110612ae157634e487b7160e01b600052603260045260246000fd5b905060200201358761014001518861016001518961018001518a6101a001518b60a001518c60e001518d61010001518e6101200151604051612b939d9c9b9a999897969594939291909c8d526001600160a01b039b8c1660208e015299909a1660408c015260608b019790975260808a019590955260a089019390935260c088019190915260e08701526101008601526101208501526101408401526101608301919091526101808201526101a00190565b60405180910390a15050612ba7828261338d565b50505095945050505050565b6040805160808101825260008082526020820181905291810182905260608101919091525a81600001818152505043826001600160a01b031663b21634826040518163ffffffff1660e01b815260040160206040518083038186803b158015612c1b57600080fd5b505afa158015612c2f573d6000803e3d6000fd5b505050506040513d601f19601f82011682018060405250810190612c5391906147e7565b1415612c945760405162461bcd60e51b815260206004820152601060248201526f1c99595b9d1c985b98de4819dd585c9960821b60448201526064016103bb565b816001600160a01b03166310fdb0a26040518163ffffffff1660e01b8152600401600060405180830381600087803b158015612ccf57600080fd5b505af1158015612ce3573d6000803e3d6000fd5b50506040516372c6838f60e01b81527f1f2fd42ad6a6cacd573c4b212beb7a4e2499ad45d742a65337097f130e71daff6004820152600092506001600160a01b03851691506372c6838f9060240160206040518083038186803b158015612d4957600080fd5b505afa158015612d5d573d6000803e3d6000fd5b505050506040513d601f19601f82011682018060405250810190612d81919061455f565b90506001600160a01b038116612d9d5760006020830152612e39565b6001600160a01b038181166060840181905283516040516343a8a3f160e01b8152928616600484015260248301526000918291906343a8a3f190604401604080518083038186803b158015612df157600080fd5b505afa158015612e05573d6000803e3d6000fd5b505050506040513d601f19601f82011682018060405250810190612e299190614601565b9015156020860152604085015250505b50919050565b612e49828261196c565b612e8a5760405162461bcd60e51b815260206004820152601260248201527137b7363ca3b2b732b930b62830b93a3732b960711b60448201526064016103bb565b5050565b6000612ead8254600f81810b810b600160801b909204810b900b131590565b15612ecb57604051631ed9509560e11b815260040160405180910390fd5b508054600f90810b810b900b60009081526001909101602052604090205490565b6000612f0b8254600f81810b810b600160801b909204810b900b131590565b15612f2957604051631ed9509560e11b815260040160405180910390fd5b508054600f90810b80820b820b600090815260018085016020526040822080549290558454920190920b6001600160801b03166fffffffffffffffffffffffffffffffff199091161790915590565b6040516370a0823160e01b81526001600160a01b03848116600483015260009184918491908316906370a082319060240160206040518083038186803b158015612fc157600080fd5b505afa158015612fd5573d6000803e3d6000fd5b505050506040513d601f19601f82011682018060405250810190612ff991906147e7565b10806130845750604051636eb1769f60e11b81526001600160a01b03868116600483015230602483015284919083169063dd62ed3e9060440160206040518083038186803b15801561304a57600080fd5b505afa15801561305e573d6000803e3d6000fd5b505050506040513d601f19601f8201168201806040525081019061308291906147e7565b105b15613093576000915050613385565b6000816001600160a01b031663dd62ed3e30896001600160a01b03166317ba7d857f71c8887ab5df33af0f26db43a2e569d7268b592b16c505d22229eabd80eb8f366040518263ffffffff1660e01b81526004016130f391815260200190565b60206040518083038186803b15801561310b57600080fd5b505afa15801561311f573d6000803e3d6000fd5b505050506040513d601f19601f82011682018060405250810190613143919061455f565b6040516001600160e01b031960e085901b1681526001600160a01b0392831660048201529116602482015260440160206040518083038186803b15801561318957600080fd5b505afa15801561319d573d6000803e3d6000fd5b505050506040513d601f19601f820116820180604052508101906131c191906147e7565b905060006131cf85836149df565b6040516317ba7d8560e01b81527f71c8887ab5df33af0f26db43a2e569d7268b592b16c505d22229eabd80eb8f3660048201529091506001600160a01b038085169163095ea7b3918b16906317ba7d859060240160206040518083038186803b15801561323b57600080fd5b505afa15801561324f573d6000803e3d6000fd5b505050506040513d601f19601f82011682018060405250810190613273919061455f565b6040516001600160e01b031960e084901b1681526001600160a01b03909116600482015260248101849052604401602060405180830381600087803b1580156132bb57600080fd5b505af11580156132cf573d6000803e3d6000fd5b505050506040513d601f19601f820116820180604052508101906132f391906145e7565b506040516323b872dd60e01b81526001600160a01b038881166004830152306024830152604482018790528416906323b872dd90606401602060405180830381600087803b15801561334457600080fd5b505af1158015613358573d6000803e3d6000fd5b505050506040513d601f19601f8201168201806040525081019061337c91906145e7565b50600193505050505b949350505050565b612e8a8282336143d0565b600080826001600160a01b031663c19d93fb6040518163ffffffff1660e01b815260040160206040518083038186803b1580156133d457600080fd5b505afa1580156133e8573d6000803e3d6000fd5b505050506040513d601f19601f8201168201806040525081019061340c9190614748565b600181111561342b57634e487b7160e01b600052602160045260246000fd5b148015610d9e5750816001600160a01b031663c67143666040518163ffffffff1660e01b815260040160206040518083038186803b15801561346c57600080fd5b505afa158015613480573d6000803e3d6000fd5b505050506040513d601f19601f820116820180604052508101906134a491906147e7565b1580613522575060405163288c314960e21b81523360048201526001600160a01b0383169063a230c5249060240160206040518083038186803b1580156134ea57600080fd5b505afa1580156134fe573d6000803e3d6000fd5b505050506040513d601f19601f8201168201806040525081019061352291906145e7565b80610d9e57506040516368c18beb60e01b81523360048201526001600160a01b038316906368c18beb9060240160206040518083038186803b15801561356757600080fd5b505afa15801561357b573d6000803e3d6000fd5b505050506040513d601f19601f82011682018060405250810190610d9e91906145e7565b604051632c9f4b5b60e11b8152600080516020614b1783398151915260048201526000906001600160a01b0384169063593e96b69060240160206040518083038186803b1580156135ef57600080fd5b505afa158015613603573d6000803e3d6000fd5b505050506040513d601f19601f82011682018060405250810190613627919061455f565b90506000816001600160a01b031663a87af66c6040518163ffffffff1660e01b815260040160206040518083038186803b15801561366457600080fd5b505afa158015613678573d6000803e3d6000fd5b505050506040513d601f19601f8201168201806040525081019061369c919061455f565b6001600160a01b03858116600090815260208181526040808320888452909152908190206003810154600282015492516370bb59af60e11b81529084166004820152848416602482015260448101929092529293509084169063e176b35e90606401610fb5565b604051632c9f4b5b60e11b8152600080516020614b1783398151915260048201526000906001600160a01b0384169063593e96b69060240160206040518083038186803b15801561375357600080fd5b505afa158015613767573d6000803e3d6000fd5b505050506040513d601f19601f8201168201806040525081019061378b919061455f565b90506000816001600160a01b031663a87af66c6040518163ffffffff1660e01b815260040160206040518083038186803b1580156137c857600080fd5b505afa1580156137dc573d6000803e3d6000fd5b505050506040513d601f19601f82011682018060405250810190613800919061455f565b6001600160a01b0385811660008181526020818152604080832089845290915290819020905163fd310d2960e01b81527f5460409b9aa4688f80c10b29c3d7ad16025f050f472a6882a45fa7bb9bd12fb16004820152939450929185169163e176b35e919063fd310d299060240160206040518083038186803b15801561388657600080fd5b505afa15801561389a573d6000803e3d6000fd5b505050506040513d601f19601f820116820180604052508101906138be919061455f565b604051634941d71d60e11b8152600080516020614af7833981519152600482015285906064906001600160a01b038b1690639283ae3a906024015b60206040518083038186803b15801561391157600080fd5b505afa158015613925573d6000803e3d6000fd5b505050506040513d601f19601f8201168201806040525081019061394991906147e7565b86600201546139589190614a0b565b61396291906149f7565b6040516001600160e01b031960e086901b1681526001600160a01b0393841660048201529290911660248301526044820152606401610fb5565b604051632c9f4b5b60e11b8152600080516020614b1783398151915260048201526000906001600160a01b0384169063593e96b69060240160206040518083038186803b1580156139ec57600080fd5b505afa158015613a00573d6000803e3d6000fd5b505050506040513d601f19601f82011682018060405250810190613a24919061455f565b90506000816001600160a01b031663a87af66c6040518163ffffffff1660e01b815260040160206040518083038186803b158015613a6157600080fd5b505afa158015613a75573d6000803e3d6000fd5b505050506040513d601f19601f82011682018060405250810190613a99919061455f565b6001600160a01b0385811660008181526020818152604080832089845290915290819020905163fd310d2960e01b81527fbd9030ecd29faab6f374cbd88517a06a1d8052793336c1cd8bf17421220730966004820152939450929185169163e176b35e919063fd310d299060240160206040518083038186803b158015613b1f57600080fd5b505afa158015613b33573d6000803e3d6000fd5b505050506040513d601f19601f82011682018060405250810190613b57919061455f565b604051634941d71d60e11b81527faa072a75f148988e1647e65b0d00c2928a6ed1bc51c4671e0ac15252c77dc495600482015285906064906001600160a01b038b1690639283ae3a906024016138f9565b6040516317ba7d8560e01b81527f71c8887ab5df33af0f26db43a2e569d7268b592b16c505d22229eabd80eb8f3660048201526000906001600160a01b038416906317ba7d859060240160206040518083038186803b158015613c0a57600080fd5b505afa158015613c1e573d6000803e3d6000fd5b505050506040513d601f19601f82011682018060405250810190613c42919061455f565b6001600160a01b03808516600090815260208181526040808320878452825291829020825160a08101845260018201548152600982015492810192909252600a81015482840152600b8101546060830152600c810154608083015280546004808301549451632eae6d9960e11b81529697509195929480881694635d5cdb3294610fb5948c9484169392909216918b918991016148ee565b604051632c9f4b5b60e11b8152600080516020614b1783398151915260048201526000906001600160a01b0384169063593e96b69060240160206040518083038186803b158015613d2a57600080fd5b505afa158015613d3e573d6000803e3d6000fd5b505050506040513d601f19601f82011682018060405250810190613d62919061455f565b90506000816001600160a01b031663a87af66c6040518163ffffffff1660e01b815260040160206040518083038186803b158015613d9f57600080fd5b505afa158015613db3573d6000803e3d6000fd5b505050506040513d601f19601f82011682018060405250810190613dd7919061455f565b6001600160a01b03858116600081815260208181526040808320898452909152908190209051634941d71d60e11b81527faa072a75f148988e1647e65b0d00c2928a6ed1bc51c4671e0ac15252c77dc4956004820152939450929185169163c3c7645c91859160649190639283ae3a9060240160206040518083038186803b158015613e6257600080fd5b505afa158015613e76573d6000803e3d6000fd5b505050506040513d601f19601f82011682018060405250810190613e9a91906147e7565b8560020154613ea99190614a0b565b613eb391906149f7565b604051634941d71d60e11b8152600080516020614af783398151915260048201526064906001600160a01b038b1690639283ae3a9060240160206040518083038186803b158015613f0357600080fd5b505afa158015613f17573d6000803e3d6000fd5b505050506040513d601f19601f82011682018060405250810190613f3b91906147e7565b8660020154613f4a9190614a0b565b613f5491906149f7565b8560020154613f6391906149df565b613f6d91906149df565b6040516001600160e01b031960e085901b1681526001600160a01b0390921660048301526024820152604401610fb5565b606081613fc25750506040805180820190915260018152600360fc1b602082015290565b8160005b8115613fec5780613fd681614a6d565b9150613fe59050600a836149f7565b9150613fc6565b60008167ffffffffffffffff81111561401557634e487b7160e01b600052604160045260246000fd5b6040519080825280601f01601f19166020018201604052801561403f576020820181803683370190505b5090505b841561338557614054600183614a2a565b9150614061600a86614a88565b61406c9060306149df565b60f81b81838151811061408f57634e487b7160e01b600052603260045260246000fd5b60200101906001600160f81b031916908160001a9053506140b1600a866149f7565b9450614043565b60008151600014156140cc57506000919050565b506020015190565b6040805161016081019091526020808501516001600160a01b0316825281018383600181811061411457634e487b7160e01b600052603260045260246000fd5b9050602002013581526020018383600081811061414157634e487b7160e01b600052603260045260246000fd5b9050602002013581526020018460006003811061416e57634e487b7160e01b600052603260045260246000fd5b60200201516001600160a01b03168152602001846002600381106141a257634e487b7160e01b600052603260045260246000fd5b60200201516001600160a01b03168152602001600060048111156141d657634e487b7160e01b600052602160045260246000fd5b815260200142815260200160008152602001600081526020016000815260200160405180608001604052808585600281811061422257634e487b7160e01b600052603260045260246000fd5b9050602002013581526020018585600381811061424f57634e487b7160e01b600052603260045260246000fd5b9050602002013581526020018585600481811061427c57634e487b7160e01b600052603260045260246000fd5b905060200201358152602001858560058181106142a957634e487b7160e01b600052603260045260246000fd5b60209081029290920135909252919092526001600160a01b03808916600090815280835260408082208a8352845290819020855181549084166001600160a01b03199182161782559386015160018201559085015160028201556060850151600382018054918416918516919091179055608085015160048083018054929094169482168517845560a087015192955091936001600160a81b03199091161790600160a01b90849081111561436e57634e487b7160e01b600052602160045260246000fd5b021790555060c0820151600582015560e082015160068201556101008201516007820155610120820151600882015561014090910151805160098301556020810151600a8301556040810151600b83015560600151600c909101555050505050565b81602001511561446e5781606001516001600160a01b0316635e5eb01384835a86516143fc9190614a2a565b60408088015190516001600160e01b031960e087901b1681526001600160a01b03948516600482015293909216602484015260448301526064820152608401600060405180830381600087803b15801561445557600080fd5b505af1158015614469573d6000803e3d6000fd5b505050505b826001600160a01b031663d4f7af436040518163ffffffff1660e01b8152600401600060405180830381600087803b1580156144a957600080fd5b505af11580156144bd573d6000803e3d6000fd5b50505050505050565b60008083601f8401126144d7578182fd5b50813567ffffffffffffffff8111156144ee578182fd5b6020830191508360208260051b850101111561450957600080fd5b9250929050565b8051801515811461452057600080fd5b919050565b80516001600160801b038116811461452057600080fd5b60006020828403121561454d578081fd5b813561455881614ade565b9392505050565b600060208284031215614570578081fd5b815161455881614ade565b6000806040838503121561458d578081fd5b823561459881614ade565b946020939093013593505050565b6000806000606084860312156145ba578081fd5b83356145c581614ade565b92506020840135915060408401356145dc81614ade565b809150509250925092565b6000602082840312156145f8578081fd5b610d9b82614510565b60008060408385031215614613578182fd5b61461c83614510565b9150602083015190509250929050565b60006020828403121561463d578081fd5b5035919050565b60008060408385031215614656578182fd5b823561466181614ade565b9150602083013561467181614ade565b809150509250929050565b600080600080600060608688031215614693578081fd5b853561469e81614ade565b9450602086013567ffffffffffffffff808211156146ba578283fd5b6146c689838a016144c6565b909650945060408801359150808211156146de578283fd5b506146eb888289016144c6565b969995985093965092949392505050565b6000806040838503121561458d578182fd5b60008060008060808587031215614723578384fd5b843561472e81614ade565b966020860135965060408601359560600135945092505050565b600060208284031215614759578081fd5b815160028110614558578182fd5b600060208284031215614778578081fd5b815160038110614558578182fd5b60008060006060848603121561479a578081fd5b8351600681106147a8578182fd5b92506147b660208501614525565b91506147c460408501614525565b90509250925092565b6000602082840312156147de578081fd5b610d9b82614525565b6000602082840312156147f8578081fd5b5051919050565b60008151808452614817816020860160208601614a41565b601f01601f19169290920160200192915050565b6205446560ec1b815260008251614849816003850160208701614a41565b9190910160030192915050565b6001600160a01b038c81168252602082018c9052604082018b90528981166060830152881660808201526101c081016005881061489557614895614ac8565b8760a08301528660c08301528560e0830152846101008301528361012083015282516101408301526020830151610160830152604083015161018083015260608301516101a08301529c9b505050505050505050505050565b6001600160a01b03868116825285811660208084019190915290851660408301526060820184905261012082019060808301908460005b600581101561494257815184529282019290820190600101614925565b505050509695505050505050565b600060018060a01b03808716835280861660208401526080604084015261497a60808401866147ff565b915080841660608401525095945050505050565b60018060a01b03851681528360208201528260408201526080606082015260006149bb60808301846147ff565b9695505050505050565b60208101600483106149d9576149d9614ac8565b91905290565b600082198211156149f2576149f2614a9c565b500190565b600082614a0657614a06614ab2565b500490565b6000816000190483118215151615614a2557614a25614a9c565b500290565b600082821015614a3c57614a3c614a9c565b500390565b60005b83811015614a5c578181015183820152602001614a44565b83811115611ec15750506000910152565b6000600019821415614a8157614a81614a9c565b5060010190565b600082614a9757614a97614ab2565b500690565b634e487b7160e01b600052601160045260246000fd5b634e487b7160e01b600052601260045260246000fd5b634e487b7160e01b600052602160045260246000fd5b6001600160a01b0381168114614af357600080fd5b5056fe11618fa890234170104debf73b2563b667bd200bac1d7d8dd024e2f3fadaefd2eadd166fac11c69a9d01b14cdd03f0902ebe2a3d90e6e17ced26382b23bfe1c44469737472696275746546756e643a3a70726f6365737350726f706f73616c3aa2646970667358221220043c123a2ad45a7beab76b6e0c538af9bdb5c37a0f2dae8a815d9f6c9ffe6f1364736f6c63430008040033",
  "linkReferences": {},
  "deployedLinkReferences": {}
}