{
  "_format": "hh-sol-artifact-1",
  "contractName": "DistributeFundContractV2",
  "sourceName": "contracts/adapters/DistributeFundV2.sol",
  "abi": [
    {
      "inputs": [],
      "name": "Empty",
      "type": "error"
    },
    {
      "inputs": [],
      "name": "InvalidStepSetting",
      "type": "error"
    },
    {
      "anonymous": false,
      "inputs": [
        {
          "indexed": false,
          "internalType": "bytes32",
          "name": "proposalId",
          "type": "bytes32"
        },
        {
          "indexed": false,
          "internalType": "address",
          "name": "projectTokenAddress",
          "type": "address"
        },
        {
          "indexed": false,
          "internalType": "address",
          "name": "projectTeamAddress",
          "type": "address"
        },
        {
          "indexed": false,
          "internalType": "address",
          "name": "approveOwnerAddress",
          "type": "address"
        },
        {
          "indexed": false,
          "internalType": "uint256",
          "name": "tradingOffTokenAmount",
          "type": "uint256"
        },
        {
          "indexed": false,
          "internalType": "uint256",
          "name": "requestedFundAmount",
          "type": "uint256"
        },
        {
          "indexed": false,
          "internalType": "uint256",
          "name": "vestingStartTime",
          "type": "uint256"
        },
        {
          "indexed": false,
          "internalType": "uint256",
          "name": "vestingCliffDuration",
          "type": "uint256"
        },
        {
          "indexed": false,
          "internalType": "uint256",
          "name": "vestingStepDuration",
          "type": "uint256"
        },
        {
          "indexed": false,
          "internalType": "uint256",
          "name": "vestingSteps",
          "type": "uint256"
        },
        {
          "indexed": false,
          "internalType": "uint256",
          "name": "inQueueTimestamp",
          "type": "uint256"
        },
        {
          "indexed": false,
          "internalType": "uint256",
          "name": "voteStartingTimestamp",
          "type": "uint256"
        },
        {
          "indexed": false,
          "internalType": "uint256",
          "name": "voteEndTimestamp",
          "type": "uint256"
        },
        {
          "indexed": false,
          "internalType": "uint256",
          "name": "proposalExecuteTimestamp",
          "type": "uint256"
        }
      ],
      "name": "ProposalCreated",
      "type": "event"
    },
    {
      "anonymous": false,
      "inputs": [
        {
          "indexed": false,
          "internalType": "bytes32",
          "name": "proposalID",
          "type": "bytes32"
        },
        {
          "indexed": false,
          "internalType": "uint256",
          "name": "state",
          "type": "uint256"
        },
        {
          "indexed": false,
          "internalType": "uint128",
          "name": "allVotingWeight",
          "type": "uint128"
        },
        {
          "indexed": false,
          "internalType": "uint128",
          "name": "nbYes",
          "type": "uint128"
        },
        {
          "indexed": false,
          "internalType": "uint128",
          "name": "nbNo",
          "type": "uint128"
        },
        {
          "indexed": false,
          "internalType": "uint256",
          "name": "distributeState",
          "type": "uint256"
        }
      ],
      "name": "ProposalExecuted",
      "type": "event"
    },
    {
      "anonymous": false,
      "inputs": [
        {
          "indexed": false,
          "internalType": "bytes32",
          "name": "proposalID",
          "type": "bytes32"
        },
        {
          "indexed": false,
          "internalType": "uint256",
          "name": "startVoteTime",
          "type": "uint256"
        },
        {
          "indexed": false,
          "internalType": "uint256",
          "name": "stopVoteTime",
          "type": "uint256"
        },
        {
          "indexed": false,
          "internalType": "enum IFunding.DistributionStatus",
          "name": "state",
          "type": "uint8"
        }
      ],
      "name": "StartVote",
      "type": "event"
    },
    {
      "inputs": [],
      "name": "PERCENTAGE_PRECISION",
      "outputs": [
        {
          "internalType": "uint256",
          "name": "",
          "type": "uint256"
        }
      ],
      "stateMutability": "view",
      "type": "function"
    },
    {
      "inputs": [
        {
          "internalType": "contract DaoRegistry",
          "name": "dao",
          "type": "address"
        },
        {
          "internalType": "uint256",
          "name": "proposalDuration",
          "type": "uint256"
        },
        {
          "internalType": "uint256",
          "name": "proposalInterval",
          "type": "uint256"
        },
        {
          "internalType": "uint256",
          "name": "proposalExecuteDurantion",
          "type": "uint256"
        }
      ],
      "name": "configureDao",
      "outputs": [],
      "stateMutability": "nonpayable",
      "type": "function"
    },
    {
      "inputs": [
        {
          "internalType": "address",
          "name": "",
          "type": "address"
        },
        {
          "internalType": "bytes32",
          "name": "",
          "type": "bytes32"
        }
      ],
      "name": "distributions",
      "outputs": [
        {
          "internalType": "address",
          "name": "tokenAddr",
          "type": "address"
        },
        {
          "internalType": "uint256",
          "name": "tradingOffTokenAmount",
          "type": "uint256"
        },
        {
          "internalType": "uint256",
          "name": "requestedFundAmount",
          "type": "uint256"
        },
        {
          "internalType": "address",
          "name": "recipientAddr",
          "type": "address"
        },
        {
          "internalType": "address",
          "name": "approveOwnerAddr",
          "type": "address"
        },
        {
          "internalType": "address",
          "name": "proposer",
          "type": "address"
        },
        {
          "internalType": "enum IFunding.DistributionStatus",
          "name": "status",
          "type": "uint8"
        },
        {
          "internalType": "uint256",
          "name": "inQueueTimestamp",
          "type": "uint256"
        },
        {
          "internalType": "uint256",
          "name": "proposalStartVotingTimestamp",
          "type": "uint256"
        },
        {
          "internalType": "uint256",
          "name": "proposalStopVotingTimestamp",
          "type": "uint256"
        },
        {
          "internalType": "uint256",
          "name": "proposalExecuteTimestamp",
          "type": "uint256"
        },
        {
          "components": [
            {
              "internalType": "uint256",
              "name": "vestingStartTime",
              "type": "uint256"
            },
            {
              "internalType": "uint256",
              "name": "vestingCliffDuration",
              "type": "uint256"
            },
            {
              "internalType": "uint256",
              "name": "vestingStepDuration",
              "type": "uint256"
            },
            {
              "internalType": "uint256",
              "name": "vestingSteps",
              "type": "uint256"
            },
            {
              "internalType": "uint256",
              "name": "vestingCliffLockAmount",
              "type": "uint256"
            }
          ],
          "internalType": "struct IFunding.VestInfo",
          "name": "vestInfo",
          "type": "tuple"
        }
      ],
      "stateMutability": "view",
      "type": "function"
    },
    {
      "inputs": [
        {
          "internalType": "contract DaoRegistry",
          "name": "dao",
          "type": "address"
        },
        {
          "internalType": "address",
          "name": "_addr",
          "type": "address"
        }
      ],
      "name": "isActiveGeneralPartner",
      "outputs": [
        {
          "internalType": "bool",
          "name": "",
          "type": "bool"
        }
      ],
      "stateMutability": "view",
      "type": "function"
    },
    {
      "inputs": [
        {
          "internalType": "contract DaoRegistry",
          "name": "dao",
          "type": "address"
        },
        {
          "internalType": "address",
          "name": "_addr",
          "type": "address"
        }
      ],
      "name": "isActiveMember",
      "outputs": [
        {
          "internalType": "bool",
          "name": "",
          "type": "bool"
        }
      ],
      "stateMutability": "view",
      "type": "function"
    },
    {
      "inputs": [
        {
          "internalType": "address",
          "name": "",
          "type": "address"
        }
      ],
      "name": "ongoingDistributions",
      "outputs": [
        {
          "internalType": "bytes32",
          "name": "",
          "type": "bytes32"
        }
      ],
      "stateMutability": "view",
      "type": "function"
    },
    {
      "inputs": [
        {
          "internalType": "contract DaoRegistry",
          "name": "dao",
          "type": "address"
        },
        {
          "internalType": "bytes32",
          "name": "proposalId",
          "type": "bytes32"
        }
      ],
      "name": "processProposal",
      "outputs": [
        {
          "internalType": "bool",
          "name": "",
          "type": "bool"
        }
      ],
      "stateMutability": "nonpayable",
      "type": "function"
    },
    {
      "inputs": [
        {
          "internalType": "address",
          "name": "",
          "type": "address"
        },
        {
          "internalType": "bytes32",
          "name": "",
          "type": "bytes32"
        },
        {
          "internalType": "address",
          "name": "",
          "type": "address"
        }
      ],
      "name": "projectTeamLockedTokens",
      "outputs": [
        {
          "internalType": "uint256",
          "name": "",
          "type": "uint256"
        }
      ],
      "stateMutability": "view",
      "type": "function"
    },
    {
      "inputs": [],
      "name": "proposalIds",
      "outputs": [
        {
          "internalType": "uint256",
          "name": "",
          "type": "uint256"
        }
      ],
      "stateMutability": "view",
      "type": "function"
    },
    {
      "inputs": [],
      "name": "proposalQueue",
      "outputs": [
        {
          "internalType": "int128",
          "name": "_begin",
          "type": "int128"
        },
        {
          "internalType": "int128",
          "name": "_end",
          "type": "int128"
        }
      ],
      "stateMutability": "view",
      "type": "function"
    },
    {
      "inputs": [
        {
          "internalType": "bytes32",
          "name": "",
          "type": "bytes32"
        }
      ],
      "name": "proposalVoteTypes",
      "outputs": [
        {
          "internalType": "enum DaoHelper.VoteType",
          "name": "",
          "type": "uint8"
        }
      ],
      "stateMutability": "view",
      "type": "function"
    },
    {
      "inputs": [
        {
          "internalType": "contract DaoRegistry",
          "name": "dao",
          "type": "address"
        },
        {
          "internalType": "bytes32",
          "name": "proposalId",
          "type": "bytes32"
        }
      ],
      "name": "startVotingProcess",
      "outputs": [
        {
          "internalType": "bool",
          "name": "",
          "type": "bool"
        }
      ],
      "stateMutability": "nonpayable",
      "type": "function"
    },
    {
      "inputs": [
        {
          "internalType": "contract DaoRegistry",
          "name": "dao",
          "type": "address"
        },
        {
          "internalType": "address[]",
          "name": "_addressArgs",
          "type": "address[]"
        },
        {
          "internalType": "uint256[]",
          "name": "_uint256ArgsProposal",
          "type": "uint256[]"
        }
      ],
      "name": "submitProposal",
      "outputs": [
        {
          "internalType": "bytes32",
          "name": "proposalId",
          "type": "bytes32"
        }
      ],
      "stateMutability": "nonpayable",
      "type": "function"
    },
    {
      "inputs": [
        {
          "internalType": "contract DaoRegistry",
          "name": "dao",
          "type": "address"
        },
        {
          "internalType": "bytes32",
          "name": "proposalId",
          "type": "bytes32"
        }
      ],
      "name": "unLockProjectTeamToken",
      "outputs": [],
      "stateMutability": "nonpayable",
      "type": "function"
    }
  ],
  "bytecode": "0x60806040526201870360065534801561001757600080fd5b50614e2f806100276000396000f3fe608060405234801561001057600080fd5b50600436106100ea5760003560e01c80639573167d1161008c578063d5bef02e11610066578063d5bef02e146102d7578063e256888f14610308578063f8d90d5d14610317578063fde92fcf1461032a57600080fd5b80639573167d1461027e578063a02f046b14610291578063a5254bc0146102c457600080fd5b80633d5af2ed116100c85780633d5af2ed146101755780634e83cbce1461017e5780638ecf772014610256578063944fe5211461026957600080fd5b80630fcb03d6146100ef5780632531ec70146101225780632b73de3514610152575b600080fd5b61010f6100fd366004614795565b60026020526000908152604090205481565b6040519081526020015b60405180910390f35b610145610130366004614885565b60036020526000908152604090205460ff1681565b6040516101199190614c68565b610165610160366004614955565b61033d565b6040519015158152602001610119565b61010f60065481565b61023e61018c3660046147d4565b600060208181529281526040808220845291815281902080546001820154600283015460038401546004850154600586015460068701546007880154600889015460098a01548b5160a081018d52600a8c01548152600b8c01549d81019d909d52600c8b01549b8d019b909b52600d8a015460608d0152600e9099015460808c01526001600160a01b039788169a96999598948816979384169693831695600160a01b90930460ff169491939092908c565b6040516101199c9b9a99989796959493929190614ac3565b61016561026436600461489d565b610e36565b61027c610277366004614967565b610ebc565b005b61016561028c366004614955565b611106565b6004546102aa90600f81810b91600160801b9004900b82565b60408051600f93840b81529190920b602082015201610119565b6101656102d236600461489d565b611a8a565b61010f6102e53660046147ff565b600160209081526000938452604080852082529284528284209052825290205481565b61010f670de0b6b3a764000081565b61027c610325366004614955565b611bc2565b61010f6103383660046148d5565b611fe5565b600082600061034b82612d87565b9050846103588133613013565b6000610377600454600f81810b810b600160801b909204810b900b0390565b116103855760009350610e23565b61038f6004613062565b85146104015760405162461bcd60e51b815260206004820152603660248201527f4469737472696275746546756e643a3a7374617274566f74696e6750726f63656044820152751cdcce8e925b9d985b1a5908141c9bdc1bdcd85b125960521b60648201526084015b60405180910390fd5b6040805160a0810182526000808252602080830182905282840182905260608301829052608083018290526001600160a01b038a168252600290529190912054808252156105785760036001600160a01b03881660009081526020818152604080832085518452909152902060050154600160a01b900460ff16600481111561049a57634e487b7160e01b600052602160045260246000fd5b14806104f4575060046001600160a01b03881660009081526020818152604080832085518452909152902060050154600160a01b900460ff1660048111156104f257634e487b7160e01b600052602160045260246000fd5b145b6105785760405162461bcd60e51b815260206004820152604960248201527f4469737472696275746546756e643a3a7374617274566f74696e6750726f636560448201527f73733a3a7468657265206973206f746865722070726f706f73616c206e6f7420606482015268199a5b985b1a5e995960ba1b608482015260a4016103f8565b604051632c9f4b5b60e11b8152600080516020614dba83398151915260048201526001600160a01b0388169063593e96b69060240160206040518083038186803b1580156105c557600080fd5b505afa1580156105d9573d6000803e3d6000fd5b505050506040513d601f19601f820116820180604052508101906105fd91906147b8565b6001600160a01b0390811660208301526040516317ba7d8560e01b81527ff26d4834b4a91110d15379eda333e30be707af3a839ee5dbd668b89e4c6c6f6f6004820152908816906317ba7d859060240160206040518083038186803b15801561066557600080fd5b505afa158015610679573d6000803e3d6000fd5b505050506040513d601f19601f8201168201806040525081019061069d91906147b8565b6001600160a01b0390811660408381019190915242606084015251634941d71d60e11b81527fb6be919e1c2ea8efe4d05cbbd5907744b6a7ce982f8d3df2274023e3ba0c152d600482015290881690639283ae3a9060240160206040518083038186803b15801561070d57600080fd5b505afa158015610721573d6000803e3d6000fd5b505050506040513d601f19601f820116820180604052508101906107459190614a40565b81606001516107549190614c82565b60808201526040808201519051634941d71d60e11b81527f02a3530cbb6e7c084516c86f68bd62c3e3fcd783c6c5d7e138616207f7a3225060048201526001600160a01b0391821691633a844ec0918a91821690639283ae3a9060240160206040518083038186803b1580156107c957600080fd5b505afa1580156107dd573d6000803e3d6000fd5b505050506040513d601f19601f820116820180604052508101906108019190614a40565b84608001516108109190614c82565b6040516001600160e01b031960e085901b1681526001600160a01b039092166004830152602482015260440160206040518083038186803b15801561085457600080fd5b505afa158015610868573d6000803e3d6000fd5b505050506040513d601f19601f8201168201806040525081019061088c9190614840565b156108ff5760405162461bcd60e51b815260206004820152603a60248201527f46756e64526169736550726f706f73616c3a3a7374617274566f74696e67507260448201527f6f636573733a3a63616e7420737461727420766f7465206e6f7700000000000060648201526084016103f8565b6001600160a01b0387166000908152602081815260408083208984529091528120906005820154600160a01b900460ff16600481111561094f57634e487b7160e01b600052602160045260246000fd5b1461095f57600095505050610e23565b61096960046130c0565b50604051634941d71d60e11b81527faa072a75f148988e1647e65b0d00c2928a6ed1bc51c4671e0ac15252c77dc49560048201526064906001600160a01b038a1690639283ae3a9060240160206040518083038186803b1580156109cc57600080fd5b505afa1580156109e0573d6000803e3d6000fd5b505050506040513d601f19601f82011682018060405250810190610a049190614a40565b8260020154610a139190614cae565b610a1d9190614c9a565b604051634941d71d60e11b8152600080516020614d9a83398151915260048201526064906001600160a01b038b1690639283ae3a9060240160206040518083038186803b158015610a6d57600080fd5b505afa158015610a81573d6000803e3d6000fd5b505050506040513d601f19601f82011682018060405250810190610aa59190614a40565b8360020154610ab49190614cae565b610abe9190614c9a565b8260020154610acd9190614c82565b610ad79190614c82565b82602001516001600160a01b03166318160ddd6040518163ffffffff1660e01b815260040160206040518083038186803b158015610b1457600080fd5b505afa158015610b28573d6000803e3d6000fd5b505050506040513d601f19601f82011682018060405250810190610b4c9190614a40565b1015610bb25760058101805460ff60a01b1916600160a21b1790556040517f4f538d963460a66246a71a536d7664d562f7033b50c58f302ec7a158d1713cf090610b9f9089906000908190600490614b66565b60405180910390a1600095505050610e23565b600481015481546001830154600092610bdc928c926001600160a01b03928316929091169061314c565b905080610c445760058201805460ff60a01b1916600160a21b1790556040517f4f538d963460a66246a71a536d7664d562f7033b50c58f302ec7a158d1713cf090610c30908a906000908190600490614b66565b60405180910390a160009650505050610e23565b6001808301546001600160a01b03808c166000818152602094855260408082208e835286528082206004808a015490951683529095528481209390935592516317ba7d8560e01b81529192916317ba7d8591610cc6917f0272405e7a7e2834b06b48bd0de471bbb4d8400020ec22f05b6fc30ffddb34a8910190815260200190565b60206040518083038186803b158015610cde57600080fd5b505afa158015610cf2573d6000803e3d6000fd5b505050506040513d601f19601f82011682018060405250810190610d1691906147b8565b606085015160078501819055608086015160088601556040805160208101825260008152905163026078cd60e41b81529293506001600160a01b038416926326078cd092610d6c928f928f929190600401614c31565b600060405180830381600087803b158015610d8657600080fd5b505af1158015610d9a573d6000803e3d6000fd5b5050506001600160a01b038b1660009081526002602052604090208a9055506005830180546001919060ff60a01b1916600160a01b830217905550606084015160808501516040517f4f538d963460a66246a71a536d7664d562f7033b50c58f302ec7a158d1713cf092610e12928d92600190614b66565b60405180910390a160019750505050505b50610e2e8282613561565b505092915050565b60405163288c314960e21b81526001600160a01b0382811660048301526000919084169063a230c5249060240160206040518083038186803b158015610e7b57600080fd5b505afa158015610e8f573d6000803e3d6000fd5b505050506040513d601f19601f82011682018060405250810190610eb39190614840565b90505b92915050565b6040516368c18beb60e01b815233600482015284906001600160a01b038216906368c18beb9060240160206040518083038186803b158015610efd57600080fd5b505afa158015610f11573d6000803e3d6000fd5b505050506040513d601f19601f82011682018060405250810190610f359190614840565b80610f445750610f448161356c565b610f7e5760405162461bcd60e51b815260206004820152600b60248201526a37b7363ca0b230b83a32b960a91b60448201526064016103f8565b604051630da0f6c760e41b81527fb6be919e1c2ea8efe4d05cbbd5907744b6a7ce982f8d3df2274023e3ba0c152d6004820152602481018590526001600160a01b0386169063da0f6c7090604401600060405180830381600087803b158015610fe657600080fd5b505af1158015610ffa573d6000803e3d6000fd5b5050604051630da0f6c760e41b81527f471fc557bdbc266c0fcad028b69dd70a6ec23494776d7203d0c2de61d62344056004820152602481018690526001600160a01b038816925063da0f6c709150604401600060405180830381600087803b15801561106657600080fd5b505af115801561107a573d6000803e3d6000fd5b5050604051630da0f6c760e41b81527f02a3530cbb6e7c084516c86f68bd62c3e3fcd783c6c5d7e138616207f7a322506004820152602481018590526001600160a01b038816925063da0f6c7091506044015b600060405180830381600087803b1580156110e757600080fd5b505af11580156110fb573d6000803e3d6000fd5b505050505050505050565b600082600061111482612d87565b905061115e60408051610100810182526000808252602082018190529181018290529060608201908152600060208201819052604082018190526060820181905260809091015290565b6001600160a01b038616600090815260026020526040902054808252156111d857805185146111d85760405162461bcd60e51b81526020600482015260326024820152600080516020614dda8339815191526044820152710e9a5b9d985b1a59081c1c9c1bdcd85b125960721b60648201526084016103f8565b6001600160a01b0386166000908152602081815260408083208884529091529020600881015442116112605760405162461bcd60e51b815260206004820152603a6024820152600080516020614dda83398151915260448201527f3a70726f706f73616c20696e20766f74696e6720706572696f6400000000000060648201526084016103f8565b60026005820154600160a01b900460ff16600481111561129057634e487b7160e01b600052602160045260246000fd5b14156113005760405162461bcd60e51b81526020600482015260456024820152600080516020614dda83398151915260448201527f3a70726f706f73616c20616c726561647920696e20657865637574652070726f606482015264677265737360d81b608482015260a4016103f8565b6040516330490e9160e01b8152600481018790526001600160a01b038816906330490e9190602401600060405180830381600087803b15801561134257600080fd5b505af1158015611356573d6000803e3d6000fd5b5050604051632c9f4b5b60e11b8152600080516020614dba83398151915260048201526001600160a01b038a16925063593e96b6915060240160206040518083038186803b1580156113a757600080fd5b505afa1580156113bb573d6000803e3d6000fd5b505050506040513d601f19601f820116820180604052508101906113df91906147b8565b6001600160a01b039081166040848101919091525163206f381f60e11b815260048101889052908816906340de703e9060240160206040518083038186803b15801561142a57600080fd5b505afa15801561143e573d6000803e3d6000fd5b505050506040513d601f19601f8201168201806040525081019061146291906147b8565b6001600160a01b0316602083018190526114c75760405162461bcd60e51b81526020600482015260326024820152600080516020614dda8339815191526044820152710e9859185c1d195c881b9bdd08199bdd5b9960721b60648201526084016103f8565b6020820151604051633e599bfb60e11b81526001600160a01b03898116600483015290911690637cb337f69060240160206040518083038186803b15801561150e57600080fd5b505afa158015611522573d6000803e3d6000fd5b505050506040513d601f19601f820116820180604052508101906115469190614a26565b6001600160801b031660c083015260208201516040516376225e7360e01b81526001600160a01b03898116600483015260248201899052909116906376225e739060440160606040518083038186803b1580156115a257600080fd5b505afa1580156115b6573d6000803e3d6000fd5b505050506040513d601f19601f820116820180604052508101906115da91906149df565b6001600160801b0380821660a0870152821660808601526060850183600581111561161557634e487b7160e01b600052602160045260246000fd5b600581111561163457634e487b7160e01b600052602160045260246000fd5b905250600291506116429050565b8260600151600581111561166657634e487b7160e01b600052602160045260246000fd5b14156118e45760058101805460ff60a01b1916600160a11b1790556001600160a01b03878116600090815260026020908152604091829020899055848201518251632a1ebd9b60e21b8152925193169263a87af66c926004808201939291829003018186803b1580156116d857600080fd5b505afa1580156116ec573d6000803e3d6000fd5b505050506040513d601f19601f8201168201806040525081019061171091906147b8565b6001600160a01b0390811660e0840152604051634941d71d60e11b8152600080516020614d9a8339815191526004820152606491891690639283ae3a9060240160206040518083038186803b15801561176857600080fd5b505afa15801561177c573d6000803e3d6000fd5b505050506040513d601f19601f820116820180604052508101906117a09190614a40565b82600201546117af9190614cae565b6117b99190614c9a565b81600201546117c89190614c82565b82604001516001600160a01b03166318160ddd6040518163ffffffff1660e01b815260040160206040518083038186803b15801561180557600080fd5b505afa158015611819573d6000803e3d6000fd5b505050506040513d601f19601f8201168201806040525081019061183d9190614a40565b1015611865576005810180546004919060ff60a01b1916600160a01b835b0217905550611999565b61186f8787613773565b61187987876138d7565b6118838787613b70565b61188d8787613d7c565b6118978787613ead565b6001600160a01b0380881660009081526001602090815260408083208a84528252808320600380870154909516845290915281205560058201805460ff60a01b1916600160a01b8361185b565b60038260600151600581111561190a57634e487b7160e01b600052602160045260246000fd5b1480611939575060018260600151600581111561193757634e487b7160e01b600052602160045260246000fd5b145b1561195a576005810180546004919060ff60a01b1916600160a01b8361185b565b60405162461bcd60e51b81526020600482015260146024820152731d9bdd1a5b99c81b9bdd08199a5b985b1a5e995960621b60448201526064016103f8565b4260098201556001600160a01b03871660009081526002602052604081205560608201517f36ce02c114f302284f28fe16675863700933291f7bd3381ab096ef96da5c66059087906005811115611a0057634e487b7160e01b600052602160045260246000fd5b60c0850151608086015160a08701516005870154600160a01b900460ff166004811115611a3d57634e487b7160e01b600052602160045260246000fd5b6040805196875260208701959095526001600160801b03938416868601529183166060860152909116608084015260a0830152519081900360c00190a1600194505050610e2e8282613561565b60405163fefbd87560e01b81527f67e84d3ef18b24e32f9a9b2e9bac9e7ea8cde2f146ce512d44b9d6718a1f3ca0600482015260009081906001600160a01b0385169063fefbd8759060240160206040518083038186803b158015611aee57600080fd5b505afa158015611b02573d6000803e3d6000fd5b505050506040513d601f19601f82011682018060405250810190611b2691906147b8565b90506001600160a01b03811615611bb8576040516319a73c8360e31b81526001600160a01b03848116600483015282169063cd39e4189060240160206040518083038186803b158015611b7857600080fd5b505afa158015611b8c573d6000803e3d6000fd5b505050506040513d601f19601f82011682018060405250810190611bb09190614840565b915050610eb6565b5060009392505050565b816000611bce82612d87565b6001600160a01b0385166000908152600160209081526040808320878452825280832033845290915290205490915080611c705760405162461bcd60e51b815260206004820152603960248201527f4469737472696275746546756e643a3a756e4c6f636b50726f6a65637454656160448201527f6d546f6b656e3a3a6e6f2066756e6420746f20756e6c6f636b0000000000000060648201526084016103f8565b6001600160a01b0385811660009081526020818152604080832088845290915290819020805491516370a0823160e01b815230600482015290929190911690839082906370a082319060240160206040518083038186803b158015611cd457600080fd5b505afa158015611ce8573d6000803e3d6000fd5b505050506040513d601f19601f82011682018060405250810190611d0c9190614a40565b1015611d805760405162461bcd60e51b815260206004820152603960248201527f4469737472696275746546756e643a3a756e4c6f636b50726f6a65637454656160448201527f6d546f6b656e3a3a496e73756666696369656e742046756e640000000000000060648201526084016103f8565b60405163206f381f60e11b8152600481018790526000906001600160a01b038916906340de703e9060240160206040518083038186803b158015611dc357600080fd5b505afa158015611dd7573d6000803e3d6000fd5b505050506040513d601f19601f82011682018060405250810190611dfb91906147b8565b6040516376225e7360e01b81526001600160a01b038a81166004830152602482018a90529192506000918316906376225e7390604401606060405180830381600087803b158015611e4b57600080fd5b505af1158015611e5f573d6000803e3d6000fd5b505050506040513d601f19601f82011682018060405250810190611e8391906149df565b50909150600490506005850154600160a01b900460ff166004811115611eb957634e487b7160e01b600052602160045260246000fd5b14611f245760405162461bcd60e51b815260206004820152603560248201527f4469737472696275746546756e643a3a756e4c6f636b50726f6a6563745465616044820152741b551bdad95b8e8e9b9bdd081cd85d1a5cd99a5959605a1b60648201526084016103f8565b6001600160a01b0389811660009081526001602090815260408083208c8452825280832033808552925280832092909255905163a9059cbb60e01b81526004810191909152602481018790529084169063a9059cbb90604401602060405180830381600087803b158015611f9757600080fd5b505af1158015611fab573d6000803e3d6000fd5b505050506040513d601f19601f82011682018060405250810190611fcf9190614840565b505050505050611fdf8282613561565b50505050565b600085611ff28133613013565b866000611ffe82612d87565b90506120a86040518061022001604052806000801916815260200160006001600160a01b0316815260200160006001600160a01b0316815260200160006001600160a01b03168152602001600080191681526020016000815260200160008152602001600081526020016000815260200160008152602001600081526020016000815260200160008152602001600081526020016000815260200160008152602001600081525090565b6040516317ba7d8560e01b81527ff26d4834b4a91110d15379eda333e30be707af3a839ee5dbd668b89e4c6c6f6f60048201526001600160a01b038b16906317ba7d859060240160206040518083038186803b15801561210757600080fd5b505afa15801561211b573d6000803e3d6000fd5b505050506040513d601f19601f8201168201806040525081019061213f91906147b8565b6001600160a01b03908116604083810182905251634b304e2160e11b8152918c166004830152906396609c4290602401602060405180830381600087803b15801561218957600080fd5b505af115801561219d573d6000803e3d6000fd5b505050506040513d601f19601f820116820180604052508101906121c19190614840565b50600181604001516001600160a01b0316633d7a54426040518163ffffffff1660e01b815260040160206040518083038186803b15801561220157600080fd5b505afa158015612215573d6000803e3d6000fd5b505050506040513d601f19601f8201168201806040525081019061223991906149c0565b600281111561225857634e487b7160e01b600052602160045260246000fd5b1480156122e2575060408082015190516320ec26d960e01b81526001600160a01b038c81166004830152909116906320ec26d99060240160206040518083038186803b1580156122a757600080fd5b505afa1580156122bb573d6000803e3d6000fd5b505050506040513d601f19601f820116820180604052508101906122df9190614a40565b42115b801561236b575060408082015190516314195fd760e11b81526001600160a01b038c8116600483015290911690632832bfae9060240160206040518083038186803b15801561233057600080fd5b505afa158015612344573d6000803e3d6000fd5b505050506040513d601f19601f820116820180604052508101906123689190614a40565b42105b6123eb5760405162461bcd60e51b815260206004820152604560248201527f46756e64696e673a3a7375626d697450726f706f73616c3a3a6f6e6c7920636160448201527f6e207375626d69742070726f706f73616c20696e20696e76657374696e672070606482015264195c9a5bd960da1b608482015260a4016103f8565b6003881480156123fb5750600786145b6124615760405162461bcd60e51b815260206004820152603160248201527f46756e64696e673a3a7375626d697450726f706f73616c3a3a696e76616c6964604482015270081c185c985b595d195c88185b5bdd5b9d607a1b60648201526084016103f8565b6040516317ba7d8560e01b81527f0272405e7a7e2834b06b48bd0de471bbb4d8400020ec22f05b6fc30ffddb34a860048201526001600160a01b038b16906317ba7d859060240160206040518083038186803b1580156124c057600080fd5b505afa1580156124d4573d6000803e3d6000fd5b505050506040513d601f19601f820116820180604052508101906124f891906147b8565b6001600160a01b031660208083018290526040805191820181526000825251630966917d60e41b815263966917d091612539918e9130913390600401614bf3565b602060405180830381600087803b15801561255357600080fd5b505af1158015612567573d6000803e3d6000fd5b505050506040513d601f19601f8201168201806040525081019061258b91906147b8565b6001600160a01b0316606082015286866000816125b857634e487b7160e01b600052603260045260246000fd5b60200291909101356101e083015250868660018181106125e857634e487b7160e01b600052603260045260246000fd5b6020029190910135610200830152508686600281811061261857634e487b7160e01b600052603260045260246000fd5b6020029190910135610140830152508686600381811061264857634e487b7160e01b600052603260045260246000fd5b6020029190910135610160830152508686600481811061267857634e487b7160e01b600052603260045260246000fd5b602002919091013561018083015250868660058181106126a857634e487b7160e01b600052603260045260246000fd5b60200291909101356101a083015250868660068181106126d857634e487b7160e01b600052603260045260246000fd5b60200291909101356101c0830152506101408101511580159061270057506000816101600151115b801561271157506000816101800151115b801561272257506000816101a00151115b6127ba5760405162461bcd60e51b815260206004820152605a60248201527f46756e64696e673a3a7375626d697450726f706f73616c3a3a76657374696e6760448201527f2073746172742074696d652c20636c696666206475726174696f6e2c2073746560648201527f70206475726174696f6e2c207374657073206d757374203e2030000000000000608482015260a4016103f8565b806102000151816101c0015111156127e55760405163349db54560e21b815260040160405180910390fd5b6000816101e001511180156127ff57506000816102000151115b6128885760405162461bcd60e51b815260206004820152604e60248201527f46756e64696e673a3a7375626d697450726f706f73616c3a3a696e76616c696460448201527f2074726164696e672d4f666620546f6b656e206f722074726164696e67206f6660648201526d19881d1bdad95b88105b5bdd5b9d60921b608482015260a4016103f8565b6000898982816128a857634e487b7160e01b600052603260045260246000fd5b90506020020160208101906128bd9190614795565b6001600160a01b0316141561292e5760405162461bcd60e51b815260206004820152603160248201527f46756e64696e673a3a7375626d697450726f706f73616c3a3a696e76616c6964604482015270207265636569766572206164647265737360781b60648201526084016103f8565b61296061293c600654614171565b60405160200161294c9190614a98565b60405160208183030381529060405261428b565b6080820181905260405163b73dc38960e01b815260048101919091526001600160a01b038b169063b73dc38990602401600060405180830381600087803b1580156129aa57600080fd5b505af11580156129be573d6000803e3d6000fd5b50505050600060405180608001604052808b8b60008181106129f057634e487b7160e01b600052603260045260246000fd5b9050602002016020810190612a059190614795565b6001600160a01b031681526020018b8b6001818110612a3457634e487b7160e01b600052603260045260246000fd5b9050602002016020810190612a499190614795565b6001600160a01b031681526020018b8b6002818110612a7857634e487b7160e01b600052603260045260246000fd5b9050602002016020810190612a8d9190614795565b6001600160a01b03168152336020909101526080830151909150612ab5908c90838b8b6142a7565b4260a08301526001600160a01b038b1660008181526020818152604080832060808701805185528184528285206007015460e08901528585528484528051855281845282852060080154610100890152858552848452805185529083529281902060090154610120870152915160608601519186015192516344b574dd60e11b815263896ae9ba93612b6493916004019283526001600160a01b03918216602084015216604082015260600190565b600060405180830381600087803b158015612b7e57600080fd5b505af1158015612b92573d6000803e3d6000fd5b50505050608082015160048054600160801b90819004600f90810b80820b820b60009081526005602052604090209490945582546001600160801b03908116600190950190910b16029190911790556001600160a01b038b16600090815260208181526040808320608086015184529091528120600501805460ff60a01b191690556006805460019290612c27908490614c82565b909155505060808201516020820151825160408401517f7752ada6037f9935b3742d5b9ff800a7e0c7d59b0e8bc254458478417d0a63bb939291908c8c6001818110612c8357634e487b7160e01b600052603260045260246000fd5b905060200201358d8d6000818110612cab57634e487b7160e01b600052603260045260246000fd5b905060200201358861014001518961016001518a61018001518b6101a001518c60a001518d60e001518e61010001518f6101200151604051612d679e9d9c9b9a999897969594939291909d8e526001600160a01b039c8d1660208f01529a8c1660408e015298909a1660608c015260808b019690965260a08a019490945260c089019290925260e08801526101008701526101208601526101408501526101608401929092526101808301919091526101a08201526101c00190565b60405180910390a15050612d7b8282613561565b50505095945050505050565b6040805160808101825260008082526020820181905291810182905260608101919091525a81600001818152505043826001600160a01b031663b21634826040518163ffffffff1660e01b815260040160206040518083038186803b158015612def57600080fd5b505afa158015612e03573d6000803e3d6000fd5b505050506040513d601f19601f82011682018060405250810190612e279190614a40565b1415612e685760405162461bcd60e51b815260206004820152601060248201526f1c99595b9d1c985b98de4819dd585c9960821b60448201526064016103f8565b816001600160a01b03166310fdb0a26040518163ffffffff1660e01b8152600401600060405180830381600087803b158015612ea357600080fd5b505af1158015612eb7573d6000803e3d6000fd5b50506040516372c6838f60e01b81527f1f2fd42ad6a6cacd573c4b212beb7a4e2499ad45d742a65337097f130e71daff6004820152600092506001600160a01b03851691506372c6838f9060240160206040518083038186803b158015612f1d57600080fd5b505afa158015612f31573d6000803e3d6000fd5b505050506040513d601f19601f82011682018060405250810190612f5591906147b8565b90506001600160a01b038116612f71576000602083015261300d565b6001600160a01b038181166060840181905283516040516343a8a3f160e01b8152928616600484015260248301526000918291906343a8a3f190604401604080518083038186803b158015612fc557600080fd5b505afa158015612fd9573d6000803e3d6000fd5b505050506040513d601f19601f82011682018060405250810190612ffd919061485a565b9015156020860152604085015250505b50919050565b61301d8282611a8a565b61305e5760405162461bcd60e51b815260206004820152601260248201527137b7363ca3b2b732b930b62830b93a3732b960711b60448201526064016103f8565b5050565b60006130818254600f81810b810b600160801b909204810b900b131590565b1561309f57604051631ed9509560e11b815260040160405180910390fd5b508054600f90810b810b900b60009081526001909101602052604090205490565b60006130df8254600f81810b810b600160801b909204810b900b131590565b156130fd57604051631ed9509560e11b815260040160405180910390fd5b508054600f90810b80820b820b600090815260018085016020526040822080549290558454920190920b6001600160801b03166fffffffffffffffffffffffffffffffff199091161790915590565b6040516370a0823160e01b81526001600160a01b03848116600483015260009184918491908316906370a082319060240160206040518083038186803b15801561319557600080fd5b505afa1580156131a9573d6000803e3d6000fd5b505050506040513d601f19601f820116820180604052508101906131cd9190614a40565b10806132585750604051636eb1769f60e11b81526001600160a01b03868116600483015230602483015284919083169063dd62ed3e9060440160206040518083038186803b15801561321e57600080fd5b505afa158015613232573d6000803e3d6000fd5b505050506040513d601f19601f820116820180604052508101906132569190614a40565b105b15613267576000915050613559565b6000816001600160a01b031663dd62ed3e30896001600160a01b03166317ba7d857f71c8887ab5df33af0f26db43a2e569d7268b592b16c505d22229eabd80eb8f366040518263ffffffff1660e01b81526004016132c791815260200190565b60206040518083038186803b1580156132df57600080fd5b505afa1580156132f3573d6000803e3d6000fd5b505050506040513d601f19601f8201168201806040525081019061331791906147b8565b6040516001600160e01b031960e085901b1681526001600160a01b0392831660048201529116602482015260440160206040518083038186803b15801561335d57600080fd5b505afa158015613371573d6000803e3d6000fd5b505050506040513d601f19601f820116820180604052508101906133959190614a40565b905060006133a38583614c82565b6040516317ba7d8560e01b81527f71c8887ab5df33af0f26db43a2e569d7268b592b16c505d22229eabd80eb8f3660048201529091506001600160a01b038085169163095ea7b3918b16906317ba7d859060240160206040518083038186803b15801561340f57600080fd5b505afa158015613423573d6000803e3d6000fd5b505050506040513d601f19601f8201168201806040525081019061344791906147b8565b6040516001600160e01b031960e084901b1681526001600160a01b03909116600482015260248101849052604401602060405180830381600087803b15801561348f57600080fd5b505af11580156134a3573d6000803e3d6000fd5b505050506040513d601f19601f820116820180604052508101906134c79190614840565b506040516323b872dd60e01b81526001600160a01b038881166004830152306024830152604482018790528416906323b872dd90606401602060405180830381600087803b15801561351857600080fd5b505af115801561352c573d6000803e3d6000fd5b505050506040513d601f19601f820116820180604052508101906135509190614840565b50600193505050505b949350505050565b61305e828233614629565b600080826001600160a01b031663c19d93fb6040518163ffffffff1660e01b815260040160206040518083038186803b1580156135a857600080fd5b505afa1580156135bc573d6000803e3d6000fd5b505050506040513d601f19601f820116820180604052508101906135e091906149a1565b60018111156135ff57634e487b7160e01b600052602160045260246000fd5b148015610eb65750816001600160a01b031663c67143666040518163ffffffff1660e01b815260040160206040518083038186803b15801561364057600080fd5b505afa158015613654573d6000803e3d6000fd5b505050506040513d601f19601f820116820180604052508101906136789190614a40565b15806136f6575060405163288c314960e21b81523360048201526001600160a01b0383169063a230c5249060240160206040518083038186803b1580156136be57600080fd5b505afa1580156136d2573d6000803e3d6000fd5b505050506040513d601f19601f820116820180604052508101906136f69190614840565b80610eb657506040516368c18beb60e01b81523360048201526001600160a01b038316906368c18beb9060240160206040518083038186803b15801561373b57600080fd5b505afa15801561374f573d6000803e3d6000fd5b505050506040513d601f19601f82011682018060405250810190610eb69190614840565b604051632c9f4b5b60e11b8152600080516020614dba83398151915260048201526000906001600160a01b0384169063593e96b69060240160206040518083038186803b1580156137c357600080fd5b505afa1580156137d7573d6000803e3d6000fd5b505050506040513d601f19601f820116820180604052508101906137fb91906147b8565b90506000816001600160a01b031663a87af66c6040518163ffffffff1660e01b815260040160206040518083038186803b15801561383857600080fd5b505afa15801561384c573d6000803e3d6000fd5b505050506040513d601f19601f8201168201806040525081019061387091906147b8565b6001600160a01b03858116600090815260208181526040808320888452909152908190206003810154600282015492516370bb59af60e11b81529084166004820152848416602482015260448101929092529293509084169063e176b35e906064016110cd565b604051632c9f4b5b60e11b8152600080516020614dba83398151915260048201526000906001600160a01b0384169063593e96b69060240160206040518083038186803b15801561392757600080fd5b505afa15801561393b573d6000803e3d6000fd5b505050506040513d601f19601f8201168201806040525081019061395f91906147b8565b90506000816001600160a01b031663a87af66c6040518163ffffffff1660e01b815260040160206040518083038186803b15801561399c57600080fd5b505afa1580156139b0573d6000803e3d6000fd5b505050506040513d601f19601f820116820180604052508101906139d491906147b8565b6001600160a01b0385811660008181526020818152604080832089845290915290819020905163fd310d2960e01b81527f5460409b9aa4688f80c10b29c3d7ad16025f050f472a6882a45fa7bb9bd12fb16004820152939450929185169163e176b35e919063fd310d299060240160206040518083038186803b158015613a5a57600080fd5b505afa158015613a6e573d6000803e3d6000fd5b505050506040513d601f19601f82011682018060405250810190613a9291906147b8565b604051634941d71d60e11b8152600080516020614d9a833981519152600482015285906064906001600160a01b038b1690639283ae3a906024015b60206040518083038186803b158015613ae557600080fd5b505afa158015613af9573d6000803e3d6000fd5b505050506040513d601f19601f82011682018060405250810190613b1d9190614a40565b8660020154613b2c9190614cae565b613b369190614c9a565b6040516001600160e01b031960e086901b1681526001600160a01b03938416600482015292909116602483015260448201526064016110cd565b604051632c9f4b5b60e11b8152600080516020614dba83398151915260048201526000906001600160a01b0384169063593e96b69060240160206040518083038186803b158015613bc057600080fd5b505afa158015613bd4573d6000803e3d6000fd5b505050506040513d601f19601f82011682018060405250810190613bf891906147b8565b90506000816001600160a01b031663a87af66c6040518163ffffffff1660e01b815260040160206040518083038186803b158015613c3557600080fd5b505afa158015613c49573d6000803e3d6000fd5b505050506040513d601f19601f82011682018060405250810190613c6d91906147b8565b6001600160a01b0385811660008181526020818152604080832089845290915290819020905163fd310d2960e01b81527fbd9030ecd29faab6f374cbd88517a06a1d8052793336c1cd8bf17421220730966004820152939450929185169163e176b35e919063fd310d299060240160206040518083038186803b158015613cf357600080fd5b505afa158015613d07573d6000803e3d6000fd5b505050506040513d601f19601f82011682018060405250810190613d2b91906147b8565b604051634941d71d60e11b81527faa072a75f148988e1647e65b0d00c2928a6ed1bc51c4671e0ac15252c77dc495600482015285906064906001600160a01b038b1690639283ae3a90602401613acd565b6040516317ba7d8560e01b81527f71c8887ab5df33af0f26db43a2e569d7268b592b16c505d22229eabd80eb8f3660048201526000906001600160a01b038416906317ba7d859060240160206040518083038186803b158015613dde57600080fd5b505afa158015613df2573d6000803e3d6000fd5b505050506040513d601f19601f82011682018060405250810190613e1691906147b8565b6001600160a01b03808516600090815260208181526040808320878452825291829020825160a08101845260018201548152600a82015492810192909252600b81015482840152600c8101546060830152600d8101546080830152805460058201549351632eae6d9960e11b81529596509094919380871693635d5cdb32936110cd938b939081169216908a908890600401614b91565b604051632c9f4b5b60e11b8152600080516020614dba83398151915260048201526000906001600160a01b0384169063593e96b69060240160206040518083038186803b158015613efd57600080fd5b505afa158015613f11573d6000803e3d6000fd5b505050506040513d601f19601f82011682018060405250810190613f3591906147b8565b90506000816001600160a01b031663a87af66c6040518163ffffffff1660e01b815260040160206040518083038186803b158015613f7257600080fd5b505afa158015613f86573d6000803e3d6000fd5b505050506040513d601f19601f82011682018060405250810190613faa91906147b8565b6001600160a01b03858116600081815260208181526040808320898452909152908190209051634941d71d60e11b81527faa072a75f148988e1647e65b0d00c2928a6ed1bc51c4671e0ac15252c77dc4956004820152939450929185169163c3c7645c91859160649190639283ae3a9060240160206040518083038186803b15801561403557600080fd5b505afa158015614049573d6000803e3d6000fd5b505050506040513d601f19601f8201168201806040525081019061406d9190614a40565b856002015461407c9190614cae565b6140869190614c9a565b604051634941d71d60e11b8152600080516020614d9a83398151915260048201526064906001600160a01b038b1690639283ae3a9060240160206040518083038186803b1580156140d657600080fd5b505afa1580156140ea573d6000803e3d6000fd5b505050506040513d601f19601f8201168201806040525081019061410e9190614a40565b866002015461411d9190614cae565b6141279190614c9a565b85600201546141369190614c82565b6141409190614c82565b6040516001600160e01b031960e085901b1681526001600160a01b03909216600483015260248201526044016110cd565b6060816141955750506040805180820190915260018152600360fc1b602082015290565b8160005b81156141bf57806141a981614d10565b91506141b89050600a83614c9a565b9150614199565b60008167ffffffffffffffff8111156141e857634e487b7160e01b600052604160045260246000fd5b6040519080825280601f01601f191660200182016040528015614212576020820181803683370190505b5090505b841561355957614227600183614ccd565b9150614234600a86614d2b565b61423f906030614c82565b60f81b81838151811061426257634e487b7160e01b600052603260045260246000fd5b60200101906001600160f81b031916908160001a905350614284600a86614c9a565b9450614216565b600081516000141561429f57506000919050565b506020015190565b6040805161018081019091526020808501516001600160a01b031682528101838360018181106142e757634e487b7160e01b600052603260045260246000fd5b9050602002013581526020018383600081811061431457634e487b7160e01b600052603260045260246000fd5b9050602002013581526020018460006004811061434157634e487b7160e01b600052603260045260246000fd5b60200201516001600160a01b031681526020018460026004811061437557634e487b7160e01b600052603260045260246000fd5b60200201516001600160a01b03168152602001846003600481106143a957634e487b7160e01b600052603260045260246000fd5b60200201516001600160a01b03168152602001600060048111156143dd57634e487b7160e01b600052602160045260246000fd5b81526020014281526020016000815260200160008152602001600081526020016040518060a001604052808585600281811061442957634e487b7160e01b600052603260045260246000fd5b9050602002013581526020018585600381811061445657634e487b7160e01b600052603260045260246000fd5b9050602002013581526020018585600481811061448357634e487b7160e01b600052603260045260246000fd5b905060200201358152602001858560058181106144b057634e487b7160e01b600052603260045260246000fd5b905060200201358152602001858560068181106144dd57634e487b7160e01b600052603260045260246000fd5b60209081029290920135909252919092526001600160a01b03808916600090815280835260408082208a8352845290819020855181549084166001600160a01b031991821617825593860151600182015590850151600282015560608501516003820180549184169185169190911790556080850151600480830180549285169286169290921790915560a0860151600583018054919094169481168517845560c087015192955091936001600160a81b031990921690911790600160a01b9084908111156145bc57634e487b7160e01b600052602160045260246000fd5b021790555060e08201516006820155610100820151600782015561012082015160088201556101408201516009820155610160909101518051600a8301556020810151600b8301556040810151600c8301556060810151600d83015560800151600e909101555050505050565b8160200151156146c75781606001516001600160a01b0316635e5eb01384835a86516146559190614ccd565b60408088015190516001600160e01b031960e087901b1681526001600160a01b03948516600482015293909216602484015260448301526064820152608401600060405180830381600087803b1580156146ae57600080fd5b505af11580156146c2573d6000803e3d6000fd5b505050505b826001600160a01b031663d4f7af436040518163ffffffff1660e01b8152600401600060405180830381600087803b15801561470257600080fd5b505af1158015614716573d6000803e3d6000fd5b50505050505050565b60008083601f840112614730578182fd5b50813567ffffffffffffffff811115614747578182fd5b6020830191508360208260051b850101111561476257600080fd5b9250929050565b8051801515811461477957600080fd5b919050565b80516001600160801b038116811461477957600080fd5b6000602082840312156147a6578081fd5b81356147b181614d81565b9392505050565b6000602082840312156147c9578081fd5b81516147b181614d81565b600080604083850312156147e6578081fd5b82356147f181614d81565b946020939093013593505050565b600080600060608486031215614813578081fd5b833561481e81614d81565b925060208401359150604084013561483581614d81565b809150509250925092565b600060208284031215614851578081fd5b610eb382614769565b6000806040838503121561486c578182fd5b61487583614769565b9150602083015190509250929050565b600060208284031215614896578081fd5b5035919050565b600080604083850312156148af578182fd5b82356148ba81614d81565b915060208301356148ca81614d81565b809150509250929050565b6000806000806000606086880312156148ec578081fd5b85356148f781614d81565b9450602086013567ffffffffffffffff80821115614913578283fd5b61491f89838a0161471f565b90965094506040880135915080821115614937578283fd5b506149448882890161471f565b969995985093965092949392505050565b600080604083850312156147e6578182fd5b6000806000806080858703121561497c578384fd5b843561498781614d81565b966020860135965060408601359560600135945092505050565b6000602082840312156149b2578081fd5b8151600281106147b1578182fd5b6000602082840312156149d1578081fd5b8151600381106147b1578182fd5b6000806000606084860312156149f3578081fd5b835160068110614a01578182fd5b9250614a0f6020850161477e565b9150614a1d6040850161477e565b90509250925092565b600060208284031215614a37578081fd5b610eb38261477e565b600060208284031215614a51578081fd5b5051919050565b60008151808452614a70816020860160208601614ce4565b601f01601f19169290920160200192915050565b60058110614a9457614a94614d6b565b9052565b6205446560ec1b815260008251614ab6816003850160208701614ce4565b9190910160030192915050565b6001600160a01b038d81168252602082018d9052604082018c90528a811660608301528981166080830152881660a08201526102008101614b0760c0830189614a84565b60e08201969096526101008101949094526101208401929092526101408301528051610160830152602081015161018083015260408101516101a083015260608101516101c0830152608001516101e090910152979650505050505050565b848152602081018490526040810183905260808101614b886060830184614a84565b95945050505050565b6001600160a01b03868116825285811660208084019190915290851660408301526060820184905261012082019060808301908460005b6005811015614be557815184529282019290820190600101614bc8565b505050509695505050505050565b600060018060a01b038087168352808616602084015260806040840152614c1d6080840186614a58565b915080841660608401525095945050505050565b60018060a01b0385168152836020820152826040820152608060608201526000614c5e6080830184614a58565b9695505050505050565b6020810160048310614c7c57614c7c614d6b565b91905290565b60008219821115614c9557614c95614d3f565b500190565b600082614ca957614ca9614d55565b500490565b6000816000190483118215151615614cc857614cc8614d3f565b500290565b600082821015614cdf57614cdf614d3f565b500390565b60005b83811015614cff578181015183820152602001614ce7565b83811115611fdf5750506000910152565b6000600019821415614d2457614d24614d3f565b5060010190565b600082614d3a57614d3a614d55565b500690565b634e487b7160e01b600052601160045260246000fd5b634e487b7160e01b600052601260045260246000fd5b634e487b7160e01b600052602160045260246000fd5b6001600160a01b0381168114614d9657600080fd5b5056fe11618fa890234170104debf73b2563b667bd200bac1d7d8dd024e2f3fadaefd2eadd166fac11c69a9d01b14cdd03f0902ebe2a3d90e6e17ced26382b23bfe1c44469737472696275746546756e643a3a70726f6365737350726f706f73616c3aa2646970667358221220f6c98cf6863ba723ea45b98f72e643ae2f6039937242b5c77192f6e68de1a4d964736f6c63430008040033",
  "linkReferences": {},
  "deployedLinkReferences": {}
}