{
  "_format": "hh-sol-artifact-1",
  "contractName": "FlexFundingAdapterContract",
  "sourceName": "contracts/flex/adatpers/FlexFunding.sol",
  "abi": [
    {
      "inputs": [],
      "name": "FundRaiseEndTimeNotUP",
      "type": "error"
    },
    {
      "anonymous": false,
      "inputs": [
        {
          "indexed": false,
          "internalType": "bytes32",
          "name": "proposalId",
          "type": "bytes32"
        },
        {
          "indexed": false,
          "internalType": "address",
          "name": "proposer",
          "type": "address"
        }
      ],
      "name": "ProposalCreated",
      "type": "event"
    },
    {
      "anonymous": false,
      "inputs": [
        {
          "indexed": false,
          "internalType": "bytes32",
          "name": "proposalId",
          "type": "bytes32"
        }
      ],
      "name": "ProposalExecuted",
      "type": "event"
    },
    {
      "inputs": [
        {
          "internalType": "address",
          "name": "",
          "type": "address"
        },
        {
          "internalType": "bytes32",
          "name": "",
          "type": "bytes32"
        }
      ],
      "name": "Proposals",
      "outputs": [
        {
          "internalType": "address",
          "name": "proposer",
          "type": "address"
        },
        {
          "components": [
            {
              "internalType": "address",
              "name": "tokenAddress",
              "type": "address"
            },
            {
              "internalType": "uint256",
              "name": "minFundingAmount",
              "type": "uint256"
            },
            {
              "internalType": "uint256",
              "name": "maxFundingAmount",
              "type": "uint256"
            },
            {
              "internalType": "bool",
              "name": "escrow",
              "type": "bool"
            },
            {
              "internalType": "address",
              "name": "returnTokenAddr",
              "type": "address"
            },
            {
              "internalType": "uint256",
              "name": "returnTokenAmount",
              "type": "uint256"
            },
            {
              "internalType": "uint256",
              "name": "minReturnAmount",
              "type": "uint256"
            },
            {
              "internalType": "uint256",
              "name": "maxReturnAmount",
              "type": "uint256"
            },
            {
              "internalType": "address",
              "name": "approverAddr",
              "type": "address"
            },
            {
              "internalType": "address",
              "name": "recipientAddr",
              "type": "address"
            }
          ],
          "internalType": "struct IFlexFunding.FundingInfo",
          "name": "fundingInfo",
          "type": "tuple"
        },
        {
          "components": [
            {
              "internalType": "uint256",
              "name": "vestingStartTime",
              "type": "uint256"
            },
            {
              "internalType": "uint256",
              "name": "vestingCliffDuration",
              "type": "uint256"
            },
            {
              "internalType": "uint256",
              "name": "vestingStepDuration",
              "type": "uint256"
            },
            {
              "internalType": "uint256",
              "name": "vestingSteps",
              "type": "uint256"
            },
            {
              "internalType": "uint256",
              "name": "vestingCliffLockAmount",
              "type": "uint256"
            }
          ],
          "internalType": "struct IFlexFunding.VestInfo",
          "name": "vestInfo",
          "type": "tuple"
        },
        {
          "components": [
            {
              "internalType": "enum IFlexFunding.FundRaiseType",
              "name": "fundRaiseType",
              "type": "uint8"
            },
            {
              "internalType": "uint256",
              "name": "fundRaiseStartTime",
              "type": "uint256"
            },
            {
              "internalType": "uint256",
              "name": "fundRaiseEndTime",
              "type": "uint256"
            },
            {
              "internalType": "uint256",
              "name": "minDepositAmount",
              "type": "uint256"
            },
            {
              "internalType": "uint256",
              "name": "maxDepositAmount",
              "type": "uint256"
            },
            {
              "internalType": "bool",
              "name": "backerIdentification",
              "type": "bool"
            },
            {
              "components": [
                {
                  "internalType": "enum IFlexFunding.BackerIdentificationType",
                  "name": "bType",
                  "type": "uint8"
                },
                {
                  "internalType": "uint32",
                  "name": "bChainId",
                  "type": "uint32"
                },
                {
                  "internalType": "address",
                  "name": "bTokanAddr",
                  "type": "address"
                },
                {
                  "internalType": "uint256",
                  "name": "bTokenId",
                  "type": "uint256"
                },
                {
                  "internalType": "uint256",
                  "name": "bMinHoldingAmount",
                  "type": "uint256"
                }
              ],
              "internalType": "struct IFlexFunding.BackerIdentificationInfo",
              "name": "bakckerIdentificationInfo",
              "type": "tuple"
            },
            {
              "internalType": "bool",
              "name": "priorityDeposit",
              "type": "bool"
            },
            {
              "components": [
                {
                  "internalType": "uint256",
                  "name": "pPeriod",
                  "type": "uint256"
                },
                {
                  "internalType": "uint256",
                  "name": "pPeriods",
                  "type": "uint256"
                },
                {
                  "internalType": "enum IFlexFunding.PriorityDepositType",
                  "name": "pType",
                  "type": "uint8"
                },
                {
                  "internalType": "uint256",
                  "name": "pChainId",
                  "type": "uint256"
                },
                {
                  "internalType": "address",
                  "name": "pTokenAddr",
                  "type": "address"
                },
                {
                  "internalType": "uint256",
                  "name": "pTokenId",
                  "type": "uint256"
                },
                {
                  "internalType": "uint256",
                  "name": "pMinHolding",
                  "type": "uint256"
                }
              ],
              "internalType": "struct IFlexFunding.PriorityDepositInfo",
              "name": "priorityDepositInfo",
              "type": "tuple"
            }
          ],
          "internalType": "struct IFlexFunding.FundRaiseInfo",
          "name": "fundRaiseInfo",
          "type": "tuple"
        },
        {
          "components": [
            {
              "internalType": "uint256",
              "name": "tokenRewardAmount",
              "type": "uint256"
            },
            {
              "internalType": "uint256",
              "name": "cashRewardAmount",
              "type": "uint256"
            }
          ],
          "internalType": "struct IFlexFunding.ProposerRewardInfo",
          "name": "proposerRewardInfo",
          "type": "tuple"
        },
        {
          "internalType": "uint256",
          "name": "startVoteTime",
          "type": "uint256"
        },
        {
          "internalType": "uint256",
          "name": "stopVoteTime",
          "type": "uint256"
        },
        {
          "internalType": "enum IFlexFunding.ProposalStatus",
          "name": "state",
          "type": "uint8"
        }
      ],
      "stateMutability": "view",
      "type": "function"
    },
    {
      "inputs": [
        {
          "internalType": "contract DaoRegistry",
          "name": "dao",
          "type": "address"
        },
        {
          "internalType": "enum IFlexFunding.FundingType",
          "name": "flexFundingType",
          "type": "uint8"
        }
      ],
      "name": "configureDao",
      "outputs": [],
      "stateMutability": "nonpayable",
      "type": "function"
    },
    {
      "inputs": [],
      "name": "fundingType",
      "outputs": [
        {
          "internalType": "enum IFlexFunding.FundingType",
          "name": "",
          "type": "uint8"
        }
      ],
      "stateMutability": "view",
      "type": "function"
    },
    {
      "inputs": [
        {
          "internalType": "contract DaoRegistry",
          "name": "dao",
          "type": "address"
        },
        {
          "internalType": "bytes32",
          "name": "proposalId",
          "type": "bytes32"
        }
      ],
      "name": "getDepositAmountLimit",
      "outputs": [
        {
          "internalType": "uint256",
          "name": "minDepositAmount",
          "type": "uint256"
        },
        {
          "internalType": "uint256",
          "name": "maxDepositAmount",
          "type": "uint256"
        }
      ],
      "stateMutability": "view",
      "type": "function"
    },
    {
      "inputs": [
        {
          "internalType": "contract DaoRegistry",
          "name": "dao",
          "type": "address"
        },
        {
          "internalType": "bytes32",
          "name": "proposalId",
          "type": "bytes32"
        }
      ],
      "name": "getFundRaiseTimes",
      "outputs": [
        {
          "internalType": "uint256",
          "name": "fundRaiseStartTime",
          "type": "uint256"
        },
        {
          "internalType": "uint256",
          "name": "fundRaiseEndTime",
          "type": "uint256"
        }
      ],
      "stateMutability": "view",
      "type": "function"
    },
    {
      "inputs": [
        {
          "internalType": "contract DaoRegistry",
          "name": "dao",
          "type": "address"
        },
        {
          "internalType": "bytes32",
          "name": "proposalId",
          "type": "bytes32"
        }
      ],
      "name": "getFundRaiseType",
      "outputs": [
        {
          "internalType": "enum IFlexFunding.FundRaiseType",
          "name": "",
          "type": "uint8"
        }
      ],
      "stateMutability": "view",
      "type": "function"
    },
    {
      "inputs": [
        {
          "internalType": "contract DaoRegistry",
          "name": "dao",
          "type": "address"
        },
        {
          "internalType": "bytes32",
          "name": "proposalId",
          "type": "bytes32"
        }
      ],
      "name": "getMaxFundingAmount",
      "outputs": [
        {
          "internalType": "uint256",
          "name": "",
          "type": "uint256"
        }
      ],
      "stateMutability": "view",
      "type": "function"
    },
    {
      "inputs": [
        {
          "internalType": "contract DaoRegistry",
          "name": "dao",
          "type": "address"
        },
        {
          "internalType": "bytes32",
          "name": "proposalId",
          "type": "bytes32"
        }
      ],
      "name": "getMinFundingAmount",
      "outputs": [
        {
          "internalType": "uint256",
          "name": "",
          "type": "uint256"
        }
      ],
      "stateMutability": "view",
      "type": "function"
    },
    {
      "inputs": [
        {
          "internalType": "contract DaoRegistry",
          "name": "dao",
          "type": "address"
        },
        {
          "internalType": "bytes32",
          "name": "proposalId",
          "type": "bytes32"
        }
      ],
      "name": "getProposalState",
      "outputs": [
        {
          "internalType": "enum IFlexFunding.ProposalStatus",
          "name": "",
          "type": "uint8"
        }
      ],
      "stateMutability": "view",
      "type": "function"
    },
    {
      "inputs": [
        {
          "internalType": "contract DaoRegistry",
          "name": "dao",
          "type": "address"
        },
        {
          "internalType": "bytes32",
          "name": "proposalId",
          "type": "bytes32"
        }
      ],
      "name": "getTokenByProposalId",
      "outputs": [
        {
          "internalType": "address",
          "name": "",
          "type": "address"
        }
      ],
      "stateMutability": "view",
      "type": "function"
    },
    {
      "inputs": [
        {
          "internalType": "contract DaoRegistry",
          "name": "dao",
          "type": "address"
        },
        {
          "internalType": "address",
          "name": "_addr",
          "type": "address"
        }
      ],
      "name": "isActiveGeneralPartner",
      "outputs": [
        {
          "internalType": "bool",
          "name": "",
          "type": "bool"
        }
      ],
      "stateMutability": "view",
      "type": "function"
    },
    {
      "inputs": [
        {
          "internalType": "contract DaoRegistry",
          "name": "dao",
          "type": "address"
        },
        {
          "internalType": "address",
          "name": "_addr",
          "type": "address"
        }
      ],
      "name": "isActiveMember",
      "outputs": [
        {
          "internalType": "bool",
          "name": "",
          "type": "bool"
        }
      ],
      "stateMutability": "view",
      "type": "function"
    },
    {
      "inputs": [
        {
          "internalType": "contract DaoRegistry",
          "name": "dao",
          "type": "address"
        },
        {
          "internalType": "bytes32",
          "name": "proposalId",
          "type": "bytes32"
        }
      ],
      "name": "processProposal",
      "outputs": [
        {
          "internalType": "bool",
          "name": "",
          "type": "bool"
        }
      ],
      "stateMutability": "nonpayable",
      "type": "function"
    },
    {
      "inputs": [],
      "name": "proposalIds",
      "outputs": [
        {
          "internalType": "uint256",
          "name": "",
          "type": "uint256"
        }
      ],
      "stateMutability": "view",
      "type": "function"
    },
    {
      "inputs": [
        {
          "internalType": "contract DaoRegistry",
          "name": "dao",
          "type": "address"
        },
        {
          "components": [
            {
              "components": [
                {
                  "internalType": "address",
                  "name": "tokenAddress",
                  "type": "address"
                },
                {
                  "internalType": "uint256",
                  "name": "minFundingAmount",
                  "type": "uint256"
                },
                {
                  "internalType": "uint256",
                  "name": "maxFundingAmount",
                  "type": "uint256"
                },
                {
                  "internalType": "bool",
                  "name": "escrow",
                  "type": "bool"
                },
                {
                  "internalType": "address",
                  "name": "returnTokenAddr",
                  "type": "address"
                },
                {
                  "internalType": "uint256",
                  "name": "returnTokenAmount",
                  "type": "uint256"
                },
                {
                  "internalType": "uint256",
                  "name": "minReturnAmount",
                  "type": "uint256"
                },
                {
                  "internalType": "uint256",
                  "name": "maxReturnAmount",
                  "type": "uint256"
                },
                {
                  "internalType": "address",
                  "name": "approverAddr",
                  "type": "address"
                },
                {
                  "internalType": "address",
                  "name": "recipientAddr",
                  "type": "address"
                }
              ],
              "internalType": "struct IFlexFunding.FundingInfo",
              "name": "fundingInfo",
              "type": "tuple"
            },
            {
              "components": [
                {
                  "internalType": "uint256",
                  "name": "vestingStartTime",
                  "type": "uint256"
                },
                {
                  "internalType": "uint256",
                  "name": "vestingCliffDuration",
                  "type": "uint256"
                },
                {
                  "internalType": "uint256",
                  "name": "vestingStepDuration",
                  "type": "uint256"
                },
                {
                  "internalType": "uint256",
                  "name": "vestingSteps",
                  "type": "uint256"
                },
                {
                  "internalType": "uint256",
                  "name": "vestingCliffLockAmount",
                  "type": "uint256"
                }
              ],
              "internalType": "struct IFlexFunding.VestInfo",
              "name": "vestInfo",
              "type": "tuple"
            },
            {
              "components": [
                {
                  "internalType": "enum IFlexFunding.FundRaiseType",
                  "name": "fundRaiseType",
                  "type": "uint8"
                },
                {
                  "internalType": "uint256",
                  "name": "fundRaiseStartTime",
                  "type": "uint256"
                },
                {
                  "internalType": "uint256",
                  "name": "fundRaiseEndTime",
                  "type": "uint256"
                },
                {
                  "internalType": "uint256",
                  "name": "minDepositAmount",
                  "type": "uint256"
                },
                {
                  "internalType": "uint256",
                  "name": "maxDepositAmount",
                  "type": "uint256"
                },
                {
                  "internalType": "bool",
                  "name": "backerIdentification",
                  "type": "bool"
                },
                {
                  "components": [
                    {
                      "internalType": "enum IFlexFunding.BackerIdentificationType",
                      "name": "bType",
                      "type": "uint8"
                    },
                    {
                      "internalType": "uint32",
                      "name": "bChainId",
                      "type": "uint32"
                    },
                    {
                      "internalType": "address",
                      "name": "bTokanAddr",
                      "type": "address"
                    },
                    {
                      "internalType": "uint256",
                      "name": "bTokenId",
                      "type": "uint256"
                    },
                    {
                      "internalType": "uint256",
                      "name": "bMinHoldingAmount",
                      "type": "uint256"
                    }
                  ],
                  "internalType": "struct IFlexFunding.BackerIdentificationInfo",
                  "name": "bakckerIdentificationInfo",
                  "type": "tuple"
                },
                {
                  "internalType": "bool",
                  "name": "priorityDeposit",
                  "type": "bool"
                },
                {
                  "components": [
                    {
                      "internalType": "uint256",
                      "name": "pPeriod",
                      "type": "uint256"
                    },
                    {
                      "internalType": "uint256",
                      "name": "pPeriods",
                      "type": "uint256"
                    },
                    {
                      "internalType": "enum IFlexFunding.PriorityDepositType",
                      "name": "pType",
                      "type": "uint8"
                    },
                    {
                      "internalType": "uint256",
                      "name": "pChainId",
                      "type": "uint256"
                    },
                    {
                      "internalType": "address",
                      "name": "pTokenAddr",
                      "type": "address"
                    },
                    {
                      "internalType": "uint256",
                      "name": "pTokenId",
                      "type": "uint256"
                    },
                    {
                      "internalType": "uint256",
                      "name": "pMinHolding",
                      "type": "uint256"
                    }
                  ],
                  "internalType": "struct IFlexFunding.PriorityDepositInfo",
                  "name": "priorityDepositInfo",
                  "type": "tuple"
                }
              ],
              "internalType": "struct IFlexFunding.FundRaiseInfo",
              "name": "fundRaiseInfo",
              "type": "tuple"
            },
            {
              "components": [
                {
                  "internalType": "uint256",
                  "name": "tokenRewardAmount",
                  "type": "uint256"
                },
                {
                  "internalType": "uint256",
                  "name": "cashRewardAmount",
                  "type": "uint256"
                }
              ],
              "internalType": "struct IFlexFunding.ProposerRewardInfo",
              "name": "proposerRewardInfo",
              "type": "tuple"
            }
          ],
          "internalType": "struct IFlexFunding.ProposalParams",
          "name": "params",
          "type": "tuple"
        }
      ],
      "name": "submitProposal",
      "outputs": [
        {
          "internalType": "bytes32",
          "name": "proposalId",
          "type": "bytes32"
        }
      ],
      "stateMutability": "nonpayable",
      "type": "function"
    }
  ],
  "bytecode": "0x60806040526001805534801561001457600080fd5b50613298806100246000396000f3fe608060405234801561001057600080fd5b50600436106100f55760003560e01c80636666c9bd11610097578063a5254bc011610066578063a5254bc014610319578063a7f81edc1461032c578063bf49999414610341578063fa8ab0ee1461036857600080fd5b80636666c9bd1461025057806380dc3141146102a45780638ecf7720146102e35780639573167d1461030657600080fd5b80633d5af2ed116100d35780633d5af2ed146101825780633eef82301461018b57806341439ae5146101d257806357670a191461020957600080fd5b80630974a70d146100fa5780630befdad114610120578063148cd4fd14610133575b600080fd5b61010d610108366004612b92565b610375565b6040519081526020015b60405180910390f35b61010d61012e366004612bd1565b6103a1565b61016a610141366004612b92565b6001600160a01b0391821660009081526020818152604080832093835292905220600101541690565b6040516001600160a01b039091168152602001610117565b61010d60015481565b6101c5610199366004612b92565b6001600160a01b039190911660009081526020818152604080832093835292905220600f015460ff1690565b60405161011791906130de565b61010d6101e0366004612b92565b6001600160a01b0391909116600090815260208181526040808320938352929052206003015490565b610243610217366004612b92565b6001600160a01b0391909116600090815260208181526040808320938352929052206024015460ff1690565b60405161011791906130f1565b61028f61025e366004612b92565b6001600160a01b03919091166000908152602081815260408083209383529290522060128101546013909101549091565b60408051928352602083019190915201610117565b61028f6102b2366004612b92565b6001600160a01b03919091166000908152602081815260408083209383529290522060108101546011909101549091565b6102f66102f1366004612b5a565b611015565b6040519015158152602001610117565b6102f6610314366004612b92565b611099565b6102f6610327366004612b5a565b611bc7565b61033f61033a366004612ba4565b611cff565b005b61035461034f366004612aca565b611df7565b604051610117989796959493929190612f24565b6002546101c59060ff1681565b6001600160a01b0382166000908152602081815260408083208484529091529020600201545b92915050565b60008260006103af82612123565b9050846103c0565b60405180910390fd5b610493604051806102a001604052806000815260200160006001600160a01b0316815260200160006001600160a01b0316815260200160006001600160a01b0316815260200160006001600160a01b0316815260200160006001600160a01b031681526020016000801916815260200160008152602001600081526020016000815260200160008152602001600081526020016000815260200160008152602001600081526020016000815260200160008152602001600081526020016000815260200160008152602001600081525090565b6040516317ba7d8560e01b81527f0d479c38716a0298633b1dbf1ce145a3fbd1d79ca4527de172afc3bad04a2ba760048201526001600160a01b038816906317ba7d859060240160206040518083038186803b1580156104f257600080fd5b505afa158015610506573d6000803e3d6000fd5b505050506040513d601f19601f8201168201806040525081019061052a9190612aae565b6001600160a01b031660208083018290526040805191820181526000825251630966917d60e41b815263966917d09161056b918b9130913390600401613070565b602060405180830381600087803b15801561058557600080fd5b505af1158015610599573d6000803e3d6000fd5b505050506040513d601f19601f820116820180604052508101906105bd9190612aae565b6001600160a01b031660a08201526001546105ff906105db906123af565b6040516020016105eb9190612ef0565b6040516020818303038152906040526124d1565b60c0820181905260405163b73dc38960e01b815260048101919091526001600160a01b0388169063b73dc38990602401600060405180830381600087803b15801561064957600080fd5b505af115801561065d573d6000803e3d6000fd5b5050604080516101008101825233815281516101408101909252925060208084019250819061068e908b018b612a92565b6001600160a01b0316815260208a810135908201526040808b0135908201526060908101906106c39060808c01908c01612af5565b151581526020016106da60a08b0160808c01612a92565b6001600160a01b0316815260a08a0135602082015260c08a0135604082015260e08a013560608201526080016107186101208b016101008c01612a92565b6001600160a01b031681526020016107386101408b016101208c01612a92565b6001600160a01b0316905281526040805160a0810182526101408a013581526101608a01356020828101919091526101808b0135828401526101a08b013560608301526101c08b01356080830152830152805161012081018252910190806107a86102008b016101e08c01612c2e565b60018111156107c757634e487b7160e01b600052602160045260246000fd5b81526102008a013560208201526102208a013560408201526102408a013560608201526102608a0135608082015260a00161080a6102a08b016102808c01612af5565b15158152602001610824368b90038b016102a08c01612c4a565b815260200161083b6103608b016103408c01612af5565b15158152602001610855368b90038b016103608c01612ce5565b905281526040805180820182526104608a0135808252602080830191909152830152428183015251634941d71d60e11b81527fb6be919e1c2ea8efe4d05cbbd5907744b6a7ce982f8d3df2274023e3ba0c152d60048201526060909101906001600160a01b038a1690639283ae3a9060240160206040518083038186803b1580156108df57600080fd5b505afa1580156108f3573d6000803e3d6000fd5b505050506040513d601f19601f820116820180604052508101906109179190612d84565b61092190426130ff565b8152602001600160025460ff16600181111561094d57634e487b7160e01b600052602160045260246000fd5b1461095957600261095c565b60005b600681111561097b57634e487b7160e01b600052602160045260246000fd5b90526001600160a01b0388811660009081526020818152604080832060c087810151855290835292819020855181546001600160a01b0319908116918716919091178255868401518051600180850180548516928a16929092179091558186015160028501558185015160038501556060808301516004860180546080808701516001600160a81b0319909216931515610100600160a81b03191693909317610100918d1682021790915560a0850151600588015598840151600687015560e08401516007870155978301516008860180548616918b1691909117905561012090920151600985018054909416981697909717909155868301518051600a84015593840151600b83015591830151600c82015582820151600d8201559190920151600e820155908301518051600f83018054939492939092839160ff1916908381811115610ad957634e487b7160e01b600052602160045260246000fd5b021790555060208201516001808301919091556040830151600283015560608301516003808401919091556080840151600484015560a084015160058401805491151560ff1992831617905560c08501518051600686018054929590949193859316918490811115610b5b57634e487b7160e01b600052602160045260246000fd5b021790555060208281015182546040808601516001600160a01b0316650100000000000265010000000000600160c81b031963ffffffff90941661010090810294909416610100600160c81b031990931692909217919091178455606085015160018086019190915560809095015160029094019390935560e086015160098601805491151560ff19928316179055908601518051600a870190815592810151600b87015592830151600c8601805494959394919390929190911690836003811115610c3757634e487b7160e01b600052602160045260246000fd5b0217905550606082015160038201556080808301516004830180546001600160a01b0319166001600160a01b0390921691909117905560a080840151600584015560c09384015160069384015590870151805160208881019190915501516021870155860151602286015590850151602385015560e0850151602485018054919450925060ff1916906001908490811115610ce257634e487b7160e01b600052602160045260246000fd5b0217905550505060208082015160c083015160408051938401815260008452516302b0974d60e41b81526001600160a01b0390921692632b0974d092610d2e928c9290916004016130ae565b600060405180830381600087803b158015610d4857600080fd5b505af1158015610d5c573d6000803e3d6000fd5b50505060c082015160a08301516040516317ba7d8560e01b81527f0d479c38716a0298633b1dbf1ce145a3fbd1d79ca4527de172afc3bad04a2ba760048201526001600160a01b038b16935063896ae9ba92919084906317ba7d859060240160206040518083038186803b158015610dd357600080fd5b505afa158015610de7573d6000803e3d6000fd5b505050506040513d601f19601f82011682018060405250810190610e0b9190612aae565b6040516001600160e01b031960e086901b16815260048101939093526001600160a01b039182166024840152166044820152606401600060405180830381600087803b158015610e5a57600080fd5b505af1158015610e6e573d6000803e3d6000fd5b505050506001806000828254610e8491906130ff565b9091555050604051632c9f4b5b60e11b81527fb12a3847d47fefceb164b75823af125f9aa82b76938df0ddf08c04cd314ba37c60048201526001600160a01b0388169063593e96b69060240160206040518083038186803b158015610ee857600080fd5b505afa158015610efc573d6000803e3d6000fd5b505050506040513d601f19601f82011682018060405250810190610f209190612aae565b6001600160a01b03166040820152600060025460ff166001811115610f5557634e487b7160e01b600052602160045260246000fd5b1415610fc45780604001516001600160a01b031663df1eb6748260c001516040518263ffffffff1660e01b8152600401610f9191815260200190565b600060405180830381600087803b158015610fab57600080fd5b505af1158015610fbf573d6000803e3d6000fd5b505050505b60c0810151604080519182523360208301527fe90bb18a6fc9203e3678a7f41e132910465e0fce1421609662d02c481fbfbcf8910160405180910390a1505061100d82826124ed565b505092915050565b60405163288c314960e21b81526001600160a01b0382811660048301526000919084169063a230c5249060240160206040518083038186803b15801561105a57600080fd5b505afa15801561106e573d6000803e3d6000fd5b505050506040513d601f19601f820116820180604052508101906110929190612b11565b9392505050565b60006110a36127f9565b6001600160a01b0384166000908152602081815260408083208684529091529020600160025460ff1660018111156110eb57634e487b7160e01b600052602160045260246000fd5b14156110f657611b62565b601181015460e0830152600281015460208301526040516317ba7d8560e01b81527f2207fd6117465cefcba0abc867150698c0464aa41a293ec29ca01b67a6350c3c60048201526001600160a01b038616906317ba7d859060240160206040518083038186803b15801561116957600080fd5b505afa15801561117d573d6000803e3d6000fd5b505050506040513d601f19601f820116820180604052508101906111a19190612aae565b6001600160a01b039081166060840152604051632c9f4b5b60e11b81527fb12a3847d47fefceb164b75823af125f9aa82b76938df0ddf08c04cd314ba37c60048201529086169063593e96b69060240160206040518083038186803b15801561120957600080fd5b505afa15801561121d573d6000803e3d6000fd5b505050506040513d601f19601f820116820180604052508101906112419190612aae565b6001600160a01b0390811660808401526009820154811660c0840152606083015160405163030bd86760e11b8152878316600482015260248101879052911690630617b0ce9060440160206040518083038186803b1580156112a257600080fd5b505afa1580156112b6573d6000803e3d6000fd5b505050506040513d601f19601f820116820180604052508101906112da9190612aae565b6001600160a01b039081166101008401528581166000908152602081815260408083208884529091529020600101541661018083015260e082015142101561133557604051635d68b4f160e01b815260040160405180910390fd5b604051634941d71d60e11b81527fccf4bb1047cabb77da550bb31bee75254c3f57ec1cfd0ea27fcac549b296120a60048201526064906001600160a01b03871690639283ae3a9060240160206040518083038186803b15801561139757600080fd5b505afa1580156113ab573d6000803e3d6000fd5b505050506040513d601f19601f820116820180604052508101906113cf9190612d84565b8361010001516001600160a01b03166113e8919061312b565b6113f29190613117565b610120830152604051634941d71d60e11b81527fda34ff95e06cbf2c9c32a559cd8aadd1a10104596417d62c03db2c1258df83d360048201526001600160a01b03861690639283ae3a9060240160206040518083038186803b15801561145757600080fd5b505afa15801561146b573d6000803e3d6000fd5b505050506040513d601f19601f8201168201806040525081019061148f9190612d84565b1561153057604051634941d71d60e11b81527f64c49ee5084f4940c312104c41603e43791b03dad28152afd6eadb5b960a8a8760048201526001600160a01b03861690639283ae3a9060240160206040518083038186803b1580156114f357600080fd5b505afa158015611507573d6000803e3d6000fd5b505050506040513d601f19601f8201168201806040525081019061152b9190612d84565b6115ed565b604051634941d71d60e11b81527f64c49ee5084f4940c312104c41603e43791b03dad28152afd6eadb5b960a8a8760048201526064906001600160a01b03871690639283ae3a9060240160206040518083038186803b15801561159257600080fd5b505afa1580156115a6573d6000803e3d6000fd5b505050506040513d601f19601f820116820180604052508101906115ca9190612d84565b8361010001516001600160a01b03166115e3919061312b565b6115ed9190613117565b610140830181905260218201546101608401819052610120840151602085015191929161161a91906130ff565b61162491906130ff565b61162e91906130ff565b8261010001516001600160a01b031611611b52576024810180546004919060ff1916600183021790555081608001516001600160a01b031663ceb1bfa685876001600160a01b031663fd310d297f69a955ab31f501fa90dd9fe1b664a35d6405d643110370db4655d52ba39422f76040518263ffffffff1660e01b81526004016116ba91815260200190565b60206040518083038186803b1580156116d257600080fd5b505afa1580156116e6573d6000803e3d6000fd5b505050506040513d601f19601f8201168201806040525081019061170a9190612aae565b8561018001518661012001516040518563ffffffff1660e01b8152600401611735949392919061304b565b600060405180830381600087803b15801561174f57600080fd5b505af1158015611763573d6000803e3d6000fd5b5050505081608001516001600160a01b031663ceb1bfa685876001600160a01b031663fd310d297f8987d08c67963e4cacd5e5936c122a968c66853d58299dd822c19422271098396040518263ffffffff1660e01b81526004016117c991815260200190565b60206040518083038186803b1580156117e157600080fd5b505afa1580156117f5573d6000803e3d6000fd5b505050506040513d601f19601f820116820180604052508101906118199190612aae565b8561018001518661014001516040518563ffffffff1660e01b8152600401611844949392919061304b565b600060405180830381600087803b15801561185e57600080fd5b505af1158015611872573d6000803e3d6000fd5b50505060808301518254610180850151610160860151604051636758dfd360e11b81526001600160a01b03948516955063ceb1bfa6946118bb948b94911692909160040161304b565b600060405180830381600087803b1580156118d557600080fd5b505af11580156118e9573d6000803e3d6000fd5b5050505081608001516001600160a01b031663ceb1bfa6858460c001518561018001518661016001518761014001518861012001518961010001516001600160a01b0316611937919061314a565b611941919061314a565b61194b919061314a565b6040518563ffffffff1660e01b815260040161196a949392919061304b565b600060405180830381600087803b15801561198457600080fd5b505af1158015611998573d6000803e3d6000fd5b505050506080820151610100830151604051630224f62b60e31b8152600481018790526001600160a01b039182166024820152911690631127b15890604401600060405180830381600087803b1580156119f157600080fd5b505af1158015611a05573d6000803e3d6000fd5b50505050600481015460ff1615611a1b57611b3e565b6040516317ba7d8560e01b81527fb0326f8dfc913f537596953a938551c86ac8fe0da74c9a8cd0ee660e627dccc860048201526001600160a01b038616906317ba7d859060240160206040518083038186803b158015611a7a57600080fd5b505afa158015611a8e573d6000803e3d6000fd5b505050506040513d601f19601f82011682018060405250810190611ab29190612aae565b6001600160a01b0390811660a08401819052604051639a3eb32b60e01b815291871660048301526024820186905290639a3eb32b90604401602060405180830381600087803b158015611b0457600080fd5b505af1158015611b18573d6000803e3d6000fd5b505050506040513d601f19601f82011682018060405250810190611b3c9190612b11565b505b60248101805460ff19166005179055611b62565b60248101805460ff191660031790555b6040516330490e9160e01b8152600481018590526001600160a01b038616906330490e9190602401600060405180830381600087803b158015611ba457600080fd5b505af1158015611bb8573d6000803e3d6000fd5b50600198975050505050505050565b60405163fefbd87560e01b81527f67e84d3ef18b24e32f9a9b2e9bac9e7ea8cde2f146ce512d44b9d6718a1f3ca0600482015260009081906001600160a01b0385169063fefbd8759060240160206040518083038186803b158015611c2b57600080fd5b505afa158015611c3f573d6000803e3d6000fd5b505050506040513d601f19601f82011682018060405250810190611c639190612aae565b90506001600160a01b03811615611cf5576040516319a73c8360e31b81526001600160a01b03848116600483015282169063cd39e4189060240160206040518083038186803b158015611cb557600080fd5b505afa158015611cc9573d6000803e3d6000fd5b505050506040513d601f19601f82011682018060405250810190611ced9190612b11565b91505061039b565b5060009392505050565b6040516368c18beb60e01b815233600482015282906001600160a01b038216906368c18beb9060240160206040518083038186803b158015611d4057600080fd5b505afa158015611d54573d6000803e3d6000fd5b505050506040513d601f19601f82011682018060405250810190611d789190612b11565b80611d875750611d87816124fc565b611dc15760405162461bcd60e51b815260206004820152600b60248201526a37b7363ca0b230b83a32b960a91b60448201526064016103b7565b6002805483919060ff191660018381811115611ded57634e487b7160e01b600052602160045260246000fd5b0217905550505050565b600060208181529281526040808220845291815281902080548251610140810184526001808401546001600160a01b039081168352600285015483880152600385015483870152600485015460ff8082161515606080870191909152610100928390048416608080880191909152600589015460a08089019190915260068a015460c089015260078a015460e089015260088a015486169488019490945260098901548516610120808901919091528a519485018b52600a8a01548552600b8a01549b85019b909b52600c890154848b0152600d89015491840191909152600e880154908301528751988901909752600f860180549290951697939690959492849290911690811115611f1a57634e487b7160e01b600052602160045260246000fd5b6001811115611f3957634e487b7160e01b600052602160045260246000fd5b8152602001600182015481526020016002820154815260200160038201548152602001600482015481526020016005820160009054906101000a900460ff16151515158152602001600682016040518060a00160405290816000820160009054906101000a900460ff166003811115611fc257634e487b7160e01b600052602160045260246000fd5b6003811115611fe157634e487b7160e01b600052602160045260246000fd5b81528154610100810463ffffffff16602080840191909152650100000000009091046001600160a01b031660408084019190915260018401546060840152600290930154608090920191909152918352600984015460ff908116151584840152815160e081018352600a860180548252600b87015494820194909452600c8601549483019490939284019116600381111561208c57634e487b7160e01b600052602160045260246000fd5b60038111156120ab57634e487b7160e01b600052602160045260246000fd5b8152600382015460208083019190915260048301546001600160a01b031660408084019190915260058401546060840152600690930154608090920191909152919092528151808301909252848101548252602185015490820152602284015460238501546024909501549394919390925060ff1688565b6040805160808101825260008082526020820181905291810182905260608101919091525a81600001818152505043826001600160a01b031663b21634826040518163ffffffff1660e01b815260040160206040518083038186803b15801561218b57600080fd5b505afa15801561219f573d6000803e3d6000fd5b505050506040513d601f19601f820116820180604052508101906121c39190612d84565b14156122045760405162461bcd60e51b815260206004820152601060248201526f1c99595b9d1c985b98de4819dd585c9960821b60448201526064016103b7565b816001600160a01b03166310fdb0a26040518163ffffffff1660e01b8152600401600060405180830381600087803b15801561223f57600080fd5b505af1158015612253573d6000803e3d6000fd5b50506040516372c6838f60e01b81527f1f2fd42ad6a6cacd573c4b212beb7a4e2499ad45d742a65337097f130e71daff6004820152600092506001600160a01b03851691506372c6838f9060240160206040518083038186803b1580156122b957600080fd5b505afa1580156122cd573d6000803e3d6000fd5b505050506040513d601f19601f820116820180604052508101906122f19190612aae565b90506001600160a01b03811661230d57600060208301526123a9565b6001600160a01b038181166060840181905283516040516343a8a3f160e01b8152928616600484015260248301526000918291906343a8a3f190604401604080518083038186803b15801561236157600080fd5b505afa158015612375573d6000803e3d6000fd5b505050506040513d601f19601f820116820180604052508101906123999190612b2d565b9015156020860152604085015250505b50919050565b6060816123d35750506040805180820190915260018152600360fc1b602082015290565b8160005b81156123fd57806123e781613191565b91506123f69050600a83613117565b91506123d7565b60008167ffffffffffffffff81111561242657634e487b7160e01b600052604160045260246000fd5b6040519080825280601f01601f191660200182016040528015612450576020820181803683370190505b5090505b84156124c95761246560018361314a565b9150612472600a866131ac565b61247d9060306130ff565b60f81b8183815181106124a057634e487b7160e01b600052603260045260246000fd5b60200101906001600160f81b031916908160001a9053506124c2600a86613117565b9450612454565b949350505050565b60008151600014156124e557506000919050565b506020015190565b6124f8828233612703565b5050565b600080826001600160a01b031663c19d93fb6040518163ffffffff1660e01b815260040160206040518083038186803b15801561253857600080fd5b505afa15801561254c573d6000803e3d6000fd5b505050506040513d601f19601f820116820180604052508101906125709190612c12565b600181111561258f57634e487b7160e01b600052602160045260246000fd5b14801561039b5750816001600160a01b031663c67143666040518163ffffffff1660e01b815260040160206040518083038186803b1580156125d057600080fd5b505afa1580156125e4573d6000803e3d6000fd5b505050506040513d601f19601f820116820180604052508101906126089190612d84565b1580612686575060405163288c314960e21b81523360048201526001600160a01b0383169063a230c5249060240160206040518083038186803b15801561264e57600080fd5b505afa158015612662573d6000803e3d6000fd5b505050506040513d601f19601f820116820180604052508101906126869190612b11565b8061039b57506040516368c18beb60e01b81523360048201526001600160a01b038316906368c18beb9060240160206040518083038186803b1580156126cb57600080fd5b505afa1580156126df573d6000803e3d6000fd5b505050506040513d601f19601f8201168201806040525081019061039b9190612b11565b8160200151156127a15781606001516001600160a01b0316635e5eb01384835a865161272f919061314a565b60408088015190516001600160e01b031960e087901b1681526001600160a01b03948516600482015293909216602484015260448301526064820152608401600060405180830381600087803b15801561278857600080fd5b505af115801561279c573d6000803e3d6000fd5b505050505b826001600160a01b031663d4f7af436040518163ffffffff1660e01b8152600401600060405180830381600087803b1580156127dc57600080fd5b505af11580156127f0573d6000803e3d6000fd5b50505050505050565b604051806101c0016040528061280d6128a4565b8152602001600081526020016000815260200160006001600160a01b0316815260200160006001600160a01b0316815260200160006001600160a01b0316815260200160006001600160a01b031681526020016000815260200160006001600160a01b0316815260200160008152602001600081526020016000815260200160006001600160a01b03168152602001600081525090565b60408051610100808201835260008083528351610140810185528181526020818101839052948101829052606081018290526080810182905260a0810182905260c0810182905260e081018290529182018190526101208201529091820190815260200161293a6040518060a0016040528060008152602001600081526020016000815260200160008152602001600081525090565b81526020016129476129a2565b8152602001612969604051806040016040528060008152602001600081525090565b815260200160008152602001600081526020016000600681111561299d57634e487b7160e01b600052602160045260246000fd5b905290565b604080516101208101909152806000815260200160008152602001600081526020016000815260200160008152602001600015158152602001612a0e6040805160a081019091528060008152600060208201819052604082018190526060820181905260809091015290565b81526000602082015260400161299d6040518060e00160405280600081526020016000815260200160006003811115612a5757634e487b7160e01b600052602160045260246000fd5b81526020016000815260200160006001600160a01b0316815260200160008152602001600081525090565b8035612a8d81613225565b919050565b600060208284031215612aa3578081fd5b813561109281613225565b600060208284031215612abf578081fd5b815161109281613225565b60008060408385031215612adc578081fd5b8235612ae781613225565b946020939093013593505050565b600060208284031215612b06578081fd5b81356110928161323a565b600060208284031215612b22578081fd5b81516110928161323a565b60008060408385031215612b3f578182fd5b8251612b4a8161323a565b6020939093015192949293505050565b60008060408385031215612b6c578182fd5b8235612b7781613225565b91506020830135612b8781613225565b809150509250929050565b60008060408385031215612adc578182fd5b60008060408385031215612bb6578182fd5b8235612bc181613225565b91506020830135612b8781613255565b6000808284036104a0811215612be5578283fd5b8335612bf081613225565b9250610480601f1982011215612c04578182fd5b506020830190509250929050565b600060208284031215612c23578081fd5b815161109281613255565b600060208284031215612c3f578081fd5b813561109281613255565b600060a08284031215612c5b578081fd5b60405160a0810181811067ffffffffffffffff82111715612c8a57634e487b7160e01b83526041600452602483fd5b6040528235612c9881613248565b8152602083013563ffffffff81168114612cb0578283fd5b60208201526040830135612cc381613225565b6040820152606083810135908201526080928301359281019290925250919050565b600060e08284031215612cf6578081fd5b60405160e0810181811067ffffffffffffffff82111715612d2557634e487b7160e01b83526041600452602483fd5b806040525082358152602083013560208201526040830135612d4681613248565b604082015260608381013590820152612d6160808401612a82565b608082015260a083013560a082015260c083013560c08201528091505092915050565b600060208284031215612d95578081fd5b5051919050565b60008151808452612db4816020860160208601613161565b601f01601f19169290920160200192915050565b60078110612dd857612dd86131ec565b9052565b8051612de781613202565b825260208181015163ffffffff16908301526040808201516001600160a01b03169083015260608082015190830152608090810151910152565b8051612e2c81613215565b808352506020810151602083015260408101516040830152606081015160608301526080810151608083015260a0810151151560a083015260c0810151612e7660c0840182612ddc565b5060e08101511515610160830152610100810151612e98610180840182612e9d565b505050565b80518252602081015160208301526040810151612eb981613202565b6040830152606081810151908301526080808201516001600160a01b03169083015260a0808201519083015260c090810151910152565b6b466c657846756e64696e672360a01b815260008251612f1781600c850160208701613161565b91909101600c0192915050565b6001600160a01b0389811682528851166020820152610500810160208901516040830152604089015160608301526060890151612f65608084018215159052565b5060808901516001600160a01b03811660a08401525060a089015160c083015260c089015160e083015260e08901516101008181850152808b0151915050610120612fba818501836001600160a01b03169052565b8a01516001600160a01b0316610140840152508751610160830152602088015161018083015260408801516101a083015260608801516101c083015260808801516101e083015261300f610200830188612e21565b85516104608301526020860151610480830152846104a0830152836104c083015261303e6104e0830184612dc8565b9998505050505050505050565b9384526001600160a01b03928316602085015291166040830152606082015260800190565b600060018060a01b03808716835280861660208401526080604084015261309a6080840186612d9c565b915080841660608401525095945050505050565b60018060a01b03841681528260208201526060604082015260006130d56060830184612d9c565b95945050505050565b602081016130eb83613215565b91905290565b6020810161039b8284612dc8565b60008219821115613112576131126131c0565b500190565b600082613126576131266131d6565b500490565b6000816000190483118215151615613145576131456131c0565b500290565b60008282101561315c5761315c6131c0565b500390565b60005b8381101561317c578181015183820152602001613164565b8381111561318b576000848401525b50505050565b60006000198214156131a5576131a56131c0565b5060010190565b6000826131bb576131bb6131d6565b500690565b634e487b7160e01b600052601160045260246000fd5b634e487b7160e01b600052601260045260246000fd5b634e487b7160e01b600052602160045260246000fd5b60048110613212576132126131ec565b50565b60028110613212576132126131ec565b6001600160a01b038116811461321257600080fd5b801515811461321257600080fd5b6004811061321257600080fd5b6002811061321257600080fdfea264697066735822122085abe8b28b5be9a4a5415451ba68521713006515217e345178a8eb371140c1a864736f6c63430008040033",
  "linkReferences": {},
  "deployedLinkReferences": {}
}