{
  "_format": "hh-sol-artifact-1",
  "contractName": "FlexFundingAdapterContract",
  "sourceName": "contracts/flex/adatpers/FlexFunding.sol",
  "abi": [
    {
      "inputs": [],
      "name": "EscrowTokenFailed",
      "type": "error"
    },
    {
      "inputs": [],
      "name": "FundRaiseEndTimeNotUP",
      "type": "error"
    },
    {
      "inputs": [],
      "name": "InvalidReturnFundParams",
      "type": "error"
    },
    {
      "inputs": [],
      "name": "InvalidVestingParams",
      "type": "error"
    },
    {
      "inputs": [],
      "name": "invalidParam",
      "type": "error"
    },
    {
      "anonymous": false,
      "inputs": [
        {
          "indexed": false,
          "internalType": "bytes32",
          "name": "proposalId",
          "type": "bytes32"
        },
        {
          "indexed": false,
          "internalType": "address",
          "name": "proposer",
          "type": "address"
        }
      ],
      "name": "ProposalCreated",
      "type": "event"
    },
    {
      "anonymous": false,
      "inputs": [
        {
          "indexed": false,
          "internalType": "bytes32",
          "name": "proposalId",
          "type": "bytes32"
        }
      ],
      "name": "ProposalExecuted",
      "type": "event"
    },
    {
      "inputs": [
        {
          "internalType": "address",
          "name": "",
          "type": "address"
        },
        {
          "internalType": "bytes32",
          "name": "",
          "type": "bytes32"
        }
      ],
      "name": "Proposals",
      "outputs": [
        {
          "internalType": "address",
          "name": "proposer",
          "type": "address"
        },
        {
          "components": [
            {
              "internalType": "address",
              "name": "tokenAddress",
              "type": "address"
            },
            {
              "internalType": "uint256",
              "name": "minFundingAmount",
              "type": "uint256"
            },
            {
              "internalType": "uint256",
              "name": "maxFundingAmount",
              "type": "uint256"
            },
            {
              "internalType": "bool",
              "name": "escrow",
              "type": "bool"
            },
            {
              "internalType": "address",
              "name": "returnTokenAddr",
              "type": "address"
            },
            {
              "internalType": "uint256",
              "name": "returnTokenAmount",
              "type": "uint256"
            },
            {
              "internalType": "uint256",
              "name": "price",
              "type": "uint256"
            },
            {
              "internalType": "uint256",
              "name": "minReturnAmount",
              "type": "uint256"
            },
            {
              "internalType": "uint256",
              "name": "maxReturnAmount",
              "type": "uint256"
            },
            {
              "internalType": "address",
              "name": "approverAddr",
              "type": "address"
            },
            {
              "internalType": "address",
              "name": "recipientAddr",
              "type": "address"
            }
          ],
          "internalType": "struct IFlexFunding.FundingInfo",
          "name": "fundingInfo",
          "type": "tuple"
        },
        {
          "components": [
            {
              "internalType": "uint256",
              "name": "vestingStartTime",
              "type": "uint256"
            },
            {
              "internalType": "uint256",
              "name": "vestingCliffDuration",
              "type": "uint256"
            },
            {
              "internalType": "uint256",
              "name": "vestingStepDuration",
              "type": "uint256"
            },
            {
              "internalType": "uint256",
              "name": "vestingSteps",
              "type": "uint256"
            },
            {
              "internalType": "uint256",
              "name": "vestingCliffLockAmount",
              "type": "uint256"
            }
          ],
          "internalType": "struct IFlexFunding.VestInfo",
          "name": "vestInfo",
          "type": "tuple"
        },
        {
          "components": [
            {
              "internalType": "enum IFlexFunding.FundRaiseType",
              "name": "fundRaiseType",
              "type": "uint8"
            },
            {
              "internalType": "uint256",
              "name": "fundRaiseStartTime",
              "type": "uint256"
            },
            {
              "internalType": "uint256",
              "name": "fundRaiseEndTime",
              "type": "uint256"
            },
            {
              "internalType": "uint256",
              "name": "minDepositAmount",
              "type": "uint256"
            },
            {
              "internalType": "uint256",
              "name": "maxDepositAmount",
              "type": "uint256"
            },
            {
              "internalType": "bool",
              "name": "backerIdentification",
              "type": "bool"
            },
            {
              "components": [
                {
                  "internalType": "enum IFlexFunding.BackerIdentificationType",
                  "name": "bType",
                  "type": "uint8"
                },
                {
                  "internalType": "uint32",
                  "name": "bChainId",
                  "type": "uint32"
                },
                {
                  "internalType": "address",
                  "name": "bTokanAddr",
                  "type": "address"
                },
                {
                  "internalType": "uint256",
                  "name": "bTokenId",
                  "type": "uint256"
                },
                {
                  "internalType": "uint256",
                  "name": "bMinHoldingAmount",
                  "type": "uint256"
                }
              ],
              "internalType": "struct IFlexFunding.BackerIdentificationInfo",
              "name": "bakckerIdentificationInfo",
              "type": "tuple"
            },
            {
              "internalType": "bool",
              "name": "priorityDeposit",
              "type": "bool"
            },
            {
              "components": [
                {
                  "internalType": "uint256",
                  "name": "pPeriod",
                  "type": "uint256"
                },
                {
                  "internalType": "uint256",
                  "name": "pPeriods",
                  "type": "uint256"
                },
                {
                  "internalType": "enum IFlexFunding.PriorityDepositType",
                  "name": "pType",
                  "type": "uint8"
                },
                {
                  "internalType": "uint256",
                  "name": "pChainId",
                  "type": "uint256"
                },
                {
                  "internalType": "address",
                  "name": "pTokenAddr",
                  "type": "address"
                },
                {
                  "internalType": "uint256",
                  "name": "pTokenId",
                  "type": "uint256"
                },
                {
                  "internalType": "uint256",
                  "name": "pMinHolding",
                  "type": "uint256"
                }
              ],
              "internalType": "struct IFlexFunding.PriorityDepositInfo",
              "name": "priorityDepositInfo",
              "type": "tuple"
            }
          ],
          "internalType": "struct IFlexFunding.FundRaiseInfo",
          "name": "fundRaiseInfo",
          "type": "tuple"
        },
        {
          "components": [
            {
              "internalType": "uint256",
              "name": "tokenRewardAmount",
              "type": "uint256"
            },
            {
              "internalType": "uint256",
              "name": "cashRewardAmount",
              "type": "uint256"
            }
          ],
          "internalType": "struct IFlexFunding.ProposerRewardInfo",
          "name": "proposerRewardInfo",
          "type": "tuple"
        },
        {
          "internalType": "uint256",
          "name": "startVoteTime",
          "type": "uint256"
        },
        {
          "internalType": "uint256",
          "name": "stopVoteTime",
          "type": "uint256"
        },
        {
          "internalType": "enum IFlexFunding.ProposalStatus",
          "name": "state",
          "type": "uint8"
        }
      ],
      "stateMutability": "view",
      "type": "function"
    },
    {
      "inputs": [],
      "name": "RETRUN_TOKEN_AMOUNT_PRECISION",
      "outputs": [
        {
          "internalType": "uint256",
          "name": "",
          "type": "uint256"
        }
      ],
      "stateMutability": "view",
      "type": "function"
    },
    {
      "inputs": [
        {
          "internalType": "contract DaoRegistry",
          "name": "dao",
          "type": "address"
        },
        {
          "internalType": "enum IFlexFunding.FundingType",
          "name": "flexFundingType",
          "type": "uint8"
        }
      ],
      "name": "configureDao",
      "outputs": [],
      "stateMutability": "nonpayable",
      "type": "function"
    },
    {
      "inputs": [
        {
          "internalType": "address",
          "name": "",
          "type": "address"
        },
        {
          "internalType": "bytes32",
          "name": "",
          "type": "bytes32"
        },
        {
          "internalType": "address",
          "name": "",
          "type": "address"
        }
      ],
      "name": "escrowedTokens",
      "outputs": [
        {
          "internalType": "uint256",
          "name": "",
          "type": "uint256"
        }
      ],
      "stateMutability": "view",
      "type": "function"
    },
    {
      "inputs": [],
      "name": "fundingType",
      "outputs": [
        {
          "internalType": "enum IFlexFunding.FundingType",
          "name": "",
          "type": "uint8"
        }
      ],
      "stateMutability": "view",
      "type": "function"
    },
    {
      "inputs": [
        {
          "internalType": "contract DaoRegistry",
          "name": "dao",
          "type": "address"
        },
        {
          "internalType": "bytes32",
          "name": "proposalId",
          "type": "bytes32"
        }
      ],
      "name": "getDepositAmountLimit",
      "outputs": [
        {
          "internalType": "uint256",
          "name": "minDepositAmount",
          "type": "uint256"
        },
        {
          "internalType": "uint256",
          "name": "maxDepositAmount",
          "type": "uint256"
        }
      ],
      "stateMutability": "view",
      "type": "function"
    },
    {
      "inputs": [
        {
          "internalType": "contract DaoRegistry",
          "name": "dao",
          "type": "address"
        },
        {
          "internalType": "bytes32",
          "name": "proposalId",
          "type": "bytes32"
        }
      ],
      "name": "getFundRaiseTimes",
      "outputs": [
        {
          "internalType": "uint256",
          "name": "fundRaiseStartTime",
          "type": "uint256"
        },
        {
          "internalType": "uint256",
          "name": "fundRaiseEndTime",
          "type": "uint256"
        }
      ],
      "stateMutability": "view",
      "type": "function"
    },
    {
      "inputs": [
        {
          "internalType": "contract DaoRegistry",
          "name": "dao",
          "type": "address"
        },
        {
          "internalType": "bytes32",
          "name": "proposalId",
          "type": "bytes32"
        }
      ],
      "name": "getFundRaiseType",
      "outputs": [
        {
          "internalType": "enum IFlexFunding.FundRaiseType",
          "name": "",
          "type": "uint8"
        }
      ],
      "stateMutability": "view",
      "type": "function"
    },
    {
      "inputs": [
        {
          "internalType": "contract DaoRegistry",
          "name": "dao",
          "type": "address"
        },
        {
          "internalType": "bytes32",
          "name": "proposalId",
          "type": "bytes32"
        }
      ],
      "name": "getMaxFundingAmount",
      "outputs": [
        {
          "internalType": "uint256",
          "name": "",
          "type": "uint256"
        }
      ],
      "stateMutability": "view",
      "type": "function"
    },
    {
      "inputs": [
        {
          "internalType": "contract DaoRegistry",
          "name": "dao",
          "type": "address"
        },
        {
          "internalType": "bytes32",
          "name": "proposalId",
          "type": "bytes32"
        }
      ],
      "name": "getMinFundingAmount",
      "outputs": [
        {
          "internalType": "uint256",
          "name": "",
          "type": "uint256"
        }
      ],
      "stateMutability": "view",
      "type": "function"
    },
    {
      "inputs": [
        {
          "internalType": "contract DaoRegistry",
          "name": "dao",
          "type": "address"
        },
        {
          "internalType": "bytes32",
          "name": "proposalId",
          "type": "bytes32"
        }
      ],
      "name": "getProposalState",
      "outputs": [
        {
          "internalType": "enum IFlexFunding.ProposalStatus",
          "name": "",
          "type": "uint8"
        }
      ],
      "stateMutability": "view",
      "type": "function"
    },
    {
      "inputs": [
        {
          "internalType": "contract DaoRegistry",
          "name": "dao",
          "type": "address"
        },
        {
          "internalType": "bytes32",
          "name": "proposalId",
          "type": "bytes32"
        }
      ],
      "name": "getTokenByProposalId",
      "outputs": [
        {
          "internalType": "address",
          "name": "",
          "type": "address"
        }
      ],
      "stateMutability": "view",
      "type": "function"
    },
    {
      "inputs": [
        {
          "internalType": "contract DaoRegistry",
          "name": "dao",
          "type": "address"
        },
        {
          "internalType": "address",
          "name": "_addr",
          "type": "address"
        }
      ],
      "name": "isActiveGeneralPartner",
      "outputs": [
        {
          "internalType": "bool",
          "name": "",
          "type": "bool"
        }
      ],
      "stateMutability": "view",
      "type": "function"
    },
    {
      "inputs": [
        {
          "internalType": "contract DaoRegistry",
          "name": "dao",
          "type": "address"
        },
        {
          "internalType": "address",
          "name": "_addr",
          "type": "address"
        }
      ],
      "name": "isActiveMember",
      "outputs": [
        {
          "internalType": "bool",
          "name": "",
          "type": "bool"
        }
      ],
      "stateMutability": "view",
      "type": "function"
    },
    {
      "inputs": [
        {
          "internalType": "contract DaoRegistry",
          "name": "dao",
          "type": "address"
        },
        {
          "internalType": "bytes32",
          "name": "proposalId",
          "type": "bytes32"
        }
      ],
      "name": "processProposal",
      "outputs": [
        {
          "internalType": "bool",
          "name": "",
          "type": "bool"
        }
      ],
      "stateMutability": "nonpayable",
      "type": "function"
    },
    {
      "inputs": [],
      "name": "proposalIds",
      "outputs": [
        {
          "internalType": "uint256",
          "name": "",
          "type": "uint256"
        }
      ],
      "stateMutability": "view",
      "type": "function"
    },
    {
      "inputs": [
        {
          "internalType": "contract DaoRegistry",
          "name": "dao",
          "type": "address"
        },
        {
          "internalType": "bytes32",
          "name": "proposalId",
          "type": "bytes32"
        }
      ],
      "name": "retrunTokenToApprover",
      "outputs": [],
      "stateMutability": "nonpayable",
      "type": "function"
    },
    {
      "inputs": [
        {
          "internalType": "contract DaoRegistry",
          "name": "dao",
          "type": "address"
        },
        {
          "components": [
            {
              "components": [
                {
                  "internalType": "address",
                  "name": "tokenAddress",
                  "type": "address"
                },
                {
                  "internalType": "uint256",
                  "name": "minFundingAmount",
                  "type": "uint256"
                },
                {
                  "internalType": "uint256",
                  "name": "maxFundingAmount",
                  "type": "uint256"
                },
                {
                  "internalType": "bool",
                  "name": "escrow",
                  "type": "bool"
                },
                {
                  "internalType": "address",
                  "name": "returnTokenAddr",
                  "type": "address"
                },
                {
                  "internalType": "uint256",
                  "name": "returnTokenAmount",
                  "type": "uint256"
                },
                {
                  "internalType": "uint256",
                  "name": "price",
                  "type": "uint256"
                },
                {
                  "internalType": "uint256",
                  "name": "minReturnAmount",
                  "type": "uint256"
                },
                {
                  "internalType": "uint256",
                  "name": "maxReturnAmount",
                  "type": "uint256"
                },
                {
                  "internalType": "address",
                  "name": "approverAddr",
                  "type": "address"
                },
                {
                  "internalType": "address",
                  "name": "recipientAddr",
                  "type": "address"
                }
              ],
              "internalType": "struct IFlexFunding.FundingInfo",
              "name": "fundingInfo",
              "type": "tuple"
            },
            {
              "components": [
                {
                  "internalType": "uint256",
                  "name": "vestingStartTime",
                  "type": "uint256"
                },
                {
                  "internalType": "uint256",
                  "name": "vestingCliffDuration",
                  "type": "uint256"
                },
                {
                  "internalType": "uint256",
                  "name": "vestingStepDuration",
                  "type": "uint256"
                },
                {
                  "internalType": "uint256",
                  "name": "vestingSteps",
                  "type": "uint256"
                },
                {
                  "internalType": "uint256",
                  "name": "vestingCliffLockAmount",
                  "type": "uint256"
                }
              ],
              "internalType": "struct IFlexFunding.VestInfo",
              "name": "vestInfo",
              "type": "tuple"
            },
            {
              "components": [
                {
                  "internalType": "enum IFlexFunding.FundRaiseType",
                  "name": "fundRaiseType",
                  "type": "uint8"
                },
                {
                  "internalType": "uint256",
                  "name": "fundRaiseStartTime",
                  "type": "uint256"
                },
                {
                  "internalType": "uint256",
                  "name": "fundRaiseEndTime",
                  "type": "uint256"
                },
                {
                  "internalType": "uint256",
                  "name": "minDepositAmount",
                  "type": "uint256"
                },
                {
                  "internalType": "uint256",
                  "name": "maxDepositAmount",
                  "type": "uint256"
                },
                {
                  "internalType": "bool",
                  "name": "backerIdentification",
                  "type": "bool"
                },
                {
                  "components": [
                    {
                      "internalType": "enum IFlexFunding.BackerIdentificationType",
                      "name": "bType",
                      "type": "uint8"
                    },
                    {
                      "internalType": "uint32",
                      "name": "bChainId",
                      "type": "uint32"
                    },
                    {
                      "internalType": "address",
                      "name": "bTokanAddr",
                      "type": "address"
                    },
                    {
                      "internalType": "uint256",
                      "name": "bTokenId",
                      "type": "uint256"
                    },
                    {
                      "internalType": "uint256",
                      "name": "bMinHoldingAmount",
                      "type": "uint256"
                    }
                  ],
                  "internalType": "struct IFlexFunding.BackerIdentificationInfo",
                  "name": "bakckerIdentificationInfo",
                  "type": "tuple"
                },
                {
                  "internalType": "bool",
                  "name": "priorityDeposit",
                  "type": "bool"
                },
                {
                  "components": [
                    {
                      "internalType": "uint256",
                      "name": "pPeriod",
                      "type": "uint256"
                    },
                    {
                      "internalType": "uint256",
                      "name": "pPeriods",
                      "type": "uint256"
                    },
                    {
                      "internalType": "enum IFlexFunding.PriorityDepositType",
                      "name": "pType",
                      "type": "uint8"
                    },
                    {
                      "internalType": "uint256",
                      "name": "pChainId",
                      "type": "uint256"
                    },
                    {
                      "internalType": "address",
                      "name": "pTokenAddr",
                      "type": "address"
                    },
                    {
                      "internalType": "uint256",
                      "name": "pTokenId",
                      "type": "uint256"
                    },
                    {
                      "internalType": "uint256",
                      "name": "pMinHolding",
                      "type": "uint256"
                    }
                  ],
                  "internalType": "struct IFlexFunding.PriorityDepositInfo",
                  "name": "priorityDepositInfo",
                  "type": "tuple"
                }
              ],
              "internalType": "struct IFlexFunding.FundRaiseInfo",
              "name": "fundRaiseInfo",
              "type": "tuple"
            },
            {
              "components": [
                {
                  "internalType": "uint256",
                  "name": "tokenRewardAmount",
                  "type": "uint256"
                },
                {
                  "internalType": "uint256",
                  "name": "cashRewardAmount",
                  "type": "uint256"
                }
              ],
              "internalType": "struct IFlexFunding.ProposerRewardInfo",
              "name": "proposerRewardInfo",
              "type": "tuple"
            }
          ],
          "internalType": "struct IFlexFunding.ProposalParams",
          "name": "params",
          "type": "tuple"
        }
      ],
      "name": "submitProposal",
      "outputs": [
        {
          "internalType": "bytes32",
          "name": "proposalId",
          "type": "bytes32"
        }
      ],
      "stateMutability": "nonpayable",
      "type": "function"
    }
  ],
  "bytecode": "0x6080604052600f60025534801561001557600080fd5b50613fcd806100256000396000f3fe608060405234801561001057600080fd5b50600436106101165760003560e01c8063881075ef116100a2578063a5254bc011610071578063a5254bc01461037a578063a7f81edc1461038d578063acc23208146103a2578063bf499994146103b5578063fa8ab0ee146103dc57600080fd5b8063881075ef1461030057806388a020ba146103135780638ecf7720146103445780639573167d1461036757600080fd5b806341439ae5116100e957806341439ae5146101e057806357670a19146102175780636666c9bd1461025e5780636d535f11146102b257806380dc3141146102c157600080fd5b80630974a70d1461011b578063148cd4fd146101415780633d5af2ed146101905780633eef823014610199575b600080fd5b61012e61012936600461385a565b6103e9565b6040519081526020015b60405180910390f35b61017861014f36600461385a565b6001600160a01b0391821660009081526020818152604080832093835292905220600101541690565b6040516001600160a01b039091168152602001610138565b61012e60025481565b6101d36101a736600461385a565b6001600160a01b0391909116600090815260208181526040808320938352929052206010015460ff1690565b6040516101389190613e17565b61012e6101ee36600461385a565b6001600160a01b0391909116600090815260208181526040808320938352929052206003015490565b61025161022536600461385a565b6001600160a01b0391909116600090815260208181526040808320938352929052206025015460ff1690565b6040516101389190613e2a565b61029d61026c36600461385a565b6001600160a01b03919091166000908152602081815260408083209383529290522060138101546014909101549091565b60408051928352602083019190915201610138565b61012e670de0b6b3a764000081565b61029d6102cf36600461385a565b6001600160a01b03919091166000908152602081815260408083209383529290522060118101546012909101549091565b61012e61030e366004613899565b610415565b61012e61032136600461377c565b600160209081526000938452604080852082529284528284209052825290205481565b610357610352366004613822565b611209565b6040519015158152602001610138565b61035761037536600461385a565b61128d565b610357610388366004613822565b61212f565b6103a061039b36600461386c565b612267565b005b6103a06103b036600461385a565b61235f565b6103c86103c3366004613751565b61266f565b604051610138989796959493929190613bec565b6003546101d39060ff1681565b6001600160a01b0382166000908152602081815260408083208484529091529020600201545b92915050565b6000826000610423826129a7565b905084610434565b60405180910390fd5b60408501351580159061044f57506102808501356040860135105b1561046d5760405163f47c54dd60e01b815260040160405180910390fd5b610540604051806102a001604052806000815260200160006001600160a01b0316815260200160006001600160a01b0316815260200160006001600160a01b0316815260200160006001600160a01b0316815260200160006001600160a01b031681526020016000801916815260200160008152602001600081526020016000815260200160008152602001600081526020016000815260200160008152602001600081526020016000815260200160008152602001600081526020016000815260200160008152602001600081525090565b6040516317ba7d8560e01b81527f0d479c38716a0298633b1dbf1ce145a3fbd1d79ca4527de172afc3bad04a2ba760048201526001600160a01b038816906317ba7d859060240160206040518083038186803b15801561059f57600080fd5b505afa1580156105b3573d6000803e3d6000fd5b505050506040513d601f19601f820116820180604052508101906105d79190613735565b6001600160a01b031660208083018290526040805191820181526000825251630966917d60e41b815263966917d091610618918b9130913390600401613da9565b602060405180830381600087803b15801561063257600080fd5b505af1158015610646573d6000803e3d6000fd5b505050506040513d601f19601f8201168201806040525081019061066a9190613735565b6001600160a01b031660a08201526002546106ac9061068890612c33565b6040516020016106989190613bb8565b604051602081830303815290604052612d55565b60c08201526106c160808701606088016137bd565b156107775760006106d860a0880160808901613719565b6001600160a01b031614806106ef575060a0860135155b806107145750600061070961014088016101208901613719565b6001600160a01b0316145b80610721575060e0860135155b1561073f576040516301d0bec760e41b815260040160405180910390fd5b6101c08601351580610759575060a08601356101e0870135115b156107775760405163f224d7d360e01b815260040160405180910390fd5b60c081015160405163b73dc38960e01b815260048101919091526001600160a01b0388169063b73dc38990602401600060405180830381600087803b1580156107bf57600080fd5b505af11580156107d3573d6000803e3d6000fd5b50506040805161010081018252338152815161016081019092529250602080840192508190610804908b018b613719565b6001600160a01b0316815260208a810135908201526040808b0135908201526060908101906108399060808c01908c016137bd565b1515815260200161085060a08b0160808c01613719565b6001600160a01b0316815260a0808b0135602083015260c08b0135604083015260e08b013560608301526101008b01356080830152016108986101408b016101208c01613719565b6001600160a01b031681526020016108b86101608b016101408c01613719565b6001600160a01b0316905281526040805160a0810182526101608a013581526101808a01356020828101919091526101a08b0135828401526101c08b013560608301526101e08b01356080830152830152805161012081018252910190806109286102208b016102008c016138f6565b600181111561094757634e487b7160e01b600052602160045260246000fd5b81526102208a013560208201526102408a013560408201526102608a013560608201526102808a0135608082015260a00161098a6102c08b016102a08c016137bd565b151581526020016109a4368b90038b016102c08c01613912565b81526020016109bb6103808b016103608c016137bd565b151581526020016109d5368b90038b016103808c016139ad565b905281526040805180820182526104608a013581526104808a013560208281019190915283015201600160035460ff166001811115610a2457634e487b7160e01b600052602160045260246000fd5b14610a30576000610a32565b425b8152602001600160035460ff166001811115610a5e57634e487b7160e01b600052602160045260246000fd5b14610a6a576000610b0b565b604051634941d71d60e11b81527fb6be919e1c2ea8efe4d05cbbd5907744b6a7ce982f8d3df2274023e3ba0c152d60048201526001600160a01b038a1690639283ae3a9060240160206040518083038186803b158015610ac957600080fd5b505afa158015610add573d6000803e3d6000fd5b505050506040513d601f19601f82011682018060405250810190610b019190613a4c565b610b0b9042613e38565b8152602001600160035460ff166001811115610b3757634e487b7160e01b600052602160045260246000fd5b14610b43576002610b46565b60005b6006811115610b6557634e487b7160e01b600052602160045260246000fd5b90526001600160a01b0388811660009081526020818152604080832060c087810151855290835292819020855181546001600160a01b0319908116918716919091178255868401518051600180850180548516928a16929092179091558186015160028501558185015160038501556060808301516004860180546080808701516001600160a81b0319909216931515610100600160a81b03191693909317610100918d1682021790915560a0850151600588015598840151600687015560e084015160078701559783015160088601556101208301516009860180548616918b1691909117905561014090920151600a85018054909416981697909717909155868301518051600b84015593840151600c83015591830151600d82015582820151600e8201559190920151600f820155908301518051601083018054939492939092839160ff1916908381811115610cce57634e487b7160e01b600052602160045260246000fd5b021790555060208201516001808301919091556040830151600283015560608301516003808401919091556080840151600484015560a084015160058401805491151560ff1992831617905560c08501518051600686018054929590949193859316918490811115610d5057634e487b7160e01b600052602160045260246000fd5b021790555060208281015182546040808601516001600160a01b0316650100000000000265010000000000600160c81b031963ffffffff90941661010090810294909416610100600160c81b031990931692909217919091178455606085015160018086019190915560809095015160029094019390935560e086015160098601805491151560ff19928316179055908601518051600a870190815592810151600b87015592830151600c8601805494959394919390929190911690836003811115610e2c57634e487b7160e01b600052602160045260246000fd5b0217905550606082015160038201556080808301516004830180546001600160a01b0319166001600160a01b0390921691909117905560a080840151600584015560c0938401516006938401559087015180516021880155602001516022870155860151602386015590850151602485015560e0850151602585018054919450925060ff1916906001908490811115610ed557634e487b7160e01b600052602160045260246000fd5b0217905550505060208082015160c083015160408051938401815260008452516302b0974d60e41b81526001600160a01b0390921692632b0974d092610f21928c929091600401613de7565b600060405180830381600087803b158015610f3b57600080fd5b505af1158015610f4f573d6000803e3d6000fd5b50505060c082015160a08301516040516317ba7d8560e01b81527f0d479c38716a0298633b1dbf1ce145a3fbd1d79ca4527de172afc3bad04a2ba760048201526001600160a01b038b16935063896ae9ba92919084906317ba7d859060240160206040518083038186803b158015610fc657600080fd5b505afa158015610fda573d6000803e3d6000fd5b505050506040513d601f19601f82011682018060405250810190610ffe9190613735565b6040516001600160e01b031960e086901b16815260048101939093526001600160a01b039182166024840152166044820152606401600060405180830381600087803b15801561104d57600080fd5b505af1158015611061573d6000803e3d6000fd5b505050506001600260008282546110789190613e38565b9091555050604051632c9f4b5b60e11b81527fb12a3847d47fefceb164b75823af125f9aa82b76938df0ddf08c04cd314ba37c60048201526001600160a01b0388169063593e96b69060240160206040518083038186803b1580156110dc57600080fd5b505afa1580156110f0573d6000803e3d6000fd5b505050506040513d601f19601f820116820180604052508101906111149190613735565b6001600160a01b03166040820152600060035460ff16600181111561114957634e487b7160e01b600052602160045260246000fd5b14156111b85780604001516001600160a01b031663df1eb6748260c001516040518263ffffffff1660e01b815260040161118591815260200190565b600060405180830381600087803b15801561119f57600080fd5b505af11580156111b3573d6000803e3d6000fd5b505050505b60c0810151604080519182523360208301527fe90bb18a6fc9203e3678a7f41e132910465e0fce1421609662d02c481fbfbcf8910160405180910390a150506112018282612d71565b505092915050565b60405163288c314960e21b81526001600160a01b0382811660048301526000919084169063a230c5249060240160206040518083038186803b15801561124e57600080fd5b505afa158015611262573d6000803e3d6000fd5b505050506040513d601f19601f8201168201806040525081019061128691906137d9565b9392505050565b6000611297613490565b6001600160a01b0384166000908152602081815260408083208684529091529020600160035460ff1660018111156112df57634e487b7160e01b600052602160045260246000fd5b14156112ea57612124565b601281015460e0830152600281015460208301526040516317ba7d8560e01b81527f2207fd6117465cefcba0abc867150698c0464aa41a293ec29ca01b67a6350c3c60048201526001600160a01b038616906317ba7d859060240160206040518083038186803b15801561135d57600080fd5b505afa158015611371573d6000803e3d6000fd5b505050506040513d601f19601f820116820180604052508101906113959190613735565b6001600160a01b039081166060840152604051632c9f4b5b60e11b81527fb12a3847d47fefceb164b75823af125f9aa82b76938df0ddf08c04cd314ba37c60048201529086169063593e96b69060240160206040518083038186803b1580156113fd57600080fd5b505afa158015611411573d6000803e3d6000fd5b505050506040513d601f19601f820116820180604052508101906114359190613735565b6001600160a01b039081166080840152600a820154811660c0840152606083015160405163030bd86760e11b8152878316600482015260248101879052911690630617b0ce9060440160206040518083038186803b15801561149657600080fd5b505afa1580156114aa573d6000803e3d6000fd5b505050506040513d601f19601f820116820180604052508101906114ce9190613735565b6001600160a01b039081166101008401528581166000908152602081815260408083208884529091529020600101541661018083015260e082015142101561152957604051635d68b4f160e01b815260040160405180910390fd5b6040516330490e9160e01b8152600481018590526001600160a01b038616906330490e9190602401600060405180830381600087803b15801561156b57600080fd5b505af115801561157f573d6000803e3d6000fd5b5050604051634941d71d60e11b81527fccf4bb1047cabb77da550bb31bee75254c3f57ec1cfd0ea27fcac549b296120a6004820152606492506001600160a01b0388169150639283ae3a9060240160206040518083038186803b1580156115e557600080fd5b505afa1580156115f9573d6000803e3d6000fd5b505050506040513d601f19601f8201168201806040525081019061161d9190613a4c565b8361010001516001600160a01b03166116369190613e64565b6116409190613e50565b610120830152604051634941d71d60e11b81527fda34ff95e06cbf2c9c32a559cd8aadd1a10104596417d62c03db2c1258df83d360048201526001600160a01b03861690639283ae3a9060240160206040518083038186803b1580156116a557600080fd5b505afa1580156116b9573d6000803e3d6000fd5b505050506040513d601f19601f820116820180604052508101906116dd9190613a4c565b1561177e57604051634941d71d60e11b81527f64c49ee5084f4940c312104c41603e43791b03dad28152afd6eadb5b960a8a8760048201526001600160a01b03861690639283ae3a9060240160206040518083038186803b15801561174157600080fd5b505afa158015611755573d6000803e3d6000fd5b505050506040513d601f19601f820116820180604052508101906117799190613a4c565b61183b565b604051634941d71d60e11b81527f64c49ee5084f4940c312104c41603e43791b03dad28152afd6eadb5b960a8a8760048201526064906001600160a01b03871690639283ae3a9060240160206040518083038186803b1580156117e057600080fd5b505afa1580156117f4573d6000803e3d6000fd5b505050506040513d601f19601f820116820180604052508101906118189190613a4c565b8361010001516001600160a01b03166118319190613e64565b61183b9190613e50565b61014083018190526022820154610160840181905261012084015160208501519192916118689190613e38565b6118729190613e38565b61187c9190613e38565b8261010001516001600160a01b03161061210e5760258101805460ff19166004179055610120820151156119ba5781608001516001600160a01b031663ceb1bfa685876001600160a01b031663fd310d297f69a955ab31f501fa90dd9fe1b664a35d6405d643110370db4655d52ba39422f76040518263ffffffff1660e01b815260040161190c91815260200190565b60206040518083038186803b15801561192457600080fd5b505afa158015611938573d6000803e3d6000fd5b505050506040513d601f19601f8201168201806040525081019061195c9190613735565b8561018001518661012001516040518563ffffffff1660e01b81526004016119879493929190613d22565b600060405180830381600087803b1580156119a157600080fd5b505af11580156119b5573d6000803e3d6000fd5b505050505b61014082015115611ad55781608001516001600160a01b031663ceb1bfa685876001600160a01b031663fd310d297f8987d08c67963e4cacd5e5936c122a968c66853d58299dd822c19422271098396040518263ffffffff1660e01b8152600401611a2791815260200190565b60206040518083038186803b158015611a3f57600080fd5b505afa158015611a53573d6000803e3d6000fd5b505050506040513d601f19601f82011682018060405250810190611a779190613735565b8561018001518661014001516040518563ffffffff1660e01b8152600401611aa29493929190613d22565b600060405180830381600087803b158015611abc57600080fd5b505af1158015611ad0573d6000803e3d6000fd5b505050505b61016082015115611b585760808201518154610180840151610160850151604051636758dfd360e11b81526001600160a01b039485169463ceb1bfa694611b25948b949190921692600401613d22565b600060405180830381600087803b158015611b3f57600080fd5b505af1158015611b53573d6000803e3d6000fd5b505050505b81608001516001600160a01b031663ceb1bfa6858460c001518561018001518661016001518761014001518861012001518961010001516001600160a01b0316611ba29190613e83565b611bac9190613e83565b611bb69190613e83565b6040518563ffffffff1660e01b8152600401611bd59493929190613d22565b600060405180830381600087803b158015611bef57600080fd5b505af1158015611c03573d6000803e3d6000fd5b50505050600481015460ff1615611f6a576006810154610100830151670de0b6b3a764000091611c3b916001600160a01b0316613e50565b611c459190613e64565b60058201819055610200830181905260098201546004830154611c7c9288926001600160a01b039081169261010090041690612d80565b611ca2576025810180546003919060ff19166001835b021790555060009250505061040f565b6102008201516001600160a01b0386811660008181526001602090815260408083208a845282528083206009880154909516835293905282902092909255516317ba7d8560e01b81527fb0326f8dfc913f537596953a938551c86ac8fe0da74c9a8cd0ee660e627dccc860048201526317ba7d859060240160206040518083038186803b158015611d3257600080fd5b505afa158015611d46573d6000803e3d6000fd5b505050506040513d601f19601f82011682018060405250810190611d6a9190613735565b6001600160a01b0390811660a0840152600482810154610100900482166101a08501819052835483166101c08601526040516317ba7d8560e01b81527fb0326f8dfc913f537596953a938551c86ac8fe0da74c9a8cd0ee660e627dccc8928101929092529163095ea7b391908816906317ba7d859060240160206040518083038186803b158015611dfa57600080fd5b505afa158015611e0e573d6000803e3d6000fd5b505050506040513d601f19601f82011682018060405250810190611e329190613735565b6102008501516040516001600160e01b031960e085901b1681526001600160a01b0390921660048301526024820152604401602060405180830381600087803b158015611e7e57600080fd5b505af1158015611e92573d6000803e3d6000fd5b505050506040513d601f19601f82011682018060405250810190611eb691906137d9565b5060a0808301516101a08401516101c08501516040805194850181526102008701518552600b8601546020860152600c86015485820152600d8601546060860152600e860154608086015251632eae6d9960e11b81526001600160a01b0390931693635d5cdb3293611f33938b93909290918b9190600401613d47565b600060405180830381600087803b158015611f4d57600080fd5b505af1158015611f61573d6000803e3d6000fd5b5050505061208d565b6040516317ba7d8560e01b81527fb0326f8dfc913f537596953a938551c86ac8fe0da74c9a8cd0ee660e627dccc860048201526001600160a01b038616906317ba7d859060240160206040518083038186803b158015611fc957600080fd5b505afa158015611fdd573d6000803e3d6000fd5b505050506040513d601f19601f820116820180604052508101906120019190613735565b6001600160a01b0390811660a08401819052604051639a3eb32b60e01b815291871660048301526024820186905290639a3eb32b90604401602060405180830381600087803b15801561205357600080fd5b505af1158015612067573d6000803e3d6000fd5b505050506040513d601f19601f8201168201806040525081019061208b91906137d9565b505b6080820151610100830151604051630224f62b60e31b8152600481018790526001600160a01b039182166024820152911690631127b15890604401600060405180830381600087803b1580156120e257600080fd5b505af11580156120f6573d6000803e3d6000fd5b5050505060258101805460ff19166005179055612124565b6025810180546003919060ff1916600183611c92565b506001949350505050565b60405163fefbd87560e01b81527f67e84d3ef18b24e32f9a9b2e9bac9e7ea8cde2f146ce512d44b9d6718a1f3ca0600482015260009081906001600160a01b0385169063fefbd8759060240160206040518083038186803b15801561219357600080fd5b505afa1580156121a7573d6000803e3d6000fd5b505050506040513d601f19601f820116820180604052508101906121cb9190613735565b90506001600160a01b0381161561225d576040516319a73c8360e31b81526001600160a01b03848116600483015282169063cd39e4189060240160206040518083038186803b15801561221d57600080fd5b505afa158015612231573d6000803e3d6000fd5b505050506040513d601f19601f8201168201806040525081019061225591906137d9565b91505061040f565b5060009392505050565b6040516368c18beb60e01b815233600482015282906001600160a01b038216906368c18beb9060240160206040518083038186803b1580156122a857600080fd5b505afa1580156122bc573d6000803e3d6000fd5b505050506040513d601f19601f820116820180604052508101906122e091906137d9565b806122ef57506122ef81613193565b6123295760405162461bcd60e51b815260206004820152600b60248201526a37b7363ca0b230b83a32b960a91b604482015260640161042b565b6003805483919060ff19166001838181111561235557634e487b7160e01b600052602160045260246000fd5b0217905550505050565b81600061236b826129a7565b6001600160a01b03851660009081526001602090815260408083208784528252808320338452909152902054909150806124065760405162461bcd60e51b815260206004820152603660248201527f466c65782046756e64696e673a3a72657472756e546f6b656e546f417070726f6044820152753b32b91d1d373790333ab732103a37903932ba3ab93760511b606482015260840161042b565b6001600160a01b038581166000908152602081815260408083208884529091529081902060048082015492516370a0823160e01b81523091810191909152909261010090920490911690839082906370a082319060240160206040518083038186803b15801561247557600080fd5b505afa158015612489573d6000803e3d6000fd5b505050506040513d601f19601f820116820180604052508101906124ad9190613a4c565b10156125215760405162461bcd60e51b815260206004820152603760248201527f466c65782046756e64696e673a3a72657472756e546f6b656e546f417070726f60448201527f7665723a3a496e73756666696369656e742046756e6473000000000000000000606482015260840161042b565b6003602583015460ff16600681111561254a57634e487b7160e01b600052602160045260246000fd5b146125b05760405162461bcd60e51b815260206004820152603060248201527f466c65782046756e64696e673a3a72657472756e546f6b656e546f417070726f60448201526f3b32b91d1d31b0b73a103932ba3ab93760811b606482015260840161042b565b6001600160a01b0387811660009081526001602090815260408083208a8452825280832033808552925280832092909255905163a9059cbb60e01b81526004810191909152602481018590529082169063a9059cbb90604401602060405180830381600087803b15801561262357600080fd5b505af1158015612637573d6000803e3d6000fd5b505050506040513d601f19601f8201168201806040525081019061265b91906137d9565b505050506126698282612d71565b50505050565b600060208181529281526040808220845291815281902080548251610160810184526001808401546001600160a01b039081168352600285015483880152600385015483870152600485015460ff8082161515606080870191909152610100928390048416608080880191909152600589015460a08089019190915260068a015460c089015260078a015460e089015260088a0154948801949094526009890154851661012080890191909152600a8a015486166101408901528a519485018b52600b8a01548552600c8a01549b85019b909b52600d890154848b0152600e89015491840191909152600f880154908301528751988901909752601086018054929095169793969095949284929091169081111561279d57634e487b7160e01b600052602160045260246000fd5b60018111156127bc57634e487b7160e01b600052602160045260246000fd5b8152602001600182015481526020016002820154815260200160038201548152602001600482015481526020016005820160009054906101000a900460ff16151515158152602001600682016040518060a00160405290816000820160009054906101000a900460ff16600381111561284557634e487b7160e01b600052602160045260246000fd5b600381111561286457634e487b7160e01b600052602160045260246000fd5b81528154610100810463ffffffff16602080840191909152650100000000009091046001600160a01b031660408084019190915260018401546060840152600290930154608090920191909152918352600984015460ff908116151584840152815160e081018352600a860180548252600b87015494820194909452600c8601549483019490939284019116600381111561290f57634e487b7160e01b600052602160045260246000fd5b600381111561292e57634e487b7160e01b600052602160045260246000fd5b8152600382015460208083019190915260048301546001600160a01b03166040808401919091526005840154606084015260069093015460809092019190915291909252815180830190925260218501548252602285015490820152602384015460248501546025909501549394919390925060ff1688565b6040805160808101825260008082526020820181905291810182905260608101919091525a81600001818152505043826001600160a01b031663b21634826040518163ffffffff1660e01b815260040160206040518083038186803b158015612a0f57600080fd5b505afa158015612a23573d6000803e3d6000fd5b505050506040513d601f19601f82011682018060405250810190612a479190613a4c565b1415612a885760405162461bcd60e51b815260206004820152601060248201526f1c99595b9d1c985b98de4819dd585c9960821b604482015260640161042b565b816001600160a01b03166310fdb0a26040518163ffffffff1660e01b8152600401600060405180830381600087803b158015612ac357600080fd5b505af1158015612ad7573d6000803e3d6000fd5b50506040516372c6838f60e01b81527f1f2fd42ad6a6cacd573c4b212beb7a4e2499ad45d742a65337097f130e71daff6004820152600092506001600160a01b03851691506372c6838f9060240160206040518083038186803b158015612b3d57600080fd5b505afa158015612b51573d6000803e3d6000fd5b505050506040513d601f19601f82011682018060405250810190612b759190613735565b90506001600160a01b038116612b915760006020830152612c2d565b6001600160a01b038181166060840181905283516040516343a8a3f160e01b8152928616600484015260248301526000918291906343a8a3f190604401604080518083038186803b158015612be557600080fd5b505afa158015612bf9573d6000803e3d6000fd5b505050506040513d601f19601f82011682018060405250810190612c1d91906137f5565b9015156020860152604085015250505b50919050565b606081612c575750506040805180820190915260018152600360fc1b602082015290565b8160005b8115612c815780612c6b81613ec6565b9150612c7a9050600a83613e50565b9150612c5b565b60008167ffffffffffffffff811115612caa57634e487b7160e01b600052604160045260246000fd5b6040519080825280601f01601f191660200182016040528015612cd4576020820181803683370190505b5090505b8415612d4d57612ce9600183613e83565b9150612cf6600a86613ee1565b612d01906030613e38565b60f81b818381518110612d2457634e487b7160e01b600052603260045260246000fd5b60200101906001600160f81b031916908160001a905350612d46600a86613e50565b9450612cd8565b949350505050565b6000815160001415612d6957506000919050565b506020015190565b612d7c82823361339a565b5050565b6040516370a0823160e01b81526001600160a01b03848116600483015260009184918491908316906370a082319060240160206040518083038186803b158015612dc957600080fd5b505afa158015612ddd573d6000803e3d6000fd5b505050506040513d601f19601f82011682018060405250810190612e019190613a4c565b1080612e8c5750604051636eb1769f60e11b81526001600160a01b03868116600483015230602483015284919083169063dd62ed3e9060440160206040518083038186803b158015612e5257600080fd5b505afa158015612e66573d6000803e3d6000fd5b505050506040513d601f19601f82011682018060405250810190612e8a9190613a4c565b105b15612e9b576000915050612d4d565b6000816001600160a01b031663dd62ed3e30896001600160a01b03166317ba7d857f71c8887ab5df33af0f26db43a2e569d7268b592b16c505d22229eabd80eb8f366040518263ffffffff1660e01b8152600401612efb91815260200190565b60206040518083038186803b158015612f1357600080fd5b505afa158015612f27573d6000803e3d6000fd5b505050506040513d601f19601f82011682018060405250810190612f4b9190613735565b6040516001600160e01b031960e085901b1681526001600160a01b0392831660048201529116602482015260440160206040518083038186803b158015612f9157600080fd5b505afa158015612fa5573d6000803e3d6000fd5b505050506040513d601f19601f82011682018060405250810190612fc99190613a4c565b90506000612fd78583613e38565b6040516317ba7d8560e01b81527f71c8887ab5df33af0f26db43a2e569d7268b592b16c505d22229eabd80eb8f3660048201529091506001600160a01b038085169163095ea7b3918b16906317ba7d859060240160206040518083038186803b15801561304357600080fd5b505afa158015613057573d6000803e3d6000fd5b505050506040513d601f19601f8201168201806040525081019061307b9190613735565b6040516001600160e01b031960e084901b1681526001600160a01b03909116600482015260248101849052604401602060405180830381600087803b1580156130c357600080fd5b505af11580156130d7573d6000803e3d6000fd5b505050506040513d601f19601f820116820180604052508101906130fb91906137d9565b506040516323b872dd60e01b81526001600160a01b038881166004830152306024830152604482018790528416906323b872dd90606401602060405180830381600087803b15801561314c57600080fd5b505af1158015613160573d6000803e3d6000fd5b505050506040513d601f19601f8201168201806040525081019061318491906137d9565b50600198975050505050505050565b600080826001600160a01b031663c19d93fb6040518163ffffffff1660e01b815260040160206040518083038186803b1580156131cf57600080fd5b505afa1580156131e3573d6000803e3d6000fd5b505050506040513d601f19601f8201168201806040525081019061320791906138da565b600181111561322657634e487b7160e01b600052602160045260246000fd5b14801561040f5750816001600160a01b031663c67143666040518163ffffffff1660e01b815260040160206040518083038186803b15801561326757600080fd5b505afa15801561327b573d6000803e3d6000fd5b505050506040513d601f19601f8201168201806040525081019061329f9190613a4c565b158061331d575060405163288c314960e21b81523360048201526001600160a01b0383169063a230c5249060240160206040518083038186803b1580156132e557600080fd5b505afa1580156132f9573d6000803e3d6000fd5b505050506040513d601f19601f8201168201806040525081019061331d91906137d9565b8061040f57506040516368c18beb60e01b81523360048201526001600160a01b038316906368c18beb9060240160206040518083038186803b15801561336257600080fd5b505afa158015613376573d6000803e3d6000fd5b505050506040513d601f19601f8201168201806040525081019061040f91906137d9565b8160200151156134385781606001516001600160a01b0316635e5eb01384835a86516133c69190613e83565b60408088015190516001600160e01b031960e087901b1681526001600160a01b03948516600482015293909216602484015260448301526064820152608401600060405180830381600087803b15801561341f57600080fd5b505af1158015613433573d6000803e3d6000fd5b505050505b826001600160a01b031663d4f7af436040518163ffffffff1660e01b8152600401600060405180830381600087803b15801561347357600080fd5b505af1158015613487573d6000803e3d6000fd5b50505050505050565b6040518061022001604052806134a4613523565b815260006020820181905260408201819052606082018190526080820181905260a0820181905260c0820181905260e08201819052610100820181905261012082018190526101408201819052610160820181905261018082018190526101a082018190526101c082018190526101e082018190526102009091015290565b60408051610100808201835260008083528351610160810185528181526020818101839052948101829052606081018290526080810182905260a0810182905260c0810182905260e081018290529182018190526101208201819052610140820152909182019081526020016135c16040518060a0016040528060008152602001600081526020016000815260200160008152602001600081525090565b81526020016135ce613629565b81526020016135f0604051806040016040528060008152602001600081525090565b815260200160008152602001600081526020016000600681111561362457634e487b7160e01b600052602160045260246000fd5b905290565b6040805161012081019091528060008152602001600081526020016000815260200160008152602001600081526020016000151581526020016136956040805160a081019091528060008152600060208201819052604082018190526060820181905260809091015290565b8152600060208201526040016136246040518060e001604052806000815260200160008152602001600060038111156136de57634e487b7160e01b600052602160045260246000fd5b81526020016000815260200160006001600160a01b0316815260200160008152602001600081525090565b803561371481613f5a565b919050565b60006020828403121561372a578081fd5b813561128681613f5a565b600060208284031215613746578081fd5b815161128681613f5a565b60008060408385031215613763578081fd5b823561376e81613f5a565b946020939093013593505050565b600080600060608486031215613790578081fd5b833561379b81613f5a565b92506020840135915060408401356137b281613f5a565b809150509250925092565b6000602082840312156137ce578081fd5b813561128681613f6f565b6000602082840312156137ea578081fd5b815161128681613f6f565b60008060408385031215613807578182fd5b825161381281613f6f565b6020939093015192949293505050565b60008060408385031215613834578182fd5b823561383f81613f5a565b9150602083013561384f81613f5a565b809150509250929050565b60008060408385031215613763578182fd5b6000806040838503121561387e578182fd5b823561388981613f5a565b9150602083013561384f81613f8a565b6000808284036104c08112156138ad578283fd5b83356138b881613f5a565b92506104a0601f19820112156138cc578182fd5b506020830190509250929050565b6000602082840312156138eb578081fd5b815161128681613f8a565b600060208284031215613907578081fd5b813561128681613f8a565b600060a08284031215613923578081fd5b60405160a0810181811067ffffffffffffffff8211171561395257634e487b7160e01b83526041600452602483fd5b604052823561396081613f7d565b8152602083013563ffffffff81168114613978578283fd5b6020820152604083013561398b81613f5a565b6040820152606083810135908201526080928301359281019290925250919050565b600060e082840312156139be578081fd5b60405160e0810181811067ffffffffffffffff821117156139ed57634e487b7160e01b83526041600452602483fd5b806040525082358152602083013560208201526040830135613a0e81613f7d565b604082015260608381013590820152613a2960808401613709565b608082015260a083013560a082015260c083013560c08201528091505092915050565b600060208284031215613a5d578081fd5b5051919050565b60008151808452613a7c816020860160208601613e9a565b601f01601f19169290920160200192915050565b60078110613aa057613aa0613f21565b9052565b8051613aaf81613f37565b825260208181015163ffffffff16908301526040808201516001600160a01b03169083015260608082015190830152608090810151910152565b8051613af481613f4a565b808352506020810151602083015260408101516040830152606081015160608301526080810151608083015260a0810151151560a083015260c0810151613b3e60c0840182613aa4565b5060e08101511515610160830152610100810151613b60610180840182613b65565b505050565b80518252602081015160208301526040810151613b8181613f37565b6040830152606081810151908301526080808201516001600160a01b03169083015260a0808201519083015260c090810151910152565b6b466c657846756e64696e672360a01b815260008251613bdf81600c850160208701613e9a565b91909101600c0192915050565b6001600160a01b0389811682528851166020820152610520810160208901516040830152604089015160608301526060890151613c2d608084018215159052565b5060808901516001600160a01b03811660a08401525060a089015160c083015260c089015160e083015260e08901516101008181850152808b01519150506101208181850152808b0151915050610140613c91818501836001600160a01b03169052565b8a01516001600160a01b031661016084015250875161018083015260208801516101a083015260408801516101c083015260608801516101e08301526080880151610200830152613ce6610220830188613ae9565b855161048083015260208601516104a0830152846104c0830152836104e0830152613d15610500830184613a90565b9998505050505050505050565b9384526001600160a01b03928316602085015291166040830152606082015260800190565b6001600160a01b03868116825285811660208084019190915290851660408301526060820184905261012082019060808301908460005b6005811015613d9b57815184529282019290820190600101613d7e565b505050509695505050505050565b600060018060a01b038087168352808616602084015260806040840152613dd36080840186613a64565b915080841660608401525095945050505050565b60018060a01b0384168152826020820152606060408201526000613e0e6060830184613a64565b95945050505050565b60208101613e2483613f4a565b91905290565b6020810161040f8284613a90565b60008219821115613e4b57613e4b613ef5565b500190565b600082613e5f57613e5f613f0b565b500490565b6000816000190483118215151615613e7e57613e7e613ef5565b500290565b600082821015613e9557613e95613ef5565b500390565b60005b83811015613eb5578181015183820152602001613e9d565b838111156126695750506000910152565b6000600019821415613eda57613eda613ef5565b5060010190565b600082613ef057613ef0613f0b565b500690565b634e487b7160e01b600052601160045260246000fd5b634e487b7160e01b600052601260045260246000fd5b634e487b7160e01b600052602160045260246000fd5b60048110613f4757613f47613f21565b50565b60028110613f4757613f47613f21565b6001600160a01b0381168114613f4757600080fd5b8015158114613f4757600080fd5b60048110613f4757600080fd5b60028110613f4757600080fdfea26469706673582212203dfe79ed255d3490bb14994d61cab2176e87390c6c52e3657928613a34c4443464736f6c63430008040033",
  "linkReferences": {},
  "deployedLinkReferences": {}
}