{
  "_format": "hh-sol-artifact-1",
  "contractName": "FundRaiseAdapterContract",
  "sourceName": "contracts/adapters/FundRaise.sol",
  "abi": [
    {
      "anonymous": false,
      "inputs": [
        {
          "indexed": false,
          "internalType": "bytes32",
          "name": "proposalId",
          "type": "bytes32"
        },
        {
          "indexed": false,
          "internalType": "address",
          "name": "acceptTokenAddr",
          "type": "address"
        },
        {
          "indexed": false,
          "internalType": "uint256",
          "name": "fundRaiseTarget",
          "type": "uint256"
        },
        {
          "indexed": false,
          "internalType": "uint256",
          "name": "fundRaiseMaxAmount",
          "type": "uint256"
        },
        {
          "indexed": false,
          "internalType": "uint256",
          "name": "lpMinDepositAmount",
          "type": "uint256"
        },
        {
          "indexed": false,
          "internalType": "uint256",
          "name": "lpMaxDepositAmount",
          "type": "uint256"
        },
        {
          "indexed": false,
          "internalType": "uint256",
          "name": "fundRaiseStartTime",
          "type": "uint256"
        },
        {
          "indexed": false,
          "internalType": "uint256",
          "name": "fundRaiseEndTime",
          "type": "uint256"
        },
        {
          "indexed": false,
          "internalType": "uint256",
          "name": "fundEndTime",
          "type": "uint256"
        },
        {
          "indexed": false,
          "internalType": "uint256",
          "name": "redemptPeriod",
          "type": "uint256"
        },
        {
          "indexed": false,
          "internalType": "uint256",
          "name": "redemptDuration",
          "type": "uint256"
        },
        {
          "indexed": false,
          "internalType": "enum IFundRaise.ProposalState",
          "name": "state",
          "type": "uint8"
        }
      ],
      "name": "ProposalCreated",
      "type": "event"
    },
    {
      "anonymous": false,
      "inputs": [
        {
          "indexed": false,
          "internalType": "bytes32",
          "name": "proposalId",
          "type": "bytes32"
        },
        {
          "indexed": false,
          "internalType": "enum IFundRaise.ProposalState",
          "name": "state",
          "type": "uint8"
        }
      ],
      "name": "proposalExecuted",
      "type": "event"
    },
    {
      "inputs": [
        {
          "internalType": "address",
          "name": "",
          "type": "address"
        },
        {
          "internalType": "bytes32",
          "name": "",
          "type": "bytes32"
        }
      ],
      "name": "Proposals",
      "outputs": [
        {
          "internalType": "address",
          "name": "acceptTokenAddr",
          "type": "address"
        },
        {
          "internalType": "uint256",
          "name": "fundRaiseTarget",
          "type": "uint256"
        },
        {
          "internalType": "uint256",
          "name": "fundRaiseMaxAmount",
          "type": "uint256"
        },
        {
          "internalType": "uint256",
          "name": "lpMinDepositAmount",
          "type": "uint256"
        },
        {
          "internalType": "uint256",
          "name": "lpMaxDepositAmount",
          "type": "uint256"
        },
        {
          "components": [
            {
              "internalType": "uint256",
              "name": "fundRaiseStartTime",
              "type": "uint256"
            },
            {
              "internalType": "uint256",
              "name": "fundRaiseEndTime",
              "type": "uint256"
            },
            {
              "internalType": "uint256",
              "name": "fundTerm",
              "type": "uint256"
            },
            {
              "internalType": "uint256",
              "name": "redemptPeriod",
              "type": "uint256"
            },
            {
              "internalType": "uint256",
              "name": "redemptDuration",
              "type": "uint256"
            },
            {
              "internalType": "uint256",
              "name": "returnDuration",
              "type": "uint256"
            }
          ],
          "internalType": "struct IFundRaise.FundRiaseTimeInfo",
          "name": "timesInfo",
          "type": "tuple"
        },
        {
          "components": [
            {
              "internalType": "uint256",
              "name": "proposerRewardRatio",
              "type": "uint256"
            },
            {
              "internalType": "uint256",
              "name": "managementFeeRatio",
              "type": "uint256"
            },
            {
              "internalType": "uint256",
              "name": "redepmtFeeRatio",
              "type": "uint256"
            },
            {
              "internalType": "uint256",
              "name": "protocolFeeRatio",
              "type": "uint256"
            },
            {
              "internalType": "address",
              "name": "managementFeeAddress",
              "type": "address"
            }
          ],
          "internalType": "struct IFundRaise.FundRaiseRewardAndFeeInfo",
          "name": "feeInfo",
          "type": "tuple"
        },
        {
          "internalType": "enum IFundRaise.ProposalState",
          "name": "state",
          "type": "uint8"
        }
      ],
      "stateMutability": "view",
      "type": "function"
    },
    {
      "inputs": [
        {
          "internalType": "contract DaoRegistry",
          "name": "dao",
          "type": "address"
        },
        {
          "internalType": "address",
          "name": "_addr",
          "type": "address"
        }
      ],
      "name": "isActiveGeneralPartner",
      "outputs": [
        {
          "internalType": "bool",
          "name": "",
          "type": "bool"
        }
      ],
      "stateMutability": "view",
      "type": "function"
    },
    {
      "inputs": [
        {
          "internalType": "contract DaoRegistry",
          "name": "dao",
          "type": "address"
        },
        {
          "internalType": "address",
          "name": "_addr",
          "type": "address"
        }
      ],
      "name": "isActiveMember",
      "outputs": [
        {
          "internalType": "bool",
          "name": "",
          "type": "bool"
        }
      ],
      "stateMutability": "view",
      "type": "function"
    },
    {
      "inputs": [],
      "name": "latestProposalId",
      "outputs": [
        {
          "internalType": "bytes32",
          "name": "",
          "type": "bytes32"
        }
      ],
      "stateMutability": "view",
      "type": "function"
    },
    {
      "inputs": [],
      "name": "previousProposalId",
      "outputs": [
        {
          "internalType": "bytes32",
          "name": "",
          "type": "bytes32"
        }
      ],
      "stateMutability": "view",
      "type": "function"
    },
    {
      "inputs": [
        {
          "internalType": "contract DaoRegistry",
          "name": "dao",
          "type": "address"
        },
        {
          "internalType": "bytes32",
          "name": "proposalId",
          "type": "bytes32"
        }
      ],
      "name": "processProposal",
      "outputs": [],
      "stateMutability": "nonpayable",
      "type": "function"
    },
    {
      "inputs": [],
      "name": "proposalIds",
      "outputs": [
        {
          "internalType": "uint256",
          "name": "",
          "type": "uint256"
        }
      ],
      "stateMutability": "view",
      "type": "function"
    },
    {
      "inputs": [
        {
          "internalType": "contract DaoRegistry",
          "name": "dao",
          "type": "address"
        },
        {
          "internalType": "uint256[]",
          "name": "_uint256ArgsProposal",
          "type": "uint256[]"
        },
        {
          "internalType": "uint256[]",
          "name": "_uint256ArgsTimeInfo",
          "type": "uint256[]"
        },
        {
          "internalType": "uint256[]",
          "name": "_uint256ArgsFeeInfo",
          "type": "uint256[]"
        },
        {
          "internalType": "address[]",
          "name": "_addressArgs",
          "type": "address[]"
        }
      ],
      "name": "submitProposal",
      "outputs": [],
      "stateMutability": "nonpayable",
      "type": "function"
    }
  ],
  "bytecode": "0x6080604052620186b460015534801561001757600080fd5b50613022806100276000396000f3fe608060405234801561001057600080fd5b50600436106100885760003560e01c80639864e6ef1161005b5780639864e6ef146100ea578063a5254bc0146100f3578063b0bdf6cb14610106578063bf4999941461011957600080fd5b80633d5af2ed1461008d5780637f0edf33146100a95780638ecf7720146100b25780639573167d146100d5575b600080fd5b61009660015481565b6040519081526020015b60405180910390f35b61009660025481565b6100c56100c0366004612b42565b610213565b60405190151581526020016100a0565b6100e86100e3366004612c4e565b610299565b005b61009660035481565b6100c5610101366004612b42565b6108cd565b6100e8610114366004612b7a565b610a05565b6101ff610127366004612ad2565b600060208181529281526040808220845291815281902080546001820154600283015460038401546004850154865160c081018852600587015481526006870154818a015260078701548189015260088701546060808301919091526009880154608080840191909152600a89015460a0808501919091528a519081018b52600b8a01548152600c8a01549b81019b909b52600d890154998b0199909952600e880154908a0152600f8701546001600160a01b03908116988a0198909852601090960154969094169692959194909392909160ff1688565b6040516100a0989796959493929190612d59565b60405163288c314960e21b81526001600160a01b0382811660048301526000919084169063a230c5249060240160206040518083038186803b15801561025857600080fd5b505afa15801561026c573d6000803e3d6000fd5b505050506040513d601f19601f820116820180604052508101906102909190612afd565b90505b92915050565b8160006102a582611986565b90506102af612908565b6001600160a01b038086166000908152602081815260408083208884528252918290208251610100810184528154851681526001820154818401526002820154818501526003808301546060808401919091526004840154608080850191909152865160c08082018952600587015482526006870154828901526007870154828a0152600887015482850152600987015482840152600a87015460a0838101919091528087019290925288519182018952600b8701548252600c87015497820197909752600d86015497810197909752600e85015491870191909152600f84015490961695850195909552918201929092526010820154909260e084019160ff16908111156103ce57634e487b7160e01b600052602160045260246000fd5b60038111156103ed57634e487b7160e01b600052602160045260246000fd5b9052506101208201526040516330490e9160e01b8152600481018590526001600160a01b038616906330490e9190602401600060405180830381600087803b15801561043857600080fd5b505af115801561044c573d6000803e3d6000fd5b50506040516317ba7d8560e01b81527ff26d4834b4a91110d15379eda333e30be707af3a839ee5dbd668b89e4c6c6f6f60048201526001600160a01b03881692506317ba7d85915060240160206040518083038186803b1580156104af57600080fd5b505afa1580156104c3573d6000803e3d6000fd5b505050506040513d601f19601f820116820180604052508101906104e79190612ab6565b6001600160a01b03908116608083015260405163206f381f60e11b815260048101869052908616906340de703e9060240160206040518083038186803b15801561053057600080fd5b505afa158015610544573d6000803e3d6000fd5b505050506040513d601f19601f820116820180604052508101906105689190612ab6565b6001600160a01b0316602082018190526105e65760405162461bcd60e51b815260206004820152603460248201527f46756e6452616973653a3a70726f6365737350726f706f73616c3a3a766f74696044820152731b99c81859185c1d195c881b9bdd08199bdd5b9960621b60648201526084015b60405180910390fd5b60208101516040516376225e7360e01b81526001600160a01b03878116600483015260248201879052909116906376225e739060440160606040518083038186803b15801561063457600080fd5b505afa158015610648573d6000803e3d6000fd5b505050506040513d601f19601f8201168201806040525081019061066c9190612c7f565b6001600160801b0380821660e0860152821660c085015260a084018360058111156106a757634e487b7160e01b600052602160045260246000fd5b60058111156106c657634e487b7160e01b600052602160045260246000fd5b905250600291506106d49050565b8160a0015160058111156106f857634e487b7160e01b600052602160045260246000fd5b14156107af5761012081018051600160e09091015251610719908690611c12565b608081015160405163f10e6b6b60e01b81526001600160a01b0387811660048301529091169063f10e6b6b90602401600060405180830381600087803b15801561076257600080fd5b505af1158015610776573d6000803e3d6000fd5b5050505061012081015160e00160025b908160038111156107a757634e487b7160e01b600052602160045260246000fd5b90525061087a565b60038160a0015160058111156107d557634e487b7160e01b600052602160045260246000fd5b1480610804575060018160a00151600581111561080257634e487b7160e01b600052602160045260246000fd5b145b156108195761012081015160e0016003610786565b60405162461bcd60e51b815260206004820152603060248201527f46756e6452616973653a3a70726f6365737350726f706f73616c3a3a766f746960448201526f1b99c81b9bdd08199a5b985b1a5e995960821b60648201526084016105dd565b7f27198c382b573506c4d2057ce466693536391d4bece516d0db1d2c189fee8c1d8482610120015160e001516040516108b4929190612e81565b60405180910390a1506108c7828261267a565b50505050565b60405163fefbd87560e01b81527f67e84d3ef18b24e32f9a9b2e9bac9e7ea8cde2f146ce512d44b9d6718a1f3ca0600482015260009081906001600160a01b0385169063fefbd8759060240160206040518083038186803b15801561093157600080fd5b505afa158015610945573d6000803e3d6000fd5b505050506040513d601f19601f820116820180604052508101906109699190612ab6565b90506001600160a01b038116156109fb576040516319a73c8360e31b81526001600160a01b03848116600483015282169063cd39e4189060240160206040518083038186803b1580156109bb57600080fd5b505afa1580156109cf573d6000803e3d6000fd5b505050506040513d601f19601f820116820180604052508101906109f39190612afd565b915050610293565b5060009392505050565b886000610a1182611986565b90508a610a1e8133612689565b610af1604051806102a001604052806000815260200160006001600160a01b0316815260200160006001600160a01b0316815260200160006001600160a01b0316815260200160006001600160a01b0316815260200160008019168152602001600081526020016000815260200160008152602001600081526020016000815260200160008152602001600081526020016000815260200160008152602001600081526020016000815260200160008152602001600081526020016000815260200160006001600160a01b031681525090565b604051634941d71d60e11b81527f9ce69cf04065e3c7823cc5540c0598d8a694bd7a9a5a2a786d8bccf14ed6e2ea60048201526001600160a01b038e1690639283ae3a9060240160206040518083038186803b158015610b5057600080fd5b505afa158015610b64573d6000803e3d6000fd5b505050506040513d601f19601f82011682018060405250810190610b889190612cc6565b8152604051634941d71d60e11b81527fb0d4178853a5320a41f8c55fa6d58af06637e392beff71e66dba4e8f32c39bb860048201526001600160a01b038e1690639283ae3a9060240160206040518083038186803b158015610be957600080fd5b505afa158015610bfd573d6000803e3d6000fd5b505050506040513d601f19601f82011682018060405250810190610c219190612cc6565b6101e08201526040516317ba7d8560e01b81527ff26d4834b4a91110d15379eda333e30be707af3a839ee5dbd668b89e4c6c6f6f60048201526001600160a01b038e16906317ba7d859060240160206040518083038186803b158015610c8657600080fd5b505afa158015610c9a573d6000803e3d6000fd5b505050506040513d601f19601f82011682018060405250810190610cbe9190612ab6565b6001600160a01b031661028082015260028161028001516001600160a01b0316633d7a54426040518163ffffffff1660e01b815260040160206040518083038186803b158015610d0d57600080fd5b505afa158015610d21573d6000803e3d6000fd5b505050506040513d601f19601f82011682018060405250810190610d459190612c60565b6002811115610d6457634e487b7160e01b600052602160045260246000fd5b1480610e1f575060018161028001516001600160a01b0316633d7a54426040518163ffffffff1660e01b815260040160206040518083038186803b158015610dab57600080fd5b505afa158015610dbf573d6000803e3d6000fd5b505050506040513d601f19601f82011682018060405250810190610de39190612c60565b6002811115610e0257634e487b7160e01b600052602160045260246000fd5b148015610e1f57506101e08101518151610e1c9190612f0a565b42115b610e915760405162461bcd60e51b815260206004820152603e60248201527f46756e6452616973653a3a7375626d697450726f706f73616c3a3a63616e742060448201527f7375626d69742066756e642072616973652070726f706f73616c206e6f77000060648201526084016105dd565b60048b148015610ea15750600689145b8015610ead5750600487145b8015610eb95750600285145b610f215760405162461bcd60e51b815260206004820152603360248201527f46756e6452616973653a3a7375626d697450726f706f73616c3a3a696e76616c60448201527234b2103830b930b6b2ba32b910373ab6b132b960691b60648201526084016105dd565b85856000818110610f4257634e487b7160e01b600052603260045260246000fd5b9050602002016020810190610f579190612a93565b6001600160a01b0316606082015285856001818110610f8657634e487b7160e01b600052603260045260246000fd5b9050602002016020810190610f9b9190612a93565b6001600160a01b031660408201528b8b600081610fc857634e487b7160e01b600052603260045260246000fd5b602002919091013560c0830152508b8b6001818110610ff757634e487b7160e01b600052603260045260246000fd5b602002919091013560e0830152508b8b600281811061102657634e487b7160e01b600052603260045260246000fd5b6020029190910135610100830152508b8b600381811061105657634e487b7160e01b600052603260045260246000fd5b602002919091013561012083015250898960008161108457634e487b7160e01b600052603260045260246000fd5b602002919091013561014083015250898960018181106110b457634e487b7160e01b600052603260045260246000fd5b602002919091013561016083015250898960028181106110e457634e487b7160e01b600052603260045260246000fd5b6020029190910135610180830152508989600381811061111457634e487b7160e01b600052603260045260246000fd5b60200291909101356101a0830152508989600481811061114457634e487b7160e01b600052603260045260246000fd5b60200291909101356101c0830152508989600581811061117457634e487b7160e01b600052603260045260246000fd5b60200291909101356101e08301525087876000816111a257634e487b7160e01b600052603260045260246000fd5b602002919091013561020083015250878760018181106111d257634e487b7160e01b600052603260045260246000fd5b6020029190910135610220830152508787600281811061120257634e487b7160e01b600052603260045260246000fd5b6020029190910135610240830152508787600381811061123257634e487b7160e01b600052603260045260246000fd5b60200291909101356102608301525060c08101511580159061125b57508060c001518160e00151115b801561126c57506000816101000151115b80156112815750806101000151816101200151115b801561129257506000816101400151115b80156112a75750806101400151816101600151115b80156112b857506000816101800151115b80156112c957506000816101a00151115b80156112da57506000816101c00151115b80156112eb57506064816102000151105b80156112f5575060015b801561130657506064816102200151105b8015611310575060015b801561132157506064816102400151105b801561132b575060015b801561133c57506064816102600151105b8015611346575060015b6113a75760405162461bcd60e51b815260206004820152602c60248201527f46756e6452616973653a3a7375626d697450726f706f73616c3a3a696e76616c60448201526b34b2103830b930b6b2ba32b960a11b60648201526084016105dd565b6040516317ba7d8560e01b81527f0272405e7a7e2834b06b48bd0de471bbb4d8400020ec22f05b6fc30ffddb34a860048201526001600160a01b038e16906317ba7d859060240160206040518083038186803b15801561140657600080fd5b505afa15801561141a573d6000803e3d6000fd5b505050506040513d601f19601f8201168201806040525081019061143e9190612ab6565b81602001906001600160a01b031690816001600160a01b03168152505080602001516001600160a01b031663966917d08e3060405180602001604052806000815250336040518563ffffffff1660e01b81526004016114a09493929190612e95565b602060405180830381600087803b1580156114ba57600080fd5b505af11580156114ce573d6000803e3d6000fd5b505050506040513d601f19601f820116820180604052508101906114f29190612ab6565b6001600160a01b0316608082015260015461153490611510906126d4565b6040516020016115209190612d2c565b6040516020818303038152906040526127f6565b60a0820181905260405163b73dc38960e01b815260048101919091526001600160a01b038e169063b73dc38990602401600060405180830381600087803b15801561157e57600080fd5b505af1158015611592573d6000803e3d6000fd5b5050505060405180610100016040528082604001516001600160a01b031681526020018260c0015181526020018260e001518152602001826101000151815260200182610120015181526020016040518060c00160405280846101400151815260200184610160015181526020018461018001518152602001846101a001518152602001846101c001518152602001846101e0015181525081526020016040518060a00160405280846102000151815260200184610220015181526020018461024001518152602001846102600151815260200184606001516001600160a01b031681525081526020016000600381111561169d57634e487b7160e01b600052602160045260246000fd5b90526001600160a01b03808f1660009081526020818152604080832060a080880151855290835292819020855181549086166001600160a01b0319918216178255868401516001808401919091558784015160028401556060808901516003808601919091556080808b015160048701558a8901518051600588015580890151600688015580880151600788015580840151600888015580820151600988015590980151600a86015560c08a01518051600b87015596870151600c86015594860151600d850155850151600e8401559390940151600f820180549190961694169390931790935560e084015160108301805493949193909260ff199091169184908111156117bb57634e487b7160e01b600052602160045260246000fd5b021790555090505080602001516001600160a01b03166326078cd08e8360a0015142604051806020016040528060008152506040518563ffffffff1660e01b815260040161180c9493929190612ed3565b600060405180830381600087803b15801561182657600080fd5b505af115801561183a573d6000803e3d6000fd5b50505060a0820151608083015160208401516040516344b574dd60e11b815260048101939093526001600160a01b039182166024840152811660448301528f16915063896ae9ba90606401600060405180830381600087803b15801561189f57600080fd5b505af11580156118b3573d6000803e3d6000fd5b5050505060018060008282546118c99190612f0a565b90915550506002805460035560a082015190819055604082015160c083015160e08401516101008501516101208601516101408701516101608801516101808901517fd37995233713a8d21d6354d4ddd81ff8143fad422704d4334df3d5a43f0899eb98979695949392919061193f9082612f0a565b8a6101a001518b6101c0015160006040516119659c9b9a99989796959493929190612e0f565b60405180910390a15050611979828261267a565b5050505050505050505050565b6040805160808101825260008082526020820181905291810182905260608101919091525a81600001818152505043826001600160a01b031663b21634826040518163ffffffff1660e01b815260040160206040518083038186803b1580156119ee57600080fd5b505afa158015611a02573d6000803e3d6000fd5b505050506040513d601f19601f82011682018060405250810190611a269190612cc6565b1415611a675760405162461bcd60e51b815260206004820152601060248201526f1c99595b9d1c985b98de4819dd585c9960821b60448201526064016105dd565b816001600160a01b03166310fdb0a26040518163ffffffff1660e01b8152600401600060405180830381600087803b158015611aa257600080fd5b505af1158015611ab6573d6000803e3d6000fd5b50506040516372c6838f60e01b81527f1f2fd42ad6a6cacd573c4b212beb7a4e2499ad45d742a65337097f130e71daff6004820152600092506001600160a01b03851691506372c6838f9060240160206040518083038186803b158015611b1c57600080fd5b505afa158015611b30573d6000803e3d6000fd5b505050506040513d601f19601f82011682018060405250810190611b549190612ab6565b90506001600160a01b038116611b705760006020830152611c0c565b6001600160a01b038181166060840181905283516040516343a8a3f160e01b8152928616600484015260248301526000918291906343a8a3f190604401604080518083038186803b158015611bc457600080fd5b505afa158015611bd8573d6000803e3d6000fd5b505050506040513d601f19601f82011682018060405250810190611bfc9190612b17565b9015156020860152604085015250505b50919050565b6040516317ba7d8560e01b81527ff26d4834b4a91110d15379eda333e30be707af3a839ee5dbd668b89e4c6c6f6f60048201526000906001600160a01b038416906317ba7d859060240160206040518083038186803b158015611c7457600080fd5b505afa158015611c88573d6000803e3d6000fd5b505050506040513d601f19601f82011682018060405250810190611cac9190612ab6565b6040516338a7825d60e21b81526001600160a01b03858116600483015291925060009183169063e29e09749060240160206040518083038186803b158015611cf357600080fd5b505afa158015611d07573d6000803e3d6000fd5b505050506040513d601f19601f82011682018060405250810190611d2b9190612cc6565b9050836001600160a01b031663da0f6c707f31af571e53636dddd77f772cce9d30b42075760f2da731636acc6962da2fbef8838660200151611d6d9190612f0a565b6040516001600160e01b031960e085901b16815260048101929092526024820152604401600060405180830381600087803b158015611dab57600080fd5b505af1158015611dbf573d6000803e3d6000fd5b50505050836001600160a01b031663da0f6c707f7e07fb4530796d057ca1d76d83f47aa8629dbb7e942ac28f30ad6f5e9e8d4189838660400151611e039190612f0a565b6040516001600160e01b031960e085901b16815260048101929092526024820152604401600060405180830381600087803b158015611e4157600080fd5b505af1158015611e55573d6000803e3d6000fd5b505050506060830151604051630da0f6c760e41b81527fbdd40865e74210f0a46799ae63462c62010da92014a08cbc32f1d049d0a22c6b600482015260248101919091526001600160a01b0385169063da0f6c7090604401600060405180830381600087803b158015611ec757600080fd5b505af1158015611edb573d6000803e3d6000fd5b505050506080830151604051630da0f6c760e41b81527f5fa39c8100b49336846e52d39403e353bf782275f905a885f09224779ff1c924600482015260248101919091526001600160a01b0385169063da0f6c7090604401600060405180830381600087803b158015611f4d57600080fd5b505af1158015611f61573d6000803e3d6000fd5b5050505060a083015151604051630da0f6c760e41b81527fbd04d44792b7dbfe3b50b0f9f2006f7ef449e374a39021cb9bfa7cd0bdd850d7600482015260248101919091526001600160a01b0385169063da0f6c7090604401600060405180830381600087803b158015611fd457600080fd5b505af1158015611fe8573d6000803e3d6000fd5b5050505060a083015160200151604051630da0f6c760e41b81527f533afc15b6312917b5e28e2272ea69d44e5ea8e00d3bd57cada1275c2f14c9e8600482015260248101919091526001600160a01b0385169063da0f6c7090604401600060405180830381600087803b15801561205e57600080fd5b505af1158015612072573d6000803e3d6000fd5b5050505060a083015160200151604051630da0f6c760e41b81527fd99dae5492aa0c08830764a319f29225cc739a0ed8683d8fd1b5bc3a8fe31672600482015260248101919091526001600160a01b0385169063da0f6c7090604401600060405180830381600087803b1580156120e857600080fd5b505af11580156120fc573d6000803e3d6000fd5b50505050836001600160a01b031663da0f6c707f9ce69cf04065e3c7823cc5540c0598d8a694bd7a9a5a2a786d8bccf14ed6e2ea8560a00151604001518660a001516020015161214c9190612f0a565b6040516001600160e01b031960e085901b16815260048101929092526024820152604401600060405180830381600087803b15801561218a57600080fd5b505af115801561219e573d6000803e3d6000fd5b5050505060a083015160600151604051630da0f6c760e41b81527f6a2acfe6164f3ec20e6d80e2f4e4f7ae2b9962615c9596c872d01f6cd244aed3600482015260248101919091526001600160a01b0385169063da0f6c7090604401600060405180830381600087803b15801561221457600080fd5b505af1158015612228573d6000803e3d6000fd5b5050505060a083015160800151604051630da0f6c760e41b81527f2305fa3a9f84625f75d70f539e621c658cf49e7477ab5af9cacd278ca7904e30600482015260248101919091526001600160a01b0385169063da0f6c7090604401600060405180830381600087803b15801561229e57600080fd5b505af11580156122b2573d6000803e3d6000fd5b5050505060a0838101510151604051630da0f6c760e41b81527fb0d4178853a5320a41f8c55fa6d58af06637e392beff71e66dba4e8f32c39bb8600482015260248101919091526001600160a01b0385169063da0f6c7090604401600060405180830381600087803b15801561232757600080fd5b505af115801561233b573d6000803e3d6000fd5b5050505060c083015151604051630da0f6c760e41b81527f852a1117c7e9da33751d11fe2e33c597893ea8a4a1ae7116f44e407f91a25603600482015260248101919091526001600160a01b0385169063da0f6c7090604401600060405180830381600087803b1580156123ae57600080fd5b505af11580156123c2573d6000803e3d6000fd5b5050505060c083015160200151604051630da0f6c760e41b81527f11618fa890234170104debf73b2563b667bd200bac1d7d8dd024e2f3fadaefd2600482015260248101919091526001600160a01b0385169063da0f6c7090604401600060405180830381600087803b15801561243857600080fd5b505af115801561244c573d6000803e3d6000fd5b50505060c08401516040908101519051630da0f6c760e41b81527f3e453820e0fc9cb9a1e799559661cf9c1db4cc7d7fbcb7e0fdaf884cbe29c356600482015260248101919091526001600160a01b038616915063da0f6c7090604401600060405180830381600087803b1580156124c357600080fd5b505af11580156124d7573d6000803e3d6000fd5b5050505060c083015160600151604051630da0f6c760e41b81527faa072a75f148988e1647e65b0d00c2928a6ed1bc51c4671e0ac15252c77dc495600482015260248101919091526001600160a01b0385169063da0f6c7090604401600060405180830381600087803b15801561254d57600080fd5b505af1158015612561573d6000803e3d6000fd5b5050505060c083015160800151604051631da7c90d60e11b81527f5460409b9aa4688f80c10b29c3d7ad16025f050f472a6882a45fa7bb9bd12fb160048201526001600160a01b03918216602482015290851690633b4f921a90604401600060405180830381600087803b1580156125d857600080fd5b505af11580156125ec573d6000803e3d6000fd5b50508451604051631da7c90d60e11b81527f7fa36390a0e9b8b8004035572fd8345b1128cea12d1763a1baf8fbd4fb7b202760048201526001600160a01b0391821660248201529087169250633b4f921a9150604401600060405180830381600087803b15801561265c57600080fd5b505af1158015612670573d6000803e3d6000fd5b5050505050505050565b612685828233612812565b5050565b61269382826108cd565b6126855760405162461bcd60e51b815260206004820152601260248201527137b7363ca3b2b732b930b62830b93a3732b960711b60448201526064016105dd565b6060816126f85750506040805180820190915260018152600360fc1b602082015290565b8160005b8115612722578061270c81612f79565b915061271b9050600a83612f22565b91506126fc565b60008167ffffffffffffffff81111561274b57634e487b7160e01b600052604160045260246000fd5b6040519080825280601f01601f191660200182016040528015612775576020820181803683370190505b5090505b84156127ee5761278a600183612f36565b9150612797600a86612f94565b6127a2906030612f0a565b60f81b8183815181106127c557634e487b7160e01b600052603260045260246000fd5b60200101906001600160f81b031916908160001a9053506127e7600a86612f22565b9450612779565b949350505050565b600081516000141561280a57506000919050565b506020015190565b8160200151156128b05781606001516001600160a01b0316635e5eb01384835a865161283e9190612f36565b60408088015190516001600160e01b031960e087901b1681526001600160a01b03948516600482015293909216602484015260448301526064820152608401600060405180830381600087803b15801561289757600080fd5b505af11580156128ab573d6000803e3d6000fd5b505050505b826001600160a01b031663d4f7af436040518163ffffffff1660e01b8152600401600060405180830381600087803b1580156128eb57600080fd5b505af11580156128ff573d6000803e3d6000fd5b50505050505050565b604080516101408101825260008082526020820181905291810182905260608101829052608081018290529060a0820190815260006020820181905260408201819052606082015260800161295b612960565b905290565b60405180610100016040528060006001600160a01b03168152602001600081526020016000815260200160008152602001600081526020016129d16040518060c001604052806000815260200160008152602001600081526020016000815260200160008152602001600081525090565b8152602001612a116040518060a001604052806000815260200160008152602001600081526020016000815260200160006001600160a01b031681525090565b81526020016000905290565b60008083601f840112612a2e578182fd5b50813567ffffffffffffffff811115612a45578182fd5b6020830191508360208260051b8501011115612a6057600080fd5b9250929050565b80518015158114612a7757600080fd5b919050565b80516001600160801b0381168114612a7757600080fd5b600060208284031215612aa4578081fd5b8135612aaf81612fd4565b9392505050565b600060208284031215612ac7578081fd5b8151612aaf81612fd4565b60008060408385031215612ae4578081fd5b8235612aef81612fd4565b946020939093013593505050565b600060208284031215612b0e578081fd5b61029082612a67565b60008060408385031215612b29578182fd5b612b3283612a67565b9150602083015190509250929050565b60008060408385031215612b54578182fd5b8235612b5f81612fd4565b91506020830135612b6f81612fd4565b809150509250929050565b600080600080600080600080600060a08a8c031215612b97578485fd5b8935612ba281612fd4565b985060208a013567ffffffffffffffff80821115612bbe578687fd5b612bca8d838e01612a1d565b909a50985060408c0135915080821115612be2578687fd5b612bee8d838e01612a1d565b909850965060608c0135915080821115612c06578586fd5b612c128d838e01612a1d565b909650945060808c0135915080821115612c2a578384fd5b50612c378c828d01612a1d565b915080935050809150509295985092959850929598565b60008060408385031215612ae4578182fd5b600060208284031215612c71578081fd5b815160038110612aaf578182fd5b600080600060608486031215612c93578283fd5b835160068110612ca1578384fd5b9250612caf60208501612a7c565b9150612cbd60408501612a7c565b90509250925092565b600060208284031215612cd7578081fd5b5051919050565b60008151808452612cf6816020860160208601612f4d565b601f01601f19169290920160200192915050565b60048110612d2857634e487b7160e01b600052602160045260246000fd5b9052565b64544652502360d81b815260008251612d4c816005850160208701612f4d565b9190910160050192915050565b6001600160a01b03898116825260208083018a905260408084018a905260608085018a905260808086018a9052885160a0808801919091528985015160c08801528984015160e08801528983015161010088015289820151610120880152890151610140870152875161016087015292870151610180860152908601516101a08501528501516101c0840152840151166101e08201526102208101612e02610200830184612d0a565b9998505050505050505050565b6000610180820190508d825260018060a01b038d1660208301528b60408301528a60608301528960808301528860a08301528760c08301528660e0830152856101008301528461012083015283610140830152612e70610160830184612d0a565b9d9c50505050505050505050505050565b82815260408101612aaf6020830184612d0a565b600060018060a01b038087168352808616602084015260806040840152612ebf6080840186612cde565b915080841660608401525095945050505050565b60018060a01b0385168152836020820152826040820152608060608201526000612f006080830184612cde565b9695505050505050565b60008219821115612f1d57612f1d612fa8565b500190565b600082612f3157612f31612fbe565b500490565b600082821015612f4857612f48612fa8565b500390565b60005b83811015612f68578181015183820152602001612f50565b838111156108c75750506000910152565b6000600019821415612f8d57612f8d612fa8565b5060010190565b600082612fa357612fa3612fbe565b500690565b634e487b7160e01b600052601160045260246000fd5b634e487b7160e01b600052601260045260246000fd5b6001600160a01b0381168114612fe957600080fd5b5056fea26469706673582212206db3e8a3ab30630f5e132bc4377fdbe5d112c786ecd31e1c7c4539c8ef9798e364736f6c63430008040033",
  "linkReferences": {},
  "deployedLinkReferences": {}
}