{
  "_format": "hh-sol-artifact-1",
  "contractName": "FuroVesting",
  "sourceName": "contracts/adapters/vesting/contracts/base/FuroVesting.sol",
  "abi": [
    {
      "inputs": [],
      "stateMutability": "nonpayable",
      "type": "constructor"
    },
    {
      "inputs": [],
      "name": "InvalidStart",
      "type": "error"
    },
    {
      "inputs": [],
      "name": "InvalidStepSetting",
      "type": "error"
    },
    {
      "inputs": [],
      "name": "NotOwner",
      "type": "error"
    },
    {
      "inputs": [],
      "name": "NotVestReceiver",
      "type": "error"
    },
    {
      "anonymous": false,
      "inputs": [
        {
          "indexed": true,
          "internalType": "uint256",
          "name": "vestId",
          "type": "uint256"
        },
        {
          "indexed": true,
          "internalType": "uint256",
          "name": "ownerAmount",
          "type": "uint256"
        },
        {
          "indexed": true,
          "internalType": "uint256",
          "name": "recipientAmount",
          "type": "uint256"
        },
        {
          "indexed": false,
          "internalType": "address",
          "name": "token",
          "type": "address"
        },
        {
          "indexed": false,
          "internalType": "bool",
          "name": "toBentoBox",
          "type": "bool"
        }
      ],
      "name": "CancelVesting",
      "type": "event"
    },
    {
      "anonymous": false,
      "inputs": [
        {
          "indexed": true,
          "internalType": "uint256",
          "name": "vestId",
          "type": "uint256"
        },
        {
          "indexed": false,
          "internalType": "address",
          "name": "token",
          "type": "address"
        },
        {
          "indexed": true,
          "internalType": "address",
          "name": "recipient",
          "type": "address"
        },
        {
          "indexed": false,
          "internalType": "uint32",
          "name": "start",
          "type": "uint32"
        },
        {
          "indexed": false,
          "internalType": "uint32",
          "name": "cliffDuration",
          "type": "uint32"
        },
        {
          "indexed": false,
          "internalType": "uint32",
          "name": "stepDuration",
          "type": "uint32"
        },
        {
          "indexed": false,
          "internalType": "uint32",
          "name": "steps",
          "type": "uint32"
        },
        {
          "indexed": false,
          "internalType": "uint128",
          "name": "cliffShares",
          "type": "uint128"
        },
        {
          "indexed": false,
          "internalType": "uint128",
          "name": "stepShares",
          "type": "uint128"
        },
        {
          "indexed": false,
          "internalType": "bytes32",
          "name": "proposalId",
          "type": "bytes32"
        }
      ],
      "name": "CreateVesting",
      "type": "event"
    },
    {
      "anonymous": false,
      "inputs": [
        {
          "indexed": true,
          "internalType": "uint256",
          "name": "vestId",
          "type": "uint256"
        },
        {
          "indexed": true,
          "internalType": "address",
          "name": "newOwner",
          "type": "address"
        }
      ],
      "name": "LogUpdateOwner",
      "type": "event"
    },
    {
      "anonymous": false,
      "inputs": [
        {
          "indexed": true,
          "internalType": "address",
          "name": "previousOwner",
          "type": "address"
        },
        {
          "indexed": true,
          "internalType": "address",
          "name": "newOwner",
          "type": "address"
        }
      ],
      "name": "OwnershipTransferred",
      "type": "event"
    },
    {
      "anonymous": false,
      "inputs": [
        {
          "indexed": true,
          "internalType": "uint256",
          "name": "vestId",
          "type": "uint256"
        },
        {
          "indexed": true,
          "internalType": "address",
          "name": "token",
          "type": "address"
        },
        {
          "indexed": true,
          "internalType": "uint256",
          "name": "amount",
          "type": "uint256"
        },
        {
          "indexed": false,
          "internalType": "bool",
          "name": "toBentoBox",
          "type": "bool"
        }
      ],
      "name": "Withdraw",
      "type": "event"
    },
    {
      "inputs": [],
      "name": "PERCENTAGE_PRECISION",
      "outputs": [
        {
          "internalType": "uint256",
          "name": "",
          "type": "uint256"
        }
      ],
      "stateMutability": "view",
      "type": "function"
    },
    {
      "inputs": [],
      "name": "claimOwnership",
      "outputs": [],
      "stateMutability": "nonpayable",
      "type": "function"
    },
    {
      "inputs": [
        {
          "internalType": "contract DaoRegistry",
          "name": "dao",
          "type": "address"
        },
        {
          "internalType": "address",
          "name": "recipientAddr",
          "type": "address"
        },
        {
          "internalType": "bytes32",
          "name": "proposalId",
          "type": "bytes32"
        }
      ],
      "name": "createVesting",
      "outputs": [
        {
          "internalType": "uint256",
          "name": "depositedShares",
          "type": "uint256"
        },
        {
          "internalType": "uint256",
          "name": "vestId",
          "type": "uint256"
        },
        {
          "internalType": "uint128",
          "name": "stepShares",
          "type": "uint128"
        },
        {
          "internalType": "uint128",
          "name": "cliffShares",
          "type": "uint128"
        }
      ],
      "stateMutability": "payable",
      "type": "function"
    },
    {
      "inputs": [
        {
          "internalType": "bytes[]",
          "name": "data",
          "type": "bytes[]"
        }
      ],
      "name": "multicall",
      "outputs": [
        {
          "internalType": "bytes[]",
          "name": "results",
          "type": "bytes[]"
        }
      ],
      "stateMutability": "payable",
      "type": "function"
    },
    {
      "inputs": [],
      "name": "owner",
      "outputs": [
        {
          "internalType": "address",
          "name": "",
          "type": "address"
        }
      ],
      "stateMutability": "view",
      "type": "function"
    },
    {
      "inputs": [],
      "name": "pendingOwner",
      "outputs": [
        {
          "internalType": "address",
          "name": "",
          "type": "address"
        }
      ],
      "stateMutability": "view",
      "type": "function"
    },
    {
      "inputs": [
        {
          "internalType": "address",
          "name": "_fetcher",
          "type": "address"
        }
      ],
      "name": "setTokenURIFetcher",
      "outputs": [],
      "stateMutability": "nonpayable",
      "type": "function"
    },
    {
      "inputs": [],
      "name": "tokenURIFetcher",
      "outputs": [
        {
          "internalType": "address",
          "name": "",
          "type": "address"
        }
      ],
      "stateMutability": "view",
      "type": "function"
    },
    {
      "inputs": [
        {
          "internalType": "address",
          "name": "newOwner",
          "type": "address"
        },
        {
          "internalType": "bool",
          "name": "direct",
          "type": "bool"
        },
        {
          "internalType": "bool",
          "name": "renounce",
          "type": "bool"
        }
      ],
      "name": "transferOwnership",
      "outputs": [],
      "stateMutability": "nonpayable",
      "type": "function"
    },
    {
      "inputs": [
        {
          "internalType": "uint256",
          "name": "vestId",
          "type": "uint256"
        },
        {
          "internalType": "address",
          "name": "newOwner",
          "type": "address"
        }
      ],
      "name": "updateOwner",
      "outputs": [],
      "stateMutability": "nonpayable",
      "type": "function"
    },
    {
      "inputs": [
        {
          "internalType": "uint256",
          "name": "vestId",
          "type": "uint256"
        }
      ],
      "name": "vestBalance",
      "outputs": [
        {
          "internalType": "uint256",
          "name": "",
          "type": "uint256"
        }
      ],
      "stateMutability": "view",
      "type": "function"
    },
    {
      "inputs": [],
      "name": "vestIds",
      "outputs": [
        {
          "internalType": "uint256",
          "name": "",
          "type": "uint256"
        }
      ],
      "stateMutability": "view",
      "type": "function"
    },
    {
      "inputs": [
        {
          "internalType": "uint256",
          "name": "",
          "type": "uint256"
        }
      ],
      "name": "vests",
      "outputs": [
        {
          "internalType": "bytes32",
          "name": "proposalId",
          "type": "bytes32"
        },
        {
          "internalType": "address",
          "name": "owner",
          "type": "address"
        },
        {
          "internalType": "address",
          "name": "recipient",
          "type": "address"
        },
        {
          "internalType": "address",
          "name": "token",
          "type": "address"
        },
        {
          "internalType": "uint32",
          "name": "start",
          "type": "uint32"
        },
        {
          "internalType": "uint32",
          "name": "cliffDuration",
          "type": "uint32"
        },
        {
          "internalType": "uint32",
          "name": "stepDuration",
          "type": "uint32"
        },
        {
          "internalType": "uint32",
          "name": "steps",
          "type": "uint32"
        },
        {
          "internalType": "uint128",
          "name": "cliffShares",
          "type": "uint128"
        },
        {
          "internalType": "uint128",
          "name": "stepShares",
          "type": "uint128"
        },
        {
          "internalType": "uint128",
          "name": "claimed",
          "type": "uint128"
        }
      ],
      "stateMutability": "view",
      "type": "function"
    },
    {
      "inputs": [],
      "name": "wETH",
      "outputs": [
        {
          "internalType": "address",
          "name": "",
          "type": "address"
        }
      ],
      "stateMutability": "view",
      "type": "function"
    },
    {
      "inputs": [
        {
          "internalType": "contract DaoRegistry",
          "name": "dao",
          "type": "address"
        },
        {
          "internalType": "uint256",
          "name": "vestId",
          "type": "uint256"
        }
      ],
      "name": "withdraw",
      "outputs": [],
      "stateMutability": "nonpayable",
      "type": "function"
    }
  ],
  "bytecode": "0x60a060405234801561001057600080fd5b50600080546001600160a01b0319163390811782556040519091907f8be0079c531659141344cd1fd0a4f28419497f9722a3daafe3b4186f6b6457e0908290a360006080819052600160045561212d610073823960006103d2015261212d6000f3fe6080604052600436106100e85760003560e01c80637192711f1161008a578063e256888f11610059578063e256888f14610384578063e30c3978146103a0578063f2428621146103c0578063f3fef3a3146103f457600080fd5b80637192711f146103045780638da5cb5b14610324578063ac9650d814610344578063b3a2b2cf1461036457600080fd5b80632bcea736116100c65780632bcea7361461017a5780633ae9bc03146101905780634e71e0c8146101d257806351def556146101e757600080fd5b8063078dfbe7146100ed57806307d88aad1461010f57806319f771711461014c575b600080fd5b3480156100f957600080fd5b5061010d610108366004611b50565b610414565b005b34801561011b57600080fd5b5060025461012f906001600160a01b031681565b6040516001600160a01b0390911681526020015b60405180910390f35b34801561015857600080fd5b5061016c610167366004611e00565b610558565b604051908152602001610143565b34801561018657600080fd5b5061016c60045481565b6101a361019e366004611cec565b610636565b6040805194855260208501939093526001600160801b0391821692840192909252166060820152608001610143565b3480156101de57600080fd5b5061010d610fb3565b3480156101f357600080fd5b5061028f610202366004611e00565b600360208190526000918252604090912080546001820154600283015493830154600484015460059094015492946001600160a01b0392831694908316939282169263ffffffff600160a01b8404811693600160c01b8104821693600160e01b909104821692918116916001600160801b0364010000000090920482169181811691600160801b9004168b565b604080519b8c526001600160a01b039a8b1660208d0152988a16988b019890985295909716606089015263ffffffff938416608089015291831660a0880152821660c08701521660e08501526001600160801b0392831661010085015282166101208401521661014082015261016001610143565b34801561031057600080fd5b5061010d61031f366004611e30565b611070565b34801561033057600080fd5b5060005461012f906001600160a01b031681565b610357610352366004611c60565b6110fb565b6040516101439190611ee2565b34801561037057600080fd5b5061010d61037f366004611b18565b61127d565b34801561039057600080fd5b5061016c670de0b6b3a764000081565b3480156103ac57600080fd5b5060015461012f906001600160a01b031681565b3480156103cc57600080fd5b5061012f7f000000000000000000000000000000000000000000000000000000000000000081565b34801561040057600080fd5b5061010d61040f366004611d2c565b6112f9565b6000546001600160a01b031633146104735760405162461bcd60e51b815260206004820181905260248201527f4f776e61626c653a2063616c6c6572206973206e6f7420746865206f776e657260448201526064015b60405180910390fd5b8115610536576001600160a01b03831615158061048d5750805b6104d15760405162461bcd60e51b81526020600482015260156024820152744f776e61626c653a207a65726f206164647265737360581b604482015260640161046a565b600080546040516001600160a01b03808716939216917f8be0079c531659141344cd1fd0a4f28419497f9722a3daafe3b4186f6b6457e091a3600080546001600160a01b0385166001600160a01b031991821617909155600180549091169055505050565b600180546001600160a01b0385166001600160a01b0319909116179055505050565b60008181526003602081815260408084208151610160810183528154815260018201546001600160a01b0390811694820194909452600282015484169281019290925292830154918216606082015263ffffffff600160a01b830481166080830152600160c01b8304811660a0830152600160e01b909204821660c0820152600483015491821660e08201526001600160801b036401000000009092048216610100820152600590920154808216610120840152600160801b9004166101408201819052610625826114cc565b61062f9190612043565b9392505050565b6000806000806106446119af565b6040516317ba7d8560e01b81527f71c8887ab5df33af0f26db43a2e569d7268b592b16c505d22229eabd80eb8f3660048201526001600160a01b038916906317ba7d859060240160206040518083038186803b1580156106a357600080fd5b505afa1580156106b7573d6000803e3d6000fd5b505050506040513d601f19601f820116820180604052508101906106db9190611b34565b6001600160a01b039081166101e0830181905260a08301819052604051637d15e7b960e01b81528a8316600482015291891660248301526044820188905290637d15e7b99060640160206040518083038186803b15801561073b57600080fd5b505afa15801561074f573d6000803e3d6000fd5b505050506040513d601f19601f820116820180604052508101906107739190611cd0565b6107ef5760405162461bcd60e51b815260206004820152604160248201527f56657374696e673a3a63726561746556657374696e673a3a526563697069656e60448201527f74206e6f7420656c696769626c65206f6620746869732070726f706f73616c496064820152601960fa1b608482015260a40161046a565b60a0810151604051636cb4e9eb60e01b81526001600160a01b038a8116600483015260248201899052898116604483015290911690636cb4e9eb9060640160206040518083038186803b15801561084557600080fd5b505afa158015610859573d6000803e3d6000fd5b505050506040513d601f19601f8201168201806040525081019061087d9190611cd0565b156108da5760405162461bcd60e51b815260206004820152602760248201527f56657374696e673a3a63726561746556657374696e673a3a416c72656164792060448201526618dc99585d195960ca1b606482015260840161046a565b6040516317ba7d8560e01b81527f2a014d63456a24764c5dba5876cafc75ecbe2d639a1af4060fe13c6f50d4ba2060048201526001600160a01b038916906317ba7d859060240160206040518083038186803b15801561093957600080fd5b505afa15801561094d573d6000803e3d6000fd5b505050506040513d601f19601f820116820180604052508101906109719190611b34565b6001600160a01b0390811660c083015260a08201516040516308c8585360e11b81528a83166004820152602481018990528983166044820152911690631190b0a690606401604080518083038186803b1580156109cd57600080fd5b505afa1580156109e1573d6000803e3d6000fd5b505050506040513d601f19601f82011682018060405250810190610a059190611e5f565b5061012082015260c0810151604051632741e5e760e11b81526001600160a01b038a811660048301526024820189905290911690634e83cbce906044016102006040518083038186803b158015610a5b57600080fd5b505afa158015610a6f573d6000803e3d6000fd5b505050506040513d601f19601f82011682018060405250810190610a939190611b9a565b6102008d018190526102208d019a909a525050506001600160a01b03909716610140890152505050604090920151159250829150610ada9050575061020081015160600151155b15610af85760405163349db54560e21b815260040160405180910390fd5b610b1688826101400151836101e00151308561012001516000611570565b8082526102008201516060810151610220840151608090920151909290610b3d9083612043565b610b479190612024565b610b519190612004565b610b5b9190612004565b6001600160801b03166040820181905261020082015160600151610b7e91612024565b8151610b8a9190612043565b6001600160801b0316606082015260048054906000610ba88361208a565b91905055816020018181525050604051806101600160405280878152602001336001600160a01b03168152602001886001600160a01b031681526020018261014001516001600160a01b031681526020018261020001516000015163ffffffff1681526020018261020001516020015163ffffffff1681526020018261020001516040015163ffffffff1681526020018261020001516060015163ffffffff16815260200182606001516001600160801b0316815260200182604001516001600160801b0316815260200160006001600160801b031681525060036000836020015181526020019081526020016000206000820151816000015560208201518160010160006101000a8154816001600160a01b0302191690836001600160a01b0316021790555060408201518160020160006101000a8154816001600160a01b0302191690836001600160a01b0316021790555060608201518160030160006101000a8154816001600160a01b0302191690836001600160a01b0316021790555060808201518160030160146101000a81548163ffffffff021916908363ffffffff16021790555060a08201518160030160186101000a81548163ffffffff021916908363ffffffff16021790555060c082015181600301601c6101000a81548163ffffffff021916908363ffffffff16021790555060e08201518160040160006101000a81548163ffffffff021916908363ffffffff1602179055506101008201518160040160046101000a8154816001600160801b0302191690836001600160801b031602179055506101208201518160050160006101000a8154816001600160801b0302191690836001600160801b031602179055506101408201518160050160106101000a8154816001600160801b0302191690836001600160801b031602179055509050508060a001516001600160a01b031663bb7c06c789888a6040518463ffffffff1660e01b8152600401610ea4939291906001600160a01b0393841681526020810192909252909116604082015260600190565b602060405180830381600087803b158015610ebe57600080fd5b505af1158015610ed2573d6000803e3d6000fd5b505050506040513d601f19601f82011682018060405250810190610ef69190611cd0565b50602081810151610140830151610200840151805181850151604080840151606094850151858a0151838b015184516001600160a01b03998a16815263ffffffff9788169b81019b909b529486168a850152918516958901959095529290931660808701526001600160801b0391821660a08701521660c085015260e084018a905251908a16927f4c51f0095be9553b8e5eadbc42f96ab0b0c6526566307069cfcbecc63ea41c5291908190036101000190a35093509350935093565b6001546001600160a01b031633811461100e5760405162461bcd60e51b815260206004820181905260248201527f4f776e61626c653a2063616c6c657220213d2070656e64696e67206f776e6572604482015260640161046a565b600080546040516001600160a01b03808516939216917f8be0079c531659141344cd1fd0a4f28419497f9722a3daafe3b4186f6b6457e091a3600080546001600160a01b039092166001600160a01b0319928316179055600180549091169055565b600082815260036020526040902060018101546001600160a01b031633146110ab576040516330cd747160e01b815260040160405180910390fd5b6001810180546001600160a01b0319166001600160a01b03841690811790915560405184907fca0251ba80971adc7e92434b097ca40450b2a317013c51c5c5cb6ae74500bb0090600090a3505050565b60608167ffffffffffffffff81111561112457634e487b7160e01b600052604160045260246000fd5b60405190808252806020026020018201604052801561115757816020015b60608152602001906001900390816111425790505b50905060005b82811015611276576000803086868581811061118957634e487b7160e01b600052603260045260246000fd5b905060200281019061119b9190611f56565b6040516111a9929190611ed2565b600060405180830381855af49150503d80600081146111e4576040519150601f19603f3d011682016040523d82523d6000602084013e6111e9565b606091505b5091509150816112355760448151101561120257600080fd5b6004810190508080602001905181019061121c9190611d57565b60405162461bcd60e51b815260040161046a9190611f43565b8084848151811061125657634e487b7160e01b600052603260045260246000fd5b60200260200101819052505050808061126e9061208a565b91505061115d565b5092915050565b6000546001600160a01b031633146112d75760405162461bcd60e51b815260206004820181905260248201527f4f776e61626c653a2063616c6c6572206973206e6f7420746865206f776e6572604482015260640161046a565b600280546001600160a01b0319166001600160a01b0392909216919091179055565b600081815260036020526040902060028101546001600160a01b03163381146113355760405163e1c6117160e01b815260040160405180910390fd5b600582015460408051610160810182528454815260018501546001600160a01b039081166020830152600286015481169282019290925260038501549182166060820152600160a01b820463ffffffff9081166080830152600160c01b8304811660a0830152600160e01b909204821660c0820152600485015491821660e08201526001600160801b036401000000009092048216610100820152818316610120820152600160801b9092041661014082018190526000916113f6906114cc565b6114009190612043565b90508061140e575050505050565b808360050160108282829054906101000a90046001600160801b03166114349190611fa2565b92506101000a8154816001600160801b0302191690836001600160801b0316021790555061147e858460030160009054906101000a90046001600160a01b031630858560006117dc565b60038301546040516000815282916001600160a01b03169086907fff942d249898505febb2a9a00118e27567c084b9497d0aa3ba5e332c235b4f389060200160405180910390a45050505050565b6000808260a0015183608001516114e39190611fe5565b63ffffffff169050804210156114f95750919050565b60006115058242612043565b905060006115328560e0015163ffffffff168660c0015163ffffffff168461152d9190612004565b611999565b9050808561012001516001600160801b031661154e9190612024565b8561010001516001600160801b03166115679190611fcd565b95945050505050565b6040516317ba7d8560e01b81527fdfea78be99560632cc4c199ca1b0d68ffe0bbbb07b685976cefc8820374ac73a600482015260009081906001600160a01b038916906317ba7d859060240160206040518083038186803b1580156115d457600080fd5b505afa1580156115e8573d6000803e3d6000fd5b505050506040513d601f19601f8201168201806040525081019061160c9190611b34565b9050821561171657604051636d289ce560e11b81526001600160a01b038881166004830152602482018690526000604483015282169063da5139ca9060640160206040518083038186803b15801561166357600080fd5b505afa158015611677573d6000803e3d6000fd5b505050506040513d601f19601f8201168201806040525081019061169b9190611e18565b604051633c6340f360e21b81526001600160a01b03898116600483015288811660248301528781166044830152606482018390529193509082169063f18d03cc90608401600060405180830381600087803b1580156116f957600080fd5b505af115801561170d573d6000803e3d6000fd5b505050506117d1565b6001600160a01b03808216906302b9446c90891615611736576000611738565b855b6040516001600160e01b031960e084901b1681526001600160a01b03808c166004830152808b16602483015289166044820152606481018890526000608482015260a40160408051808303818588803b15801561179457600080fd5b505af11580156117a8573d6000803e3d6000fd5b50505050506040513d601f19601f820116820180604052508101906117cd9190611e83565b9250505b509695505050505050565b6040516317ba7d8560e01b81527fdfea78be99560632cc4c199ca1b0d68ffe0bbbb07b685976cefc8820374ac73a60048201526000906001600160a01b038816906317ba7d859060240160206040518083038186803b15801561183e57600080fd5b505afa158015611852573d6000803e3d6000fd5b505050506040513d601f19601f820116820180604052508101906118769190611b34565b905081156118f557604051633c6340f360e21b81526001600160a01b038781166004830152868116602483015285811660448301526064820185905282169063f18d03cc90608401600060405180830381600087803b1580156118d857600080fd5b505af11580156118ec573d6000803e3d6000fd5b50505050611990565b60405163097da6d360e41b81526001600160a01b0387811660048301528681166024830152858116604483015260006064830152608482018590528216906397da6d309060a4016040805180830381600087803b15801561195557600080fd5b505af1158015611969573d6000803e3d6000fd5b505050506040513d601f19601f8201168201806040525081019061198d9190611e83565b50505b50505050505050565b60008183106119a8578161062f565b5090919050565b604051806102400160405280600081526020016000815260200160006001600160801b0316815260200160006001600160801b0316815260200160006001600160801b0316815260200160006001600160a01b0316815260200160006001600160a01b0316815260200160008152602001600081526020016000815260200160006001600160a01b031681526020016000815260200160008152602001600081526020016000815260200160006001600160a01b03168152602001611a9c6040518060a0016040528060008152602001600081526020016000815260200160008152602001600081525090565b8152602001600081525090565b600060a08284031215611aba578081fd5b60405160a0810181811067ffffffffffffffff82111715611add57611add6120bb565b806040525080915082518152602083015160208201526040830151604082015260608301516060820152608083015160808201525092915050565b600060208284031215611b29578081fd5b813561062f816120d1565b600060208284031215611b45578081fd5b815161062f816120d1565b600080600060608486031215611b64578182fd5b8335611b6f816120d1565b92506020840135611b7f816120e9565b91506040840135611b8f816120e9565b809150509250925092565b6000806000806000806000806000806000806102008d8f031215611bbc578788fd5b8c51611bc7816120d1565b809c505060208d01519a5060408d0151995060608d0151611be7816120d1565b60808e0151909950611bf8816120d1565b60a08e0151909850611c09816120d1565b60c08e015190975060058110611c1d578687fd5b8096505060e08d015194506101008d015193506101208d015192506101408d01519150611c4e8e6101608f01611aa9565b90509295989b509295989b509295989b565b60008060208385031215611c72578182fd5b823567ffffffffffffffff80821115611c89578384fd5b818501915085601f830112611c9c578384fd5b813581811115611caa578485fd5b8660208260051b8501011115611cbe578485fd5b60209290920196919550909350505050565b600060208284031215611ce1578081fd5b815161062f816120e9565b600080600060608486031215611d00578283fd5b8335611d0b816120d1565b92506020840135611d1b816120d1565b929592945050506040919091013590565b60008060408385031215611d3e578182fd5b8235611d49816120d1565b946020939093013593505050565b600060208284031215611d68578081fd5b815167ffffffffffffffff80821115611d7f578283fd5b818401915084601f830112611d92578283fd5b815181811115611da457611da46120bb565b604051601f8201601f19908116603f01168101908382118183101715611dcc57611dcc6120bb565b81604052828152876020848701011115611de4578586fd5b611df583602083016020880161205a565b979650505050505050565b600060208284031215611e11578081fd5b5035919050565b600060208284031215611e29578081fd5b5051919050565b60008060408385031215611e42578182fd5b823591506020830135611e54816120d1565b809150509250929050565b60008060408385031215611e71578182fd5b825191506020830151611e54816120e9565b60008060408385031215611e95578182fd5b505080516020909101519092909150565b60008151808452611ebe81602086016020860161205a565b601f01601f19169290920160200192915050565b8183823760009101908152919050565b6000602080830181845280855180835260408601915060408160051b8701019250838701855b82811015611f3657603f19888603018452611f24858351611ea6565b94509285019290850190600101611f08565b5092979650505050505050565b60208152600061062f6020830184611ea6565b6000808335601e19843603018112611f6c578283fd5b83018035915067ffffffffffffffff821115611f86578283fd5b602001915036819003821315611f9b57600080fd5b9250929050565b60006001600160801b03808316818516808303821115611fc457611fc46120a5565b01949350505050565b60008219821115611fe057611fe06120a5565b500190565b600063ffffffff808316818516808303821115611fc457611fc46120a5565b60008261201f57634e487b7160e01b81526012600452602481fd5b500490565b600081600019048311821515161561203e5761203e6120a5565b500290565b600082821015612055576120556120a5565b500390565b60005b8381101561207557818101518382015260200161205d565b83811115612084576000848401525b50505050565b600060001982141561209e5761209e6120a5565b5060010190565b634e487b7160e01b600052601160045260246000fd5b634e487b7160e01b600052604160045260246000fd5b6001600160a01b03811681146120e657600080fd5b50565b80151581146120e657600080fdfea264697066735822122051a0f55812137c31500c817569153463966eafcf631103646f124ab35ed6799b64736f6c63430008040033",
  "linkReferences": {},
  "deployedLinkReferences": {}
}